:020000040000FA
:100000000C945C000C9479000C9479000C947900A9
:100010000C9479000C9479000C9479000C9479007C
:100020000C9479000C9436060C9479000C947900A9
:100030000C9479000C9479000C9479000C9479005C
:100040000C94EC050C9479000C9479000C947900D4
:100050000C9479000C9479000C9479000C9479003C
:100060000C9479000C947900000000002400270013
:100070002A0000000000250028002B0004040404CE
:100080000404040402020202020203030303030342
:10009000010204081020408001020408102001021F
:1000A00004081020000000080002010000030407FB
:1000B000000000000000000011241FBECFEFD4E0BC
:1000C000DEBFCDBF12E0A0E0B1E0E2EAF9E102C09C
:1000D00005900D92AE36B107D9F723E0AEE6B2E057
:1000E00001C01D92AE36B207E1F70E949C060C9447
:1000F000CF0C0C940000CF93DF93AB01BC01A0E7C1
:10010000B0E08C918E7F8C93E0EBF0E080818C7F6F
:100110008083E1EBF0E08081877F8083C6EBD0E0D5
:1001200088818F7D88838C918D7F8C938081846082
:10013000808380818C7F808381EF90E090936D033A
:1001400080936C03409368035093690360936A0340
:1001500070936B0384E595E0909367038093660347
:10016000DF91CF91089590E0FC01EC55FF4F249171
:10017000FC01E057FF4F3491FC01E458FF4FE4913C
:10018000EE23C9F0222339F0233001F1A8F4213005
:1001900019F1223029F1F0E0EE0FFF1FEE58FF4F6A
:1001A000A591B4918FB7F894EC91611126C0309568
:1001B0003E233C938FBF08952730A9F02830C9F023
:1001C000243049F7809180008F7D03C080918000AA
:1001D0008F7780938000DFCF84B58F7784BDDBCFAE
:1001E00084B58F7DFBCF8091B0008F778093B00076
:1001F000D2CF8091B0008F7DF9CF3E2BDACFCF9355
:10020000DF9390E0FC01E057FF4F249184589F4F0B
:10021000FC0184918823D1F090E0880F991FFC01A4
:10022000E859FF4FA591B491FC01EE58FF4FC591DD
:10023000D49161110EC09FB7F8948C91E22FE09594
:100240008E238C932881E223E8839FBFDF91CF9197
:1002500008958FB7F894EC91E22BEC938FBFF6CF13
:100260001F93CF93DF93182FEB0161E00E94FF00F3
:10027000209739F460E0812FDF91CF911F910C948A
:10028000B300E12FF0E0EC55FF4FE491E33011F1C2
:1002900048F4E130B9F0E23069F784B5806284BD9A
:1002A000C8BD14C0E73001F1E83031F1E43011F796
:1002B00080918000806280938000D0938B00C093F7
:1002C0008A0004C084B5806884BDC7BDDF91CF912A
:1002D0001F91089580918000806880938000D09362
:1002E0008900C0938800F2CF8091B000806880932D
:1002F000B000C093B300EACF8091B00080628093D9
:10030000B000C093B400E2CF8E3008F08E508770FA
:10031000806480937C0080917A00806480937A006E
:1003200080917A0086FDFCCF8091780090917900D1
:1003300008953FB7F8948091620390916303A09170
:100340006403B091650326B5A89B05C02F3F19F043
:100350000196A11DB11D3FBFBA2FA92F982F882745
:10036000BC01CD01620F711D811D911D43E0660F1F
:10037000771F881F991F4A95D1F70895CF92DF9272
:10038000EF92FF920E9499016B017C010E949901FA
:100390006C197D098E099F09683E7340810591059E
:1003A000A8F3FF90EF90DF90CF900895089521E09B
:1003B00020935C0310923802E0913402F0913502F0
:1003C00091838083089510926F02109270021092B0
:1003D00071021092720210926E0280916C039091E1
:1003E0006D038093B200E0E7F0E08081816080835C
:1003F0000895CF93DF93EC0181E080935B0310922B
:10040000380210925C03E0E7F0E080818E7F808309
:1004100061E070E080E090E00E947B000E94E301D8
:10042000E0E6F1E08081918127E732E0AC01990FAD
:10043000660B770BD9015D964D935D936D937C931D
:1004400090971396DC93CE93129780819181092E19
:10045000000CAA0BBB0B8093E0029093E102A093E7
:10046000E202B093E302D093C602C093C50280813A
:100470009181092E000CAA0BBB0B80932C03909347
:100480002D03A0932E03B0932F03D0931203C09398
:100490001103DF91CF910895CF92DF92EF92FF92F7
:1004A0000F931F93CF93DF938C01C4E6D0E0C12C50
:1004B000D12C7601F80187A990AD0E948401BC017E
:1004C000990F880B990B0E94D00B2AE037ED43E27D
:1004D0005CE30E945C0C9B01AC01C701B6010E9469
:1004E0002C0B6B017C01219729F70E94980BF801D6
:1004F00071836083DF91CF911F910F91FF90EF90F7
:10050000DF90CF900895CF93DF93EC018BAD9CAD3E
:1005100060E00E94B300188619861A861B8689AD92
:100520009AAD70E060E00E94300183E090E09EA709
:100530008DA788E593E098AB8FA71AAA19AADF9137
:10054000CF910C94BE010F931F93CF93DF93FC01C7
:10055000E55BFF4F2081222309F45BC0EC018BA9EE
:100560009CA9ADA9BEA90196A11DB11D8BAB9CABE9
:10057000ADABBEAB8C894BA95CA96DA97EA98823C4
:10058000C1F08C819D81AE81BF8184179507A6073C
:10059000B70750F41BAA1CAA1DAA1EAA8BAD9CADBE
:1005A00060E00E94B3001C8ADF91CF911F910F91F0
:1005B00008958C859D85AE85BF8584179507A60710
:1005C000B70790F78D899E89AF89B88D0196A11DD7
:1005D000B11D8D8B9E8BAF8BB88F498D5A8D6B8DD6
:1005E0007C8D1BAA1CAA1DAA1EAA481759076A07B8
:1005F0007B0738F4CE01DF91CF911F910F910C94BE
:1006000083028BAD9CAD61E00E94B30081E08C8BD6
:10061000CBCFFC0140855185628573854F5F5F4F6D
:100620006F4F7F4F408751876287738704811581A1
:1006300026813781401751076207730708F4B4CF4A
:10064000DACFCF93DF93EC0189A19AA1ABA1BCA132
:100650000196A11DB11D89A39AA3ABA3BCA34D8D87
:100660005E8D6F8D78A184179507A607B707E8F010
:1006700019A21AA21BA21CA28BAD9CAD61E00E9424
:10068000B30089AD9AAD64E070E00E94300182E071
:1006900090E09EA78DA783EA92E098AB8FA71AAA55
:1006A00019AADF91CF910C94BE01DF91CF910895EB
:1006B000FF920F931F93CF93DF93EC0189A59AA527
:1006C000ABA5BCA50196A11DB11D89A79AA7ABA793
:1006D000BCA74DA15EA16FA178A584179507A607B9
:1006E000B70760F18E010F5B1F4FFF24F394F801F1
:1006F000F08219A61AA61BA61CA689AD9AAD61E0C8
:1007000070E00E9430011EA61DA6FE01EC5BFF4FAB
:100710001082F801F08286ED91E098AB8FA71AAABB
:1007200019AA89AD9AAD61E070E00E943001DF91B5
:10073000CF911F910F91FF900C94BE01DF91CF914B
:100740001F910F91FF900895CF93DF93EC010E94CA
:10075000700A25E630E040E050E00E94C80AC61763
:10076000D70774F081E080935C031092380286E62C
:1007700091E09093350280933402DF91CF910895F8
:1007800010925C0381E0809338028CEC91E09093AE
:1007900033028093320288E691E090933102809395
:1007A0003002EBCF0F931F93CF93DF938C01EB01BC
:1007B00081E0809338020E94700A25E630E040E034
:1007C00050E00E94C80A061717078CF08CEC91E0E5
:1007D000909333028093320288E691E09093310245
:1007E00080933002DF91CF911F910F9108950E9465
:1007F000700A9E012F5F3F4F032E000C440B550BD8
:100800000E94C80A660F771FCB0184539E4F9093B6
:1008100033028093320268597E4F709331026093A5
:100820003002E0CFE0916401F091650180916201B6
:10083000909163013E2F2F2F41915191BC016F5F29
:100840007F4F452B09F43DC030936401209365012F
:1008500090936301809362018230910509F449C04D
:1008600008F031C0009709F438C0019709F43CC082
:1008700080916201909163018630910509F451C025
:100880000CF041C0059709F447C080916201909136
:100890006301FC013997EE30F10508F073C0ED5AA1
:1008A000FB4F0C94C90C97049B049E04A104A40460
:1008B000A704AA04AD04B004B304B604B904BC048C
:1008C000BF04CB01B7CF83309105C1F0049781F607
:1008D00070E060E084E690E004C065E070E090E0E5
:1008E00080E00E94D203C4CF65E070E081E290E036
:1008F000F8CF65E070E082E490E0F3CF65E070E06F
:1009000080E590E0EECF8730910571F0089709F00F
:10091000BCCF84E690E002C084E190E00E94A40392
:10092000B4CF81E290E0FACF82E490E0F7CF8AEF93
:1009300090E00C94D70187E791E0FBCF84EF91E042
:10094000F8CF81E792E0F5CF8EEE92E0F2CF8BE622
:1009500093E0EFCF88EE93E0ECCF85E694E0E9CF2B
:1009600082EE94E0E6CF84EC99E0E3CF88E893E16F
:10097000E0CF80E197E2DDCF88E99AE3DACF88EA39
:1009800091E6D7CFFC017797ED30F10508F03CC038
:10099000E453FB4F0C94C90CD904E004E304E604CF
:1009A000E904EC04EF04F204F504F804FB04FE048B
:1009B00001058DE590E0909337028093360208950B
:1009C00086E590E0F8CF8FE490E0F5CF88E490E002
:1009D000F2CF81E490E0EFCF8AE390E0ECCF83E3C5
:1009E00090E0E9CF8CE290E0E6CF85E290E0E3CFC3
:1009F0008EE190E0E0CF87E190E0DDCF80E190E014
:100A0000DACF89E090E0D7CFFC01B497EB30F10565
:100A100008F049C0E25FFA4F0C94C90C19051D0596
:100A20001D051D0520052305260529052C052F0577
:100A3000320581E090E00C94F90182E090E0FBCF78
:100A400085E090E0F8CF86E090E0F5CF87E090E099
:100A5000F2CF88E090E0EFCF89E090E0ECCF8AE041
:100A600090E0E9CF10925B031092380210925C0381
:100A700070E060E086E00E94300160E088E00E9463
:100A8000B30070E060E08AE00E94300160E087E03F
:100A90000E94B30070E060E089E00E94300160E0F5
:100AA00084E00C94B3000895FF920F931F93CF93AB
:100AB000DF93809175029091760201969093760271
:100AC0008093750220915B03222309F46FC0803468
:100AD0009F4168F0809173029091740210927602A7
:100AE0001092750201969093740280937302E091C4
:100AF0006401F091650120813181809173029091B0
:100B0000740282179307C8F0109274021092730255
:100B10003296F0936501E0936401809162019091B7
:100B2000630101969093630180936201DF91CF91FD
:100B30001F910F91FF900C941204C7E7D2E010E0D0
:100B400000E04CE4F42EF09EF001F19EF00D112433
:100B5000E958FD4F83A994A9A5A9B6A90196A11D9D
:100B6000B11D83AB94ABA5ABB6AB29A93AA9C9011A
:100B7000959587958C0F9D1FEFA5F8A920FF08C0BC
:100B8000DC012D913C91E20FF31F0190F081E02DEB
:100B900009950F5F1F4FC45BDF4F0330110599F6B6
:100BA000DF91CF911F910F91FF900895209138020E
:100BB000211104C020915C03222391F3E091640190
:100BC000F0916501208131818217930748F31092DB
:100BD0007602109275029CCF1F920F920FB60F9261
:100BE00011242F933F938F939F93AF93BF93809143
:100BF0005E0390915F03A0916003B0916103309117
:100C00005D0326E0230F2D3758F50296A11DB11D77
:100C100020935D0380935E0390935F03A093600332
:100C2000B09361038091620390916303A091640388
:100C3000B09165030196A11DB11D8093620390934D
:100C40006303A0936403B0936503BF91AF919F9139
:100C50008F913F912F910F900FBE0F901F9018957D
:100C600029E8230F0396A11DB11DD2CF1F920F9229
:100C70000FB60F9211242F933F934F935F936F936F
:100C80007F938F939F93AF93BF93EF93FF93809145
:100C90006C0390916D038093B20080916F029091EC
:100CA0007002A0917102B09172020196A11DB11D56
:100CB00080936F0290937002A0937102B0937202BE
:100CC00040916F02509170026091710270917202B6
:100CD0008091680390916903A0916A03B0916B03BE
:100CE000481759076A077B07B0F080916E0281119F
:100CF00012C081E080936E0210926F021092700217
:100D00001092710210927202E0916603F0916703F3
:100D1000099510926E02FF91EF91BF91AF919F9153
:100D20008F917F916F915F914F913F912F910F9094
:100D30000FBE0F901F901895CF93DF9300D000D077
:100D400000D0CDB7DEB7789484B5826084BD84B519
:100D5000816084BD85B5826085BD85B5816085BDB6
:100D600080916E00816080936E001092810080916E
:100D700081008260809381008091810081608093F6
:100D80008100809180008160809380008091B1001B
:100D900084608093B1008091B00081608093B00046
:100DA00080917A00846080937A0080917A008260DA
:100DB00080937A0080917A008E7F80937A00809170
:100DC0007A00806880937A001092C100198261E0F5
:100DD00089810E94FF0029812F5F29832D30B9F777
:100DE00080917A00846080937A0080917A008D7F70
:100DF00080937A0080917A008E7F80937A0080E0E1
:100E00000E948401BC01990F880B990B6115710533
:100E10008105910511F00E94BF0A61E086E00E9401
:100E2000FF0061E088E00E94FF0061E08AE00E942C
:100E3000FF0061E087E00E94FF0061E089E00E941E
:100E4000FF0061E084E00E94FF007DE3872E72E0F6
:100E5000972E69E472E07A836983E3E42E2EE2E060
:100E60003E2EF8EBEF2EF2E0FF2E87E792E09E8316
:100E70008D83B12CA12CA4EF4A2E55245394612CC0
:100E8000712CAD81BE81A757B240BC83AB83F40106
:100E9000819191914F01FCE4FA9D8001FB9D100D21
:100EA000112409581D4FD801D8969C938E93D7973B
:100EB00060E00E94FF00E981FA8181919191FA83BB
:100EC000E983D801DA969C938E93D99761E00E94CA
:100ED000FF00F101819191911F01D801DC969C9353
:100EE0008E93DB9761E00E94FF00F801EE5BFF4FFD
:100EF000118210826801B5E4CB0ED11CF60111827B
:100F00001082D7011C92ED81FE8110861186128617
:100F10001386DF0111A212A213A214A2F80113AAD0
:100F200014AA15AA16AA11961C921E9295964D9275
:100F30005D926D927C929897FD0111A612A613A660
:100F400014A6D7011A961C92148615861686178643
:100F5000108A118A128A138A118E128E138E148EA1
:100F6000148AD70117961C921E92169719961C92F6
:100F70001E921897CF010E944C02ED81FE8116A6A9
:100F800015A6F801EC5BFF4F108281E0D7018C932E
:100F900026ED31E0ED81FE8130AB27A712AA11AA20
:100FA000D801D9968D919C9161E070E00E9430014A
:100FB0000E94BE0190E080E0D601E6E2EA9DA00139
:100FC000EB9D500D11242B813C8128173907B1F07E
:100FD000ED91FC911197E40FF51FEE0FFF1FE25406
:100FE000FD4F9C0129583D4F318320832D913C9129
:100FF00011972F5F3F4F11963C932E93845B9F4F29
:10100000843E910501F73FEFA31AB30A6D817E81FB
:10101000645B7F4F7E836D837CE4E70EF11C83E08D
:10102000A816B10409F02DCFF89460E47FE180E0C8
:1010300090E00E947B000E94E30178940E941204D9
:101040002CE4722E35E6232E312C412C512C43E01A
:10105000842E912CA12CB12C6624639480913802AB
:10106000882309F46BC061E088E00E94B30064E06B
:1010700070E086E00E94300161E087E00E94B300EA
:1010800064E070E08AE00E94300161E084E00E9448
:10109000B30064E070E089E00E943001E091320228
:1010A000F091330240815181052E000C660B770BC5
:1010B00080E090E0DC0184179507A607B707B0F140
:1010C00060E088E00E94B30061E070E086E00E948A
:1010D000300160E087E00E94B30061E070E08AE0E8
:1010E0000E94300160E084E00E94B30061E070E0A3
:1010F00089E00E943001E0913002F091310240819C
:101100005181052E000C660B770B80E090E0DC012E
:1011100084179507A607B70708F07EC0F2E0FA9596
:10112000F1F700C00196A11DB11DF2CFE2E0EA95F2
:10113000F1F700C00196A11DB11DBDCF80915C03E8
:10114000882309F471C00E94700AA20191010E94D3
:10115000C80A209136023091370226173707DCF48F
:10116000E0913402F091350240815181052E000C4E
:10117000660B770B80E090E0DC0184179507A607EB
:10118000B70708F049C022E02A95F1F700C00196A0
:10119000A11DB11DF2CF0E94700AA50194010E9409
:1011A000C80ADB01AA0FBB1FBA83A983FD01E75B55
:1011B000FD4F108164E070E0812F0E943001E981D1
:1011C000FA81ED5BFD4FF081F98361E08F2F0E9482
:1011D000B300E0913402F091350240815181052E37
:1011E000000C660B770B80E090E0DC01841795071C
:1011F000A607B70740F422E02A95F1F700C0019650
:10120000A11DB11DF3CF61E070E0812F0E9430017C
:1012100060E089810E94B30080E090E0892B09F4AE
:101220001DCF0E94000018CF80915B038823A1F39B
:1012300067E772E07A836983F12CE12CA981BA8196
:101240009D968D919C919E97892B09F0E8C07E9C7C
:1012500080017F9C100D112409581D4FF801EE5B91
:10126000FF4F80819181892B09F0D9C0FD01EF5B8F
:10127000FF4F80818823A9F01082CD010E944C028B
:10128000F80187A990AD0E948401A981BA812D91AE
:101290003C91821B930BF80196AF85AFFF9691832B
:1012A00080837E9C80017F9C100D112409581D4F66
:1012B000D801D7968D919C910E948401E981FA8191
:1012C00020813181821B930BD801DE969C938E93F3
:1012D000DD97DD968D919C91DE97F801FF96208138
:1012E0003181821B930B181619060CF0A7C0DD96EE
:1012F0008D919C9120813181821B930BA981BA81B0
:1013000012962D913C9113977E9CA0017F9C500DCD
:101310001124FA01E958FD4F6F0145AD56ADFF9616
:1013200051834083281739070CF079C021E030E061
:101330009E963C932E939D97D601D3961D921D9217
:101340001D921C92D6970E94700A26E030E040E081
:1013500050E00E94C80A272F221F2227221FE9815E
:10136000FA81E55BFF4F20838B01000F111FF8010D
:10137000ED59FD4F80819181092E000CAA0BBB0B0A
:10138000E981FA8184839583A683B783F801E75ABC
:10139000FD4F80819181092E000CAA0BBB0BE981C6
:1013A000FA8184879587A687B787222309F1D6011A
:1013B000D3961D921D921D921C92D697648ADB963D
:1013C0008D919C9161E00E94B300F801E15BFD4FBB
:1013D00080819181092E000CAA0BBB0BE981FA8157
:1013E000818F928FA38FB48F158A168A178A108ED9
:1013F00021E233E0E981FA8130AB27A712AA11AAD2
:101400007E9CF0017F9CF00D1124E958FD4F81ADC9
:1014100092AD62E070E00E9430010E94BE013FEF99
:10142000E31AF30A69817A81645B7F4F7A83698367
:1014300073E0E716F10409F001CFEECE80819181CF
:10144000F80125AD36AD58CF8F929F92AF92BF92E3
:10145000CF92DF92EF92FF92CF93DF93EC016881FE
:1014600079818A819B81611571058105910521F43E
:1014700064E279ED8BE597E02DE133EF41E050E058
:101480000E94C80A49015A019B01AC01A7EAB1E4D4
:101490000E94E70A6B017C01ACEEB4EFA501940158
:1014A0000E94F50AC60ED71EE81EF91EF7FE06C0FA
:1014B00081E0C81AD108E10880E8F80AC882D98218
:1014C000EA82FB82C701B6019F77DF91CF91FF903F
:1014D000EF90DF90CF90BF90AF909F908F90089546
:1014E0008F929F92AF92BF92CF92DF92EF92FF9234
:1014F0006091390270913A0280913B0290913C02D6
:10150000611571058105910521F464E279ED8BE5A2
:1015100097E02DE133EF41E050E00E94C80A490115
:101520005A019B01AC01A7EAB1E40E94E70A6B01F2
:101530007C01ACEEB4EFA50194010E94F50AC60E41
:10154000D71EE81EF91EF7FE06C081E0C81AD108B2
:10155000E10880E8F80AC0923902D0923A02E0929B
:101560003B02F0923C02C701B6019F77FF90EF90DB
:10157000DF90CF90BF90AF909F908F900895609331
:10158000390270933A0280933B0290933C02089593
:10159000052E97FB1EF400940E94DF0A57FD07D02A
:1015A0000E94FA0A07FC03D04EF40C94DF0A50950F
:1015B0004095309521953F4F4F4F5F4F089590953F
:1015C0008095709561957F4F8F4F9F4F08950E9432
:1015D0001C0BA59F900DB49F900DA49F800D911D95
:1015E00011240895B7FF0C94E70A0E94E70A821BB2
:1015F000930B0895A1E21A2EAA1BBB1BFD010DC07F
:10160000AA1FBB1FEE1FFF1FA217B307E407F507B2
:1016100020F0A21BB30BE40BF50B661F771F881F8E
:10162000991F1A9469F760957095809590959B0124
:10163000AC01BD01CF010895A29FB001B39FC001CD
:10164000A39F700D811D1124911DB29F700D811DEE
:101650001124911D08955058BB27AA270E94430BBF
:101660000C94220C0E94140C38F00E941B0C20F0E9
:1016700039F49F3F19F426F40C94110C0EF4E09504
:10168000E7FB0C940B0CE92F0E94330C58F3BA17AC
:10169000620773078407950720F079F4A6F50C9488
:1016A000550C0EF4E0950B2EBA2FA02D0B01B901AD
:1016B00090010C01CA01A0011124FF27591B99F0C8
:1016C000593F50F4503E68F11A16F040A22F232FD4
:1016D000342F4427585FF3CF469537952795A79524
:1016E000F0405395C9F77EF41F16BA0B620B730BCB
:1016F000840BBAF09150A1F0FF0FBB1F661F771F3C
:10170000881FC2F70EC0BA0F621F731F841F48F4F0
:10171000879577956795B795F7959E3F08F0B0CF79
:101720009395880F08F09927EE0F97958795089560
:101730000E949F0B6894B1110C94560C08950E945E
:101740003B0C88F09F5798F0B92F9927B751B0F00C
:10175000E1F0660F771F881F991F1AF0BA95C9F735
:1017600014C0B13091F00E94550CB1E008950C9472
:10177000550C672F782F8827B85F39F0B93FCCF325
:10178000869577956795B395D9F73EF490958095B2
:10179000709561957F4F8F4F9F4F0895E89409C0D2
:1017A00097FB3EF490958095709561957F4F8F4F94
:1017B0009F4F9923A9F0F92F96E9BB279395F695AA
:1017C000879577956795B795F111F8CFFAF4BB0F28
:1017D00011F460FF1BC06F5F7F4F8F4F9F4F16C08C
:1017E000882311F096E911C0772321F09EE8872F16
:1017F000762F05C0662371F096E8862F70E060E0D2
:101800002AF09A95660F771F881FDAF7880F96954A
:10181000879597F9089597F99F6780E870E060E0F1
:1018200008959FEF80EC089500240A941616170679
:1018300018060906089500240A94121613061406C1
:1018400005060895092E0394000C11F4882352F024
:10185000BB0F40F4BF2B11F460FF04C06F5F7F4FDC
:101860008F4F9F4F089557FD9058440F551F59F0C3
:101870005F3F71F04795880F97FB991F61F09F3F7D
:1018800079F087950895121613061406551FF2CFA6
:101890004695F1DF08C0161617061806991FF1CFF6
:1018A00086957105610508940895E894BB2766271D
:1018B0007727CB0197F908950E946F0C0C94220CA6
:1018C0000E94140C38F00E941B0C20F0952311F09C
:1018D0000C940B0C0C94110C11240C94560C0E94BB
:1018E000330C70F3959FC1F3950F50E0551F629F25
:1018F000F001729FBB27F00DB11D639FAA27F00D69
:10190000B11DAA1F649F6627B00DA11D661F829F8F
:101910002227B00DA11D621F739FB00DA11D621F74
:10192000839FA00D611D221F749F3327A00D611D91
:10193000231F849F600D211D822F762F6A2F112473
:101940009F5750409AF0F1F088234AF0EE0FFF1FA6
:10195000BB1F661F771F881F91505040A9F79E3FFD
:10196000510580F00C940B0C0C94560C5F3FE4F383
:10197000983ED4F3869577956795B795F795E79553
:101980009F5FC1F7FE2B880F911D9695879597F95C
:101990000895EE0FFF1F0590F491E02D0994F8943F
:1019A000FFCF500000000000000000001E000500F6
:1019B00005000A00140002000200020002000200FA
:1019C0000200020002000200020002000200020007
:1019D00002000100010001000100010000000100FF
:1019E00000000100000001000000010003000300EE
:1019F0000300480305000400030002000100010089
:101A00005802770123004A017D007D00FA00FA00A8
:101A100077017701F4016B036504E204E2045F05DA
:101A2000F40171027102EE02EE02EE026B036B032F
:101A30006B036B036B03E803E803E803E803650447
:101A400065046504E204E2042D052D052D05AA05B3
:101A50002D052D05E204E204E2042D05AA05AA05E0
:101A600000000000000000000000000000007D00F9
:101A70007D00FA007D00FA007D00FA00FA0077018F
:101A8000F4017102F401FA007701FA007701F40120
:101A9000FA007701F4017102EE02F4017102EE0224
:101AA0006B03F4016B03E803F401710271026B0331
:101AB000E8036B03E803E2046B03E8036504E20454
:101AC0002D05AA0500000000000000000000000035
:101AD00000006801CC016601640001010000000102
:101AE000000000020008000700040006000A0009C8
:101AF00000960096009600960096000100020002F3
:101B000000040003000100010002000100030000C6
:103800000C94341C0C94511C0C94511C0C94511CA1
:103810000C94511C0C94511C0C94511C0C94511C74
:103820000C94511C0C94511C0C94511C0C94511C64
:103830000C94511C0C94511C0C94511C0C94511C54
:103840000C94511C0C94511C0C94511C0C94511C44
:103850000C94511C0C94511C0C94511C0C94511C34
:103860000C94511C0C94511C11241FBECFEFD4E0BA
:10387000DEBFCDBF11E0A0E0B1E0EEEAFFE302C0A1
:1038800005900D92A230B107D9F712E0A2E0B1E0A5
:1038900001C01D92AD30B107E1F70E94331D0C94B9
:1038A000D51F0C94001C982F9595959595959595F9
:1038B000905D8F708A307CF0282F295A8091C0004B
:1038C00085FFFCCF9093C6008091C00085FFFCCFA0
:1038D0002093C6000895282F205DF0CF982F809167
:1038E000C00085FFFCCF9093C6000895EF92FF9231
:1038F0000F931F93EE24FF2487018091C00087FD62
:1039000017C00894E11CF11C011D111D81E2E8168D
:1039100081EAF80687E0080780E0180770F3E09175
:103920000401F091050109958091C00087FFE9CF5E
:103930008091C6001F910F91FF90EF9008950E9413
:10394000761C982F8091C00085FFFCCF9093C60015
:1039500091362CF490330CF09053892F089597559D
:10396000892F08951F930E949F1C182F0E949F1C4F
:103970001295107F810F1F9108951F93182F882390
:1039800021F00E94761C1150E1F71F9108951F93BA
:10399000182F0E94761C803249F0809103018F5FBE
:1039A000809303018530C1F01F9108958091C0007C
:1039B00085FFFCCF84E18093C6008091C00085FF25
:1039C000FCCF1093C6008091C00085FFFCCF80E142
:1039D0008093C6001F910895E0910401F0910501C4
:1039E00009951F9108950E94761C803241F08091C4
:1039F00003018F5F80930301853081F008958091EA
:103A0000C00085FFFCCF84E18093C6008091C00098
:103A100085FFFCCF80E18093C6000895E09104010A
:103A2000F09105010995089510920A028823D1F0BA
:103A300090E048EC50E02D9A28EE33E0FA013197FF
:103A4000F1F721503040D1F72D9828EE33E0FA01FC
:103A50003197F1F721503040D1F79F5F981758F315
:103A600080930A0208953F924F925F926F927F92E5
:103A70008F929F92AF92BF92CF92DF92EF92FF927E
:103A80000F931F93CF93DF9394B714BE8091600080
:103A90008861809360001092600091FF0CC289E100
:103AA0008093C4001092C50088E18093C10086E035
:103AB0008093C2005098589A259A81E00E94141D64
:103AC00044E1F42E3EE1E32E24E9D22E96E0C92E05
:103AD00080E1B82EAA24A39401E4902E16E5812E4D
:103AE000B2E57B2EA0E26A2EF9E45F2EE3E54E2ECE
:103AF00070E5372E0E94761C8033B9F18133C1F115
:103B0000803409F470C0813409F477C0823409F438
:103B100086C0853409F489C0803539F1823529F1B0
:103B2000813509F4AFC1853509F485C0863509F4BE
:103B30008DC0843609F435C1843709F4C1C0853796
:103B400009F490C0863709F466C0809103018F5F45
:103B500080930301853071F6E0910401F091050135
:103B600009950E94761C803349F60E94F31CC2CF4F
:103B70000E94761C803249F78091C00085FFFCCFFF
:103B8000F092C6008091C00085FFFCCF9092C600E5
:103B90008091C00085FFFCCF8092C6008091C0005C
:103BA00085FFFCCF7092C6008091C00085FFFCCFDE
:103BB0006092C6008091C00085FFFCCF5092C60085
:103BC0008091C00085FFFCCF4092C6008091C0006C
:103BD00085FFFCCF3092C6008091C00085FFFCCFEE
:103BE000B092C60087CF0E94761C863808F4BDCFFD
:103BF0000E94761C0E94F31C7DCF0E94761C8038A8
:103C000009F45AC0813809F453C0823809F440C11C
:103C1000883909F449C080E00E94C71C6BCF84E159
:103C20000E94BD1C0E94F31C65CF85E00E94BD1C54
:103C30000E94F31C5FCF0E94761C809306010E94B5
:103C4000761C809307010E94F31C54CF0E94761CBF
:103C5000803309F421C183E00E94BD1C80E00E94F2
:103C6000C71C48CF0E94761C803209F06ECF80912D
:103C7000C00085FFFCCFF092C6008091C00085FF98
:103C8000FCCFE092C6008091C00085FFFCCFD092AF
:103C9000C6008091C00085FFFCCFC092C600809115
:103CA000C00085FFFCCF9CCF83E00E94C71C22CFC1
:103CB00081E00E94C71C1ECF82E00E94C71C1ACF61
:103CC0000E94761C809309020E94761C8093080251
:103CD0008091060190910701880F991F9093070129
:103CE000809306010E94761C853409F4C5C080913A
:103CF0000C028E7F80930C020E94761C803209F0A9
:103D0000F9CE8091C00085FFFCCFF092C600609193
:103D10000802709109026115710591F140E050E0CF
:103D200080910C02A82FA170B82FB27010C0BB23D5
:103D300061F1E0910601F09107013196F0930701DE
:103D4000E09306014F5F5F4F46175707C8F4AA2359
:103D500071F3F999FECF209106013091070132BD30
:103D600021BDF89A90B58091C00085FFFCCF90935B
:103D7000C6002F5F3F4F3093070120930601E2CF2B
:103D80008091C00085FFFCCF2BCFE0910601F09120
:103D9000070194918091C00085FFFCCF9093C600ED
:103DA000CCCF0E94761C809309020E94761C8093DF
:103DB000080280910C028E7F80930C020E94761C78
:103DC000853429F480910C02816080930C028091EB
:103DD000080290910902892B89F000E010E00E940E
:103DE000761CF801E85FFE4F80830F5F1F4F8091C4
:103DF0000802909109020817190788F30E94761C9F
:103E0000803209F0A2CE80910C0280FF62C0409106
:103E1000060150910701440F551F5093070140932D
:103E20000601609108027091090261157105C9F0DF
:103E3000E8E0F1E09A01DB01AE0FBF1FF999FECF78
:103E400032BD21BD819180BDFA9AF99A2F5F3F4F13
:103E5000EA17FB0799F7460F571F50930701409346
:103E600006018091C00085FFFCCFF092C6008091D2
:103E7000C00085FFFCCFB4CE80910C02816080939E
:103E80000C023ACF0E94F31C88E080936000FFCFC1
:103E900080E10E94C71C2ECE0E94761C0E94761CD8
:103EA000182F0E94761C112381F0113051F086E00A
:103EB0000E94C71C1FCEE0910401F09105010995F5
:103EC000EECD84E90E94C71C15CE8EE10E94C71C6E
:103ED00011CE809107018823880F880B8A21809357
:103EE0000B028091060190910701880F991F909312
:103EF0000701809306018091080280FF09C080912C
:103F00000802909109020196909309028093080299
:103F1000F894F999FECF1127E0910601F09107017D
:103F2000C8E0D1E08091080290910902103091F42C
:103F30000091570001700130D9F303E0009357005E
:103F4000E8950091570001700130D9F301E1009329
:103F50005700E895099019900091570001700130C1
:103F6000D9F301E000935700E8951395103498F0C9
:103F700011270091570001700130D9F305E000933B
:103F80005700E8950091570001700130D9F301E125
:103F900000935700E8953296029709F0C7CF10308A
:103FA00011F00296E5CF11245CCFF894FFCF80008A
:00000001FF
