:100000000C945C000C9479000C9479000C947900A9
:100010000C9479000C9479000C9479000C9479007C
:100020000C9479000C944C060C9479000C94790093
:100030000C9479000C9479000C9479000C9479005C
:100040000C9402060C9479000C9479000C947900BD
:100050000C9479000C9479000C9479000C9479003C
:100060000C9479000C947900000000002400270013
:100070002A0000000000250028002B0004040404CE
:100080000404040402020202020203030303030342
:10009000010204081020408001020408102001021F
:1000A00004081020000000080002010000030407FB
:1000B000000000000000000011241FBECFEFD8E0B8
:1000C000DEBFCDBF12E0A0E0B1E0EAEDF9E102C091
:1000D00005900D92AC36B107D9F723E0ACE6B2E05B
:1000E00001C01D92AE36B207E1F70E94AC060C9437
:1000F000EB0C0C940000CF93DF93AB01BC01A0E7A5
:10010000B0E08C918E7F8C93E0EBF0E080818C7F6F
:100110008083E1EBF0E08081877F8083C6EBD0E0D5
:1001200088818F7D88838C918D7F8C938081846082
:10013000808380818C7F808381EE90E090936D033B
:1001400080936C03409368035093690360936A0340
:1001500070936B038DE595E090936703809366033E
:10016000DF91CF91089590E0FC01EC55FF4F249171
:10017000FC01E057FF4F3491FC01E458FF4FE4913C
:10018000EE23C9F0222339F0233001F1A8F4213005
:1001900019F1223029F1F0E0EE0FFF1FEE58FF4F6A
:1001A000A591B4918FB7F894EC91611126C0309568
:1001B0003E233C938FBF08952730A9F02830C9F023
:1001C000243049F7809180008F7D03C080918000AA
:1001D0008F7780938000DFCF84B58F7784BDDBCFAE
:1001E00084B58F7DFBCF8091B0008F778093B00076
:1001F000D2CF8091B0008F7DF9CF3E2BDACFCF9355
:10020000DF9390E0FC01E057FF4F249184589F4F0B
:10021000FC0184918823D1F090E0880F991FFC01A4
:10022000E859FF4FA591B491FC01EE58FF4FC591DD
:10023000D49161110EC09FB7F8948C91E22FE09594
:100240008E238C932881E223E8839FBFDF91CF9197
:1002500008958FB7F894EC91E22BEC938FBFF6CF13
:100260001F93CF93DF93182FEB0161E00E94FF00F3
:10027000209739F460E0812FDF91CF911F910C948A
:10028000B300E12FF0E0EC55FF4FE491E33011F1C2
:1002900048F4E130B9F0E23069F784B5806284BD9A
:1002A000C8BD14C0E73001F1E83031F1E43011F796
:1002B00080918000806280938000D0938B00C093F7
:1002C0008A0004C084B5806884BDC7BDDF91CF912A
:1002D0001F91089580918000806880938000D09362
:1002E0008900C0938800F2CF8091B000806880932D
:1002F000B000C093B300EACF8091B00080628093D9
:10030000B000C093B400E2CF8E3008F08E508770FA
:10031000806480937C0080917A00806480937A006E
:1003200080917A0086FDFCCF8091780090917900D1
:1003300008953FB7F8948091620390916303A09170
:100340006403B091650326B5A89B05C02F3F19F043
:100350000196A11DB11D3FBFBA2FA92F982F882745
:10036000BC01CD01620F711D811D911D42E0660F20
:10037000771F881F991F4A95D1F70895CF92DF9272
:10038000EF92FF920E9499016B017C010E949901FA
:100390006C197D098E099F09683E7340810591059E
:1003A000A8F3FF90EF90DF90CF900895089521E09B
:1003B00020935C0310923602E0913202F0913302F6
:1003C000918380830895CF93DF93EC0181E0809344
:1003D0005B031092360210925C0361E070E080E0F3
:1003E00090E00E947B0010927302109274021092AF
:1003F00075021092760210927202E0E6F1E08081BE
:10040000918127E732E0AC01990F660B770BD90198
:100410005D964D935D936D937C9390971396DC93CB
:10042000CE93129780819181092E000CAA0BBB0BF1
:100430008093E0029093E102A093E202B093E30282
:10044000D093C602C093C50280819181092E000C11
:10045000AA0BBB0B80932C0390932D03A0932E0328
:10046000B0932F03D0931203C0931103DF91CF9168
:100470000895CF92DF92EF92FF920F931F93CF9345
:10048000DF938C01C4E6D0E0C12CD12C7601F801B9
:1004900087A990AD0E948401BC01990F880B990B2C
:1004A0000E94EC0B2AE037ED43E25CE30E94780CFB
:1004B0009B01AC01C701B6010E94480B6B017C0196
:1004C000219729F70E94B40BF80171836083DF91B3
:1004D000CF911F910F91FF90EF90DF90CF900895F3
:1004E000CF93DF93EC018BAD9CAD60E00E94B30035
:1004F000188619861A861B8689AD9AAD70E060E071
:100500000E94300183E090E09EA78DA7DE01A95BE9
:10051000BF4F90E080E0AE014B5B5F4FFA0120815E
:1005200031818217930774F4ED91FD912BAD3CADB1
:10053000EE5BFF4F208131812150310931832083CF
:100540000196ECCF81E693E098AB8FA71AAA19AA7F
:10055000DF91CF910C94BE010F931F93CF93DF9344
:10056000FC01E55BFF4F2081222309F45BC0EC0115
:100570008BA99CA9ADA9BEA90196A11DB11D8BABEC
:100580009CABADABBEAB8C894BA95CA96DA97EA918
:100590008823C1F08C819D81AE81BF81841795072E
:1005A000A607B70750F41BAA1CAA1DAA1EAA8BAD4A
:1005B0009CAD60E00E94B3001C8ADF91CF911F9137
:1005C0000F9108958C859D85AE85BF85841795070D
:1005D000A607B70790F78D899E89AF89B88D0196D8
:1005E000A11DB11D8D8B9E8BAF8BB88F498D5A8D00
:1005F0006B8D7C8D1BAA1CAA1DAA1EAA4817590721
:100600006A077B0738F4CE01DF91CF911F910F91DC
:100610000C9470028BAD9CAD61E00E94B30081E050
:100620008C8BCBCFFC0140855185628573854F5FF4
:100630005F4F6F4F7F4F4087518762877387048179
:10064000158126813781401751076207730708F427
:10065000B4CFDACFCF93DF93EC0189A19AA1ABA1FC
:10066000BCA10196A11DB11D89A39AA3ABA3BCA3F4
:100670004D8D5E8D6F8D78A184179507A607B707FE
:10068000E8F019A21AA21BA21CA28BAD9CAD61E0DE
:100690000E94B30089AD9AAD64E070E00E94300121
:1006A00082E090E09EA78DA78CEA92E098AB8FA79E
:1006B0001AAA19AADF91CF910C94BE01DF91CF91B4
:1006C0000895FF920F931F93CF93DF93EC0189A5B9
:1006D0009AA5ABA5BCA50196A11DB11D89A79AA796
:1006E000ABA7BCA74DA15EA16FA178A58417950704
:1006F000A607B70760F18E010F5B1F4FFF24F3942D
:10070000F801F08219A61AA61BA61CA689AD9AADFF
:1007100061E070E00E9430011EA61DA6FE01EC5BA8
:10072000FF4F1082F801F08286ED91E098AB8FA721
:100730001AAA19AA89AD9AAD61E070E00E94300151
:10074000DF91CF911F910F91FF900C94BE01DF912B
:10075000CF911F910F91FF900895CF93DF93EC01FC
:100760000E948C0A25E630E040E050E00E94E40A56
:10077000C617D70774F081E080935C0310923602AD
:1007800084E691E09093330280933202DF91CF911F
:10079000089510925C0381E0809336028AEC91E028
:1007A000909331028093300286E691E090932F027D
:1007B00080932E02EBCF0F931F93CF93DF938C0187
:1007C000EB0181E0809336020E948C0A25E630E03E
:1007D00040E050E00E94E40A061717078CF08AEC0C
:1007E00091E0909331028093300286E691E09093FD
:1007F0002F0280932E02DF91CF911F910F910895C8
:100800000E948C0A9E012F5F3F4F032E000C440B69
:10081000550B0E94E40A660F771FCB0186539E4F4B
:1008200090933102809330026A597E4F70932F0269
:1008300060932E02E0CFE0916201F091630180911C
:100840007002909171023E2F2F2F41915191BC0166
:100850006F5F7F4F452B09F43DC0309362012093B9
:10086000630190937102809370028230910509F4C4
:1008700049C008F031C0009709F438C0019709F465
:100880003CC080917002909171028630910509F40C
:1008900051C00CF041C0059709F447C08091700227
:1008A00090917102FC013997EE30F10508F073C0A8
:1008B000E45AFB4F0C94E50CA004A404A704AA047A
:1008C000AD04B004B304B604B904BC04BF04C2044C
:1008D000C504C804CB01B7CF83309105C1F004979C
:1008E00081F670E060E084E690E004C065E070E0CE
:1008F00090E080E00E94DB03C4CF65E070E081E21D
:1009000090E0F8CF65E070E082E490E0F3CF65E03E
:1009100070E080E590E0EECF8730910571F00897A8
:1009200009F0BCCF84E690E002C084E190E00E9430
:10093000AD03B4CF81E290E0FACF82E490E0F7CF4C
:100940008AEF90E00C94D70187E791E0FBCF84EF2A
:1009500091E0F8CF81E792E0F5CF8EEE92E0F2CF12
:100960008BE693E0EFCF88EE93E0ECCF85E694E062
:10097000E9CF82EE94E0E6CF84EC99E0E3CF88E81B
:1009800093E1E0CF80E197E2DDCF88E99AE3DACF27
:1009900088EA91E6D7CFFC017797ED30F10508F0B2
:1009A0003CC0EB52FB4F0C94E50CE204E904EC0470
:1009B000EF04F204F504F804FB04FE040105040549
:1009C00007050A058DE590E0909335028093340287
:1009D000089586E590E0F8CF8FE490E0F5CF88E4C5
:1009E00090E0F2CF81E490E0EFCF8AE390E0ECCFAB
:1009F00083E390E0E9CF8CE290E0E6CF85E290E0FF
:100A0000E3CF8EE190E0E0CF87E190E0DDCF80E1C1
:100A100090E0DACF89E090E0D7CFFC01B497EB30DB
:100A2000F10508F049C0E95EFA4F0C94E50C220587
:100A300026052605260529052C052F053205350531
:100A400038053B0581E090E00C94E30182E090E002
:100A5000FBCF85E090E0F8CF86E090E0F5CF87E02F
:100A600090E0F2CF88E090E0EFCF89E090E0ECCF2B
:100A70008AE090E0E9CF10925B0310923602109268
:100A80005C0370E060E086E00E94300160E088E096
:100A90000E94B30070E060E08AE00E94300160E0F4
:100AA00087E00E94B30070E060E089E00E943001BE
:100AB00060E084E00C94B3000895FF920F931F93BD
:100AC000CF93DF9380916E0290916F020196909385
:100AD0006F0280936E0220915B03222309F46FC0A2
:100AE0008E38904268F080916C0290916D02109265
:100AF0006F0210926E02019690936D0280936C02C9
:100B0000E0916201F09163012081318180916C025A
:100B100090916D0282179307C8F010926D021092A7
:100B20006C023296F0936301E0936201809170024F
:100B30009091710201969093710280937002DF91FF
:100B4000CF911F910F91FF900C941B04C7E7D2E047
:100B500010E000E04CE4F42EF09EF001F19EF00D68
:100B60001124E958FD4F83A994A9A5A9B6A9019616
:100B7000A11DB11D83AB94ABA5ABB6AB29A93AA916
:100B8000C901959587958C0F9D1FEFA5F8A920FFAA
:100B900008C0DC012D913C91E20FF31F0190F08120
:100BA000E02D09950F5F1F4FC45BDF4F0330110528
:100BB00099F6DF91CF911F910F91FF9008952091A9
:100BC0003602211104C020915C03222391F3E091AD
:100BD0006201F0916301208131818217930748F30C
:100BE00010926F0210926E029CCF30E020E0281726
:100BF00039073CF445E04A95F1F700002F5F3F4F7D
:100C0000F6CF08951F920F920FB60F9211242F93D3
:100C10003F938F939F93AF93BF9380915E03909187
:100C20005F03A0916003B091610330915D0323E005
:100C3000230F2D3758F50196A11DB11D20935D039B
:100C400080935E0390935F03A0936003B09361036E
:100C50008091620390916303A0916403B091650356
:100C60000196A11DB11D8093620390936303A0932D
:100C70006403B0936503BF91AF919F918F913F91B2
:100C80002F910F900FBE0F901F90189526E8230FFD
:100C90000296A11DB11DD2CF1F920F920FB60F92D7
:100CA00011242F933F934F935F936F937F938F9371
:100CB0009F93AF93BF93EF93FF93809173029091B3
:100CC0007402A0917502B09176020196A11DB11D2A
:100CD0008093730290937402A0937502B09376028E
:100CE0004091730250917402609175027091760286
:100CF0008091680390916903A0916A03B0916B039E
:100D0000481759076A077B07B0F08091720281117A
:100D100012C081E0809372021092730210927402EA
:100D20001092750210927602E0916603F0916703CB
:100D3000099510927202FF91EF91BF91AF919F912F
:100D40008F917F916F915F914F913F912F910F9074
:100D50000FBE0F901F901895CF93DF9300D000D057
:100D600000D0CDB7DEB7789484B5826084BD84B5F9
:100D7000816084BD85B5826085BD85B5816085BD96
:100D800080916E00816080936E001092810080914E
:100D900081008260809381008091810081608093D6
:100DA0008100809180008160809380008091B100FB
:100DB00084608093B1008091B00081608093B00026
:100DC00080917A00846080937A0080917A008260BA
:100DD00080937A0080917A00816080937A0080917C
:100DE0007A00806880937A001092C100198261E0D5
:100DF00089810E94FF0029812F5F29832D30B9F757
:100E000080917A00846080937A0080917A008D7F4F
:100E100080937A0080917A008E7F80937A0080E0C0
:100E20000E948401BC01990F880B990B6115710513
:100E30008105910511F00E94DB0A61E086E00E94C5
:100E4000FF0061E088E00E94FF0061E08AE00E940C
:100E5000FF0061E087E00E94FF0061E089E00E94FE
:100E6000FF0061E084E00E94FF008BE392E09A8340
:100E7000898377E4272E72E0372EE1E48E2EE2E0BC
:100E80009E2EF8EBEF2EF2E0FF2EA7E7B2E0BE8336
:100E9000AD83B12CA12CA4EF4A2E55245394612C80
:100EA000712CED81FE81E757F240FC83EB83A98131
:100EB000BA818D919D91BA83A983BCE4BA9D8001CA
:100EC000BB9D100D112409581D4FF80190AF87AB41
:100ED00060E00E94FF00D1018D919D911D01F801FC
:100EE00092AF81AF61E00E94FF00D4018D919D918E
:100EF0004D01F80194AF83AF61E00E94FF00F8015B
:100F0000EE5BFF4F118210826801F5E4CF0ED11C19
:100F1000D60111961C921E92F7011082AD81BE81FE
:100F200018961D921D921D921C921B97FD0111A2F5
:100F300012A213A214A2D801D3961D921D921D9243
:100F40001C92D6971182108245A256A267A270A663
:100F5000DF0111A612A613A614A6F70112861C968D
:100F60001D921D921D921C921F97FD01108A118ADD
:100F7000128A138A59961D921D921D921C925C979B
:100F800054961C925497F701178216821186108688
:100F9000CD010E943902AD81BE819E961C921E92A7
:100FA0009D97F801EC5BFF4F108281E0F701808391
:100FB00026ED31E0D0963C932E939F97D2961C92CB
:100FC0001E92D197D801D9968D919C9161E070E0E5
:100FD0000E9430010E94BE0190E080E0D601E6E26E
:100FE000EA9DA001EB9D500D11242B813C818217BD
:100FF0009307B1F0ED91FC911197E40FF51FEE0FFF
:10100000FF1FE254FD4F9C0129583D4F318320833F
:101010002D913C9111972F5F3F4F11963C932E934A
:10102000845B9F4F843E910501F73FEFA31AB30AFB
:101030008D819E81845B9F4F9E838D839CE4E90E0E
:10104000F11CA3E0AA16B10409F02BCFF8946EE8C6
:1010500070E280E090E00E947B0010927302109298
:1010600074021092750210927602109272027894B5
:101070000E941B043CE4932E43E0442E512C612C2F
:10108000712C50E0252E50E0352E882483948091D9
:101090003602882309F44DC061E088E00E94B30065
:1010A00064E070E086E00E94300161E087E00E9429
:1010B000B30064E070E08AE00E94300161E084E007
:1010C0000E94B30064E070E089E00E943001E0918A
:1010D0003002F0913102808191810E94F50560E03B
:1010E00088E00E94B30061E070E086E00E94300179
:1010F00060E087E00E94B30061E070E08AE00E9457
:10110000300160E084E00E94B30061E070E089E0BB
:101110000E943001E0912E02F0912F028081918196
:101120000E94F5052114310409F4B1CF0E9400009A
:10113000ACCF80915C03882309F444C00E948C0AE0
:1011400025E630E040E050E00E94E40A20913402BD
:1011500030913502261737072CF4E0913202F091D6
:101160003302DCCF0E948C0AA30192010E94E40AA0
:10117000FB01EE0FFF1FFA83E983E95BFD4F10814E
:1011800064E070E0812F0E94300129813A812F5B59
:101190003D4FD901BC91B98361E08B2F0E94B30010
:1011A000E0913202F0913302808191810E94F50535
:1011B00061E070E0812F0E94300160E089810E942F
:1011C000B300B0CF80915B03882309F4ABCFE7E78E
:1011D000F2E0FA83E98310E000E0A981BA819D96EC
:1011E000AD90BC909E97A114B10409F03CC1909EB3
:1011F000C001919E900D1124FC01E958FD4F7F0123
:10120000EE5BFF4F80819181892B09F02CC1FD019C
:10121000EF5BFF4F80818823C9F01082CD010E94CF
:101220003902D701D7968D919C910E948401E98162
:10123000FA8120813181821B930BD701DE969C932A
:101240008E93DD97F701FF9691838083909EC00176
:10125000919E900D1124FC01E958FD4F7F0187A953
:1012600090AD0E948401A981BA812D913C91821B8D
:10127000930BF70196AF85AF85AD96ADFF962081B4
:101280003181821B930B181619060CF06EC0D70122
:10129000DD962D913C9180819181281B390BA9818C
:1012A000BA8112968D919C9182179307FCF4039654
:1012B000909EF001919EF00D1124E958FD4F25AD4F
:1012C00036ADDF01DF964D915C911197241B350BF4
:1012D000121613060CF04FC025AD36AD4D915C9142
:1012E000241B350B41E0821793070CF440E0909EDD
:1012F000C001919E900D1124FC01E958FD4F6F0132
:1013000085AD96ADFF9691838083442309F4ABC0ED
:10131000E1E0F0E0A981BA819E96FC93EE939D975F
:10132000D60196012B5B3F4FDB96F90180819181BD
:10133000A816B9062CF5F501EE0FFF1FE95BFF4F6C
:1013400089819A81E80FF91F0190F081E02D8D913C
:101350009C911197EE5BFF4F808191810196918363
:1013600080839FEFA91AB90AE0CF20813181F7016C
:1013700085AD96AD92CF2D913C9145AD56ADB0CF98
:10138000D601D3961D921D921D921C92D6970E9453
:101390008C0A26E030E040E050E00E94E40A272F6B
:1013A000221F2227221FE981FA81E55BFF4F20835C
:1013B0007B01EE0CFF1CF701EF59FD4F80819181FD
:1013C000092E000CAA0BBB0BE981FA81848395835B
:1013D000A683B783F701E95AFD4F80819181092ED9
:1013E000000CAA0BBB0BE981FA8184879587A6873D
:1013F000B787222309F1D601D3961D921D921D9223
:101400001C92D697848ADB968D919C9161E00E9414
:10141000B300F701E35BFD4F80819181092E000C41
:10142000AA0BBB0BE981FA81818F928FA38FB48FB6
:10143000158A168A178A108E2AE233E0E981FA812A
:1014400030AB27A712AA11AA909EF001919EF00D31
:101450001124E958FD4F81AD92AD62E070E00E9429
:1014600030010E94BE010F5F1F4F89819A81845B0A
:101470009F4F9A8389830330110509F0AECE52CE77
:101480008F929F92AF92BF92CF92DF92EF92FF9294
:10149000CF93DF93EC01688179818A819B8161150B
:1014A00071058105910521F464E279ED8BE597E002
:1014B0002DE133EF41E050E00E94E40A49015A0176
:1014C0009B01AC01A7EAB1E40E94030B6B017C0114
:1014D000ACEEB4EFA50194010E94110BC60ED71E0D
:1014E000E81EF91EF7FE06C081E0C81AD108E1081F
:1014F00080E8F80AC882D982EA82FB82C701B60175
:101500009F77DF91CF91FF90EF90DF90CF90BF90CA
:10151000AF909F908F9008958F929F92AF92BF92BD
:10152000CF92DF92EF92FF92609137027091380272
:101530008091390290913A026115710581059105FA
:1015400021F464E279ED8BE597E02DE133EF41E0A2
:1015500050E00E94E40A49015A019B01AC01A7EA4C
:10156000B1E40E94030B6B017C01ACEEB4EFA5016A
:1015700094010E94110BC60ED71EE81EF91EF7FE3D
:1015800006C081E0C81AD108E10880E8F80AC092D4
:101590003702D0923802E0923902F0923A02C70143
:1015A000B6019F77FF90EF90DF90CF90BF90AF9004
:1015B0009F908F90089560933702709338028093C4
:1015C000390290933A020895052E97FB1EF4009479
:1015D0000E94FB0A57FD07D00E94160B07FC03D0A0
:1015E0004EF40C94FB0A50954095309521953F4F51
:1015F0004F4F5F4F089590958095709561957F4FFF
:101600008F4F9F4F08950E94380BA59F900DB49F58
:10161000900DA49F800D911D11240895B7FF0C9487
:10162000030B0E94030B821B930B0895A1E21A2E59
:10163000AA1BBB1BFD010DC0AA1FBB1FEE1FFF1F76
:10164000A217B307E407F50720F0A21BB30BE40BC6
:10165000F50B661F771F881F991F1A9469F760950D
:101660007095809590959B01AC01BD01CF010895C7
:10167000A29FB001B39FC001A39F700D811D1124D3
:10168000911DB29F700D811D1124911D0895505818
:10169000BB27AA270E945F0B0C943E0C0E94300CC3
:1016A00038F00E94370C20F039F49F3F19F426F4EB
:1016B0000C942D0C0EF4E095E7FB0C94270CE92F0D
:1016C0000E944F0C58F3BA176207730784079507F7
:1016D00020F079F4A6F50C94710C0EF4E0950B2E25
:1016E000BA2FA02D0B01B90190010C01CA01A00174
:1016F0001124FF27591B99F0593F50F4503E68F1CF
:101700001A16F040A22F232F342F4427585FF3CF0F
:10171000469537952795A795F0405395C9F77EF4E0
:101720001F16BA0B620B730B840BBAF09150A1F029
:10173000FF0FBB1F661F771F881FC2F70EC0BA0FAF
:10174000621F731F841F48F4879577956795B79537
:10175000F7959E3F08F0B0CF9395880F08F0992732
:10176000EE0F9795879508950E94BB0B6894B11171
:101770000C94720C08950E94570C88F09F5798F0B3
:10178000B92F9927B751B0F0E1F0660F771F881F86
:10179000991F1AF0BA95C9F714C0B13091F00E94A0
:1017A000710CB1E008950C94710C672F782F882785
:1017B000B85F39F0B93FCCF3869577956795B395C7
:1017C000D9F73EF490958095709561957F4F8F4F36
:1017D0009F4F0895E89409C097FB3EF4909580953B
:1017E000709561957F4F8F4F9F4F9923A9F0F92FE7
:1017F00096E9BB279395F695879577956795B79565
:10180000F111F8CFFAF4BB0F11F460FF1BC06F5F4A
:101810007F4F8F4F9F4F16C0882311F096E911C05C
:10182000772321F09EE8872F762F05C0662371F07D
:1018300096E8862F70E060E02AF09A95660F771F91
:10184000881FDAF7880F9695879597F9089597F985
:101850009F6780E870E060E008959FEF80EC089556
:1018600000240A941616170618060906089500247F
:101870000A9412161306140605060895092E0394F9
:10188000000C11F4882352F0BB0F40F4BF2B11F46D
:1018900060FF04C06F5F7F4F8F4F9F4F089557FDCC
:1018A0009058440F551F59F05F3F71F04795880FCE
:1018B00097FB991F61F09F3F79F087950895121665
:1018C00013061406551FF2CF4695F1DF08C0161611
:1018D00017061806991FF1CF8695710561050894C2
:1018E0000895E894BB2766277727CB0197F90895D9
:1018F0000E948B0C0C943E0C0E94300C38F00E941D
:10190000370C20F0952311F00C94270C0C942D0C1F
:1019100011240C94720C0E944F0C70F3959FC1F32C
:10192000950F50E0551F629FF001729FBB27F00D8D
:10193000B11D639FAA27F00DB11DAA1F649F6627E2
:10194000B00DA11D661F829F2227B00DA11D621F31
:10195000739FB00DA11D621F839FA00D611D221FEB
:10196000749F3327A00D611D231F849F600D211DCF
:10197000822F762F6A2F11249F5750409AF0F1F052
:1019800088234AF0EE0FFF1FBB1F661F771F881FBB
:1019900091505040A9F79E3F510580F00C94270CC0
:1019A0000C94720C5F3FE4F3983ED4F386957795E0
:1019B0006795B795F795E7959F5FC1F7FE2B880F61
:1019C000911D9695879597F90895EE0FFF1F059045
:0A19D000F491E02D0994F894FFCF84
:1019DA00500000000000000000001E000500050085
:1019EA000A001400020002000200020002000200C3
:1019FA0002000200020002000200020002000200CD
:101A0A0001000100010001000100000001000000C6
:101A1A0001000000010000000100030003000300B0
:101A2A0048030500040003000200010001005802F7
:101A3A00770102017D007D00FA00FA007701770143
:101A4A00F4016B036504E204E2045F05F401710228
:101A5A007102EE02EE02EE026B036B036B036B0381
:101A6A006B03E803E803E803E80365046504650417
:101A7A00E204E2042D052D052D05AA052D052D05E7
:101A8A00E204E204E2042D05AA05AA05000000000A
:101A9A00000000000000000000007D007D00FA0048
:101AAA007D00FA007D00FA00FA007701F401710264
:101ABA00F401FA007701FA007701F401FA007701DC
:101ACA00F4017102EE02F4017102EE026B03F401F9
:101ADA006B03E803F401710271026B03E8036B0301
:101AEA00E803E2046B03E8036504E2042D05AA0592
:101AFA000000000000000000000000000000660175
:101B0A00CA01640164000101000000010000000232
:101B1A000008000700040006000A00090096009663
:101B2A0000960096009600010002000200040003DD
:0C1B3A0000010001000200010003000097
:00000001FF
