:020000040000FA
:100000000C94EF000C9417010C9417010C94170139
:100010000C9417010C9417010C9417010C94170100
:100020000C9417010C947F070C9417010C94170182
:100030000C9417010C9417010C9417010C941701E0
:100040000C94DD060C9417010C944D070C942707B3
:100050000C9417010C9417010C9417010C941701C0
:100060000C9417010C9417017D007D00FA00FA0032
:1000700077017701F4016B036504E204E2045F0594
:10008000F40171027102EE02EE02EE026B036B03E9
:100090006B036B036B03E803E803E803E803650401
:1000A00065046504E204E2042D052D052D05AA056D
:1000B0002D052D05E204E204E2042D05AA05AA059A
:1000C00000000000000000000000000000007D00B3
:1000D0007D00FA007D00FA007D00FA00FA00770149
:1000E000F4017102F401FA007701FA007701F401DA
:1000F000FA007701F4017102EE02F4017102EE02DE
:100100006B03F4016B03E803F401710271026B03EA
:10011000E8036B03E803E2046B03E8036504E2040D
:100120002D05AA05000000000000000000000000EE
:100130000000770100000000000000000100010045
:1001400001000100010001000100010001000100A7
:100150000100010001000100010001000100010097
:100160000100010001000100010001000000010088
:10017000000001000000010000000100480305002C
:10018000040003000200010001005802000000000A
:10019000240027002A0000000000250028002B0072
:1001A000040404040404040402020202020203031D
:1001B0000303030301020408102040800102040825
:1001C00010200102040810200000000800020100B5
:1001D000000304070000000000000000E5071124F0
:1001E0001FBECFEFD4E0DEBFCDBF11E0A0E0B1E095
:1001F000E6E7F0E202C005900D92AA36B107D9F702
:1002000023E0AAE6B1E001C01D92A031B207E1F7F8
:1002100010E0CFEED0E004C02197FE010E94331021
:10022000CE3ED107C9F70E9412080C9439100C94E5
:100230000000CF93DF93AB01BC01A0E7B0E08C914D
:100240008E7F8C93E0EBF0E080818C7F8083E1EB0C
:10025000F0E08081877F8083C6EBD0E088818F7D4E
:1002600088838C918D7F8C93808184608083808152
:100270008C7F808381EF90E090938E0180938D013D
:100280004093890150938A0160938B0170938C0194
:1002900082EB93E09093880180938701DF91CF9167
:1002A000089590E0FC01E853FE4F2491FC01EC54CA
:1002B000FE4F3491FC01E056FE4FE491EE23C9F06D
:1002C000222339F0233001F1A8F4213019F1223032
:1002D00029F1F0E0EE0FFF1FEA56FE4FA591B49111
:1002E0008FB7F894EC91611126C030953E233C9372
:1002F0008FBF08952730A9F02830C9F0243049F77E
:10030000809180008F7D03C0809180008F778093E3
:100310008000DFCF84B58F7784BDDBCF84B58F7D40
:10032000FBCF8091B0008F778093B000D2CF8091C7
:10033000B0008F7DF9CF3E2BDACFCF93DF9390E0E3
:10034000FC01EC54FE4F249180569E4FFC01849199
:100350008823D1F090E0880F991FFC01E457FE4FED
:10036000A591B491FC01EA56FE4FC591D49161115B
:100370000EC09FB7F8948C91E22FE0958E238C935A
:100380002881E223E8839FBFDF91CF9108958FB743
:10039000F894EC91E22BEC938FBFF6CF1F93CF93A1
:1003A000DF93182FEB0161E00E949D01209739F443
:1003B00060E0812FDF91CF911F910C945101E12FCB
:1003C000F0E0E853FE4FE491E33011F148F4E130FE
:1003D000B9F0E23069F784B5806284BDC8BD14C04D
:1003E000E73001F1E83031F1E43011F7809180001D
:1003F000806280938000D0938B00C0938A0004C0F9
:1004000084B5806884BDC7BDDF91CF911F910895E9
:1004100080918000806880938000D0938900C09391
:100420008800F2CF8091B00080688093B000C093C4
:10043000B300EACF8091B00080628093B000C09397
:10044000B400E2CF8E3008F08E50877080648093C5
:100450007C0080917A00806480937A0080917A0099
:1004600086FDFCCF809178009091790008958330CB
:10047000910528F0880F991F04970197F1F70895C7
:100480003FB7F8948091830190918401A0918501F8
:10049000B091860126B5A89B05C02F3F19F00196A3
:1004A000A11DB11D3FBFBA2FA92F982F8827BC01CE
:1004B000CD01620F711D811D911D43E0660F771FF5
:1004C000881F991F4A95D1F708958F929F92AF92F6
:1004D000BF92CF92DF92EF92FF920E9440024B01B7
:1004E0005C0188E0C82ED12CE12CF12C0E94400246
:1004F000681979098A099B09683E7340810591054D
:10050000A8F321E0C21AD108E108F10888EE880EAC
:1005100083E0981EA11CB11CC114D104E104F104B4
:1005200029F7FF90EF90DF90CF90BF90AF909F9012
:100530008F9008950895AF92BF92CF92DF92EF927D
:10054000FF920F931F93CF93DF936C017B018B017D
:10055000040F151FEB015E01AE18BF08C017D107CD
:1005600059F06991D601ED91FC910190F081E02D57
:10057000C6010995892B79F7C501DF91CF911F91AC
:100580000F91FF90EF90DF90CF90BF90AF900895C4
:10059000FC01538D448D252F30E0842F90E0821B89
:1005A000930B541710F0CF96089501970895FC010E
:1005B000918D828D981761F0A28DAE0FBF2FB11D66
:1005C0005D968C91928D9F5F9F73928F90E00895BE
:1005D0008FEF9FEF0895FC01918D828D981731F078
:1005E000828DE80FF11D858D90E008958FEF9FEFCC
:1005F0000895FC01918D228D892F90E0805C9F4FA2
:10060000821B91098F73992708958FE891E00E94CA
:10061000F90221E0892B09F420E0822F089580E07F
:1006200090E0892B29F00E94050381110C940000B1
:100630000895FC01A48DA80FB92FB11DA35ABF4F77
:100640002C91848D90E001968F739927848FA689D1
:10065000B7892C93A089B1898C91837080648C9325
:10066000938D848D981306C00288F389E02D8081D4
:100670008F7D80830895EF92FF920F931F93CF9306
:10068000DF93EC0181E0888F9B8D8C8D98131AC0CD
:10069000E889F989808185FF15C09FB7F894EE89B4
:1006A000FF896083E889F989808183708064808311
:1006B0009FBF81E090E0DF91CF911F910F91FF905C
:1006C000EF900895F62E0B8D10E00F5F1F4F0F7304
:1006D0001127E02E8C8D8E110CC00FB607FCFACFBF
:1006E000E889F989808185FFF5CFCE010E94190341
:1006F000F1CFEB8DEC0FFD2FF11DE35AFF4FF08290
:100700009FB7F8940B8FEA89FB8980818062CFCFF5
:10071000CF93DF93EC01888D8823B9F0AA89BB8938
:10072000E889F9898C9185FD03C0808186FD0DC023
:100730000FB607FCF7CF8C9185FFF2CF808185FF44
:10074000EDCFCE010E941903E9CFDF91CF9108953B
:1007500021E020937C011092080190930501809381
:1007600004010895FF920F931F93CF93DF9380911D
:1007700071019091720101969093720180937101C1
:1007800020917B01222309F46AC080349F4168F0E4
:1007900080916F019091700110927201109271011D
:1007A00001969093700180936F01809179019091EF
:1007B0007A0120916F013091700128173907B0F04C
:1007C0001092700110926F01019690937A018093BC
:1007D000790180917501909176010196909376014F
:1007E0008093750181E080937D0133C0CCE2D2E03B
:1007F00010E000E04CE4F42EF09EF001F19EF00DCC
:100800001124E45DFD4F83A994A9A5A9B6A9019679
:10081000A11DB11D83AB94ABA5ABB6AB29A93AA979
:10082000C901959587958C0F9D1FEFA5F8A920FF0D
:1008300008C0DC012D913C91E20FF31F0190F08183
:10084000E02D09950F5F1F4FC45BDF4F033011058B
:1008500099F6DF91CF911F910F91FF90089520910C
:100860000801211104C020917C01222391F32091E1
:10087000790130917A018217930758F3109272012F
:10088000109271012F5F3F4F30937A0120937901CD
:10089000A0CF10926B0110926C0110926D0110921A
:1008A0006E0110926A0180918D0190918E0180936A
:1008B000B200E0E7F0E08081816080830895CF930B
:1008C000DF93EC0181E080937B011092080110928C
:1008D0007C01E0E7F0E080818E7F808361E070E062
:1008E00080E090E00E9419010E9449048091730108
:1008F00090917401092E000CAA0BBB0BECE2F2E004
:10090000858F968FA78FB0A3D383C28380939502E0
:1009100090939602A0939702B0939802D0937B0293
:10092000C0937A028093E1029093E202A093E302E3
:10093000B093E402D093C702C093C602DF91CF9177
:100940000895CF92DF92EF92FF920F931F93CF9370
:10095000DF938C01C4E6D0E0C12CD12C7601F801E4
:1009600087A990AD0E942202BC01990F880B990BB8
:100970000E943A0F2AE037ED43E25CE30E94C60F83
:100980009B01AC01C701B6010E94960E6B017C0170
:10099000219729F70E94020FF80171836083DF918C
:1009A000CF911F910F91FF90EF90DF90CF9008951E
:1009B000FC0101900020E9F73197AF01481B590B6A
:1009C000BC018FE891E00C949B028F929F92AF92B2
:1009D000BF920F931F93CF93DF93CDB7DEB7A1974D
:1009E0000FB6F894DEBF0FBECDBF19A2423008F497
:1009F0004AE08E010F5D1F4F842E912CB12CA12C4B
:100A0000A50194010E94640EE62FB901CA01EA30E3
:100A1000F4F4E05DD801EE938D01232B242B252BDC
:100A200079F790E080E0109719F0CD010E94D8048A
:100A3000A1960FB6F894DEBF0FBECDBFDF91CF9168
:100A40001F910F91BF90AF909F908F900895E95C98
:100A5000E1CFCF93DF93EC018BAD9CAD60E00E94C2
:100A60005101188619861A861B8689AD9AAD70E0E9
:100A700060E00E94CE0183E090E09EA78DA7DE019A
:100A8000A95BBF4F90E080E0AE014B5B5F4FFA0186
:100A9000208131818217930774F4ED91FD912BAD84
:100AA0003CADEE5BFF4F2081318121503109318314
:100AB00020830196ECCF8AE196E098AB8FA71AAA23
:100AC00019AADF91CF910C9465020F931F93CF93D6
:100AD000DF93FC01E55BFF4F2081222309F45BC01B
:100AE000EC018BA99CA9ADA9BEA90196A11DB11DC0
:100AF0008BAB9CABADABBEAB8C894BA95CA96DA994
:100B00007EA98823C1F08C819D81AE81BF8184172D
:100B10009507A607B70750F41BAA1CAA1DAA1EAA70
:100B20008BAD9CAD60E00E9451011C8ADF91CF919A
:100B30001F910F9108958C859D85AE85BF85841783
:100B40009507A607B70790F78D899E89AF89B88D5D
:100B50000196A11DB11D8D8B9E8BAF8BB88F498DDA
:100B60005A8D6B8D7C8D1BAA1CAA1DAA1EAA481724
:100B700059076A077B0738F4CE01DF91CF911F91A7
:100B80000F910C9429058BAD9CAD61E00E94510141
:100B900081E08C8BCBCFFC014085518562857385CC
:100BA0004F5F5F4F6F4F7F4F4087518762877387DB
:100BB0000481158126813781401751076207730729
:100BC00008F4B4CFDACFCF93DF93EC0189A19AA1D7
:100BD000ABA1BCA10196A11DB11D89A39AA3ABA392
:100BE000BCA34D8D5E8D6F8D78A184179507A607E8
:100BF000B707E8F019A21AA21BA21CA28BAD9CADEC
:100C000061E00E94510189AD9AAD64E070E00E94FC
:100C1000CE0182E090E09EA78DA785E695E098AB97
:100C20008FA71AAA19AADF91CF910C946502DF91C0
:100C3000CF910895FF920F931F93CF93DF93EC0111
:100C400089A59AA5ABA5BCA50196A11DB11D89A733
:100C50009AA7ABA7BCA74DA15EA16FA178A58417E9
:100C60009507A607B70760F18E010F5B1F4FFF24A2
:100C7000F394F801F08219A61AA61BA61CA689AD4A
:100C80009AAD61E070E00E94CE011EA61DA6FE0195
:100C9000EC5BFF4F1082F801F0828AE992E098AB9A
:100CA0008FA71AAA19AA89AD9AAD61E070E00E94D7
:100CB000CE01DF91CF911F910F91FF900C946502AF
:100CC000DF91CF911F910F91FF900895CF93DF9304
:100CD000EC010E94DA0D25E630E040E050E00E9491
:100CE000320EC617D70784F081E080937C01109202
:100CF0000801E8E6F0E085919491909305018093D6
:100D00000401DF91CF91089510927C0181E08093DE
:100D10000801EEECF0E085919491909303018093AB
:100D20000201EAE6F0E085919491909301018093AD
:100D30000001E7CF0F931F93CF93DF938C01EB015B
:100D400081E0809308010E94DA0D25E630E040E062
:100D500050E00E94320E06171707ACF0EEECF0E000
:100D6000859194919093030180930201EAE6F0E06B
:100D7000859194919093010180930001DF91CF912F
:100D80001F910F9108950E94DA0D9E012F5F3F4F32
:100D9000032E000C440B550B0E94320E660F771F7A
:100DA000FB01E253FF4F859194919093030180934F
:100DB000020166597F4FFB01DBCF1F920F920FB6E6
:100DC0000F9211242F933F938F939F93AF93BF93D1
:100DD00080917F0190918001A0918101B091820169
:100DE00030917E0126E0230F2D3758F50296A11D84
:100DF000B11D20937E0180937F0190938001A09389
:100E00008101B09382018091830190918401A0912E
:100E10008501B09186010196A11DB11D80938301CA
:100E200090938401A0938501B0938601BF91AF9107
:100E30009F918F913F912F910F900FBE0F901F9018
:100E4000189529E8230F0396A11DB11DD2CF1F923B
:100E50000F920FB60F9211242F933F934F935F93EE
:100E60006F937F938F939F93AF93BF93EF93FF9372
:100E70008FE891E00E941903FF91EF91BF91AF912C
:100E80009F918F917F916F915F914F913F912F91A2
:100E90000F900FBE0F901F9018951F920F920FB6D4
:100EA0000F9211242F938F939F93EF93FF93E091D1
:100EB0009F01F091A0018081E091A501F091A60130
:100EC00082FD1BC090818091A8018F5F8F7320915C
:100ED000A901821741F0E091A801F0E0E157FE4F2F
:100EE000958F8093A801FF91EF919F918F912F9102
:100EF0000F900FBE0F901F9018958081F4CF1F9216
:100F00000F920FB60F9211242F933F934F935F933D
:100F10006F937F938F939F93AF93BF93EF93FF93C1
:100F200080918D0190918E018093B20080916B0130
:100F300090916C01A0916D01B0916E010196A11D7F
:100F4000B11D80936B0190936C01A0936D01B093E0
:100F50006E0140916B0150916C0160916D01709137
:100F60006E018091890190918A01A0918B01B091CD
:100F70008C01481759076A077B07B0F080916A0116
:100F8000811112C081E080936A0110926B0110926E
:100F90006C0110926D0110926E01E0918701F09149
:100FA0008801099510926A01FF91EF91BF91AF916D
:100FB0009F918F917F916F915F914F913F912F9171
:100FC0000F900FBE0F901F901895EFE8F1E013827D
:100FD000128288EE93E0A0E0B0E084839583A6833C
:100FE000B78381E491E09183808385EC90E09587DD
:100FF000848784EC90E09787868780EC90E0918BE3
:10100000808B81EC90E0938B828B82EC90E0958BCF
:10101000848B86EC90E0978B868B118E128E138ECC
:10102000148E0895CF93DF9300D000D000D0CDB7B9
:10103000DEB7789484B5826084BD84B5816084BD58
:1010400085B5826085BD85B5816085BD80916E0066
:10105000816080936E001092810080918100826097
:1010600080938100809181008160809381008091D4
:1010700080008160809380008091B10084608093C3
:10108000B1008091B00081608093B00080917A00BF
:10109000846080937A0080917A00826080937A00E5
:1010A00080917A008E7F80937A0080917A008068A8
:1010B00080937A001092C100E2E3F1E0859194916F
:1010C0009093740180937301E0919F01F091A001CE
:1010D00082E08083E0919B01F0919C011082E0917D
:1010E0009D01F0919E0188E080831092A701E0911C
:1010F000A301F091A40186E08083E091A101F09129
:10110000A201808180618083E091A101F091A20120
:10111000808188608083E091A101F091A2018081AB
:1011200080688083E091A101F091A20180818F7D90
:101130008083198261E089810E949D0129812F5F4E
:1011400029832D30B9F780917A00846080937A00EA
:1011500080917A008D7F80937A0080917A008E7FD3
:1011600080937A0080E00E942202BC01990F880BD4
:10117000990B611571058105910511F00E94290EE9
:1011800061E086E00E949D0161E088E00E949D018F
:1011900061E08AE00E949D0161E087E00E949D017C
:1011A00061E089E00E949D0161E084E00E949D0170
:1011B0000DE0202E01E0302E89E191E09A838983B1
:1011C00083E1882E81E0982E9DE6E92E92E0F92EAB
:1011D000ACE2B2E0BE83AD83B12CA12C24EF422E51
:1011E00055245394612C712CED81FE81EC52F24018
:1011F000FC83EB83D1018D919D911D01BCE4BA9DCF
:101200008001BB9D100D1124045D1D4FF80190AFAE
:1012100087AB60E00E949D01A981BA818D919D916B
:10122000BA83A983F80192AF81AF61E00E949D016A
:10123000D4018D919D914D01F80194AF83AF61E090
:101240000E949D01F801EE5BFF4F11821082680140
:10125000F5E4CF0ED11CD60111961C921E92F70117
:101260001082AD81BE8118961D921D921D921C9216
:101270001B97FD0111A212A213A214A2D801D396AA
:101280001D921D921D921C92D6971182108245A22A
:1012900056A267A270A6DF0111A612A613A614A675
:1012A000F70112861C961D921D921D921C921F978B
:1012B000FD01108A118A128A138A59961D921D9275
:1012C0001D921C925C9754961C925497F7011782BA
:1012D000168211861086CD010E94A104AD81BE81C7
:1012E0009E961C921E929D97F801EC5BFF4F108218
:1012F00081E0F70180832AE932E0D0963C932E9377
:101300009F97D2961C921E92D197D801D9968D9113
:101310009C9161E070E00E94CE010E94650290E025
:1013200080E0D601E6E2EA9DA001EB9D500D11247C
:101330002B813C8182179307B1F0ED91FC911197BD
:10134000E40FF51FEE0FFF1FED58FD4F9C01245DCC
:101350003D4F318320832D913C9111972F5F3F4F5B
:1013600011963C932E93845B9F4F843E910501F729
:101370003FEFA31AB30A8D819E81845B9F4F9E83AA
:101380008D839CE4E90EF11CA3E0AA16B10409F0D8
:101390002BCFF89480918100887F816080938100B9
:1013A00085B5887F826085BD80916E008E7F809339
:1013B0006E0060E47FE180E090E00E9419010E94ED
:1013C0004904789481E080937D0173E0472E512C8D
:1013D000612C712C80917D01882309F4D0C010927A
:1013E0007D012091790130917A01409177015091EE
:1013F00078018091750190917601481B590BBC01D1
:10140000640F751FF82FE92F01962115310551F44E
:10141000FC01E40FF51FEE0FFF1FEC5CFE4F259162
:101420003491EDCF30937A01209379017093780154
:1014300060937701F0937501E09376018FE491E07A
:101440000E94D804C0907501D09076010D2C000C3C
:10145000EE08FF084AE0C701B601F7FE0DC06DE2D5
:101460008FE891E00E943B0366277727CB016C1938
:101470007D098E099F094AE00E94E5048EE591E00E
:101480000E94D8046091790170917A0190E080E027
:101490004AE00E94E50487E691E00E94D80480912A
:1014A0007501909176018230910509F446C07CF572
:1014B000009709F436C0019709F43AC0809175018C
:1014C000909176018630910509F44FC00CF03FC031
:1014D000059709F445C08091750190917601FC0152
:1014E0003997EE30F10508F0CDC0E758F54F0C9470
:1014F0003310BB0A1B0B1E0B210B240B270B2A0BD3
:101500002D0B300B330B360B390B3C0B3F0B833061
:101510009105C1F0049791F670E060E084E690E0F8
:1015200004C065E070E090E080E00E949A06C6CFBB
:1015300065E070E081E290E0F8CF65E070E082E481
:1015400090E0F3CF65E070E080E590E0EECF87308B
:10155000910571F0089709F0BECF84E690E002C0D3
:1015600084E190E00E946606B6CF81E290E0FACF77
:1015700082E490E0F7CF8AEF90E00E94A8038FE822
:1015800091E00E94880380910801882309F419C121
:1015900061E088E00E94510164E070E086E00E9412
:1015A000CE0161E087E00E94510164E070E08AE0D2
:1015B0000E94CE0161E084E00E94510164E070E08D
:1015C00089E00E94CE0180910201909103018F5623
:1015D0009F4F0E94370260E088E00E94510161E065
:1015E00070E086E00E94CE0160E087E00E94510139
:1015F00061E070E08AE00E94CE0160E084E00E9439
:10160000510161E070E089E00E94CE01809100010B
:10161000909101018F569F4F0E94370280E090E029
:10162000892B09F4D7CE0E940503882309F4D2CE72
:101630000E940000CFCE87E791E09FCF84EF91E03A
:101640009CCF81E792E099CF8EEE92E096CF8BE629
:1016500093E093CF88EE93E090CF85E694E08DCF32
:1016600082EE94E08ACF84EC99E087CF88E893E11A
:1016700084CF80E197E281CF88E99AE37ECF88EA40
:1016800091E67BCFFC017797ED30F10508F048C07B
:10169000E45BF44F0C943310590B600B630B660B37
:1016A000690B6C0B730B7A0B7D0B840B870B8A0B0E
:1016B0008D0B8DE590E090930701809306015FCF3D
:1016C00086E590E0F8CF8FE490E0F5CF88E490E0F5
:1016D000F2CF81E490E0EFCFEAE3F0E0F09307018E
:1016E000E09306014CCF23E330E0309307012093D1
:1016F000060145CF8CE290E0DECFA5E2B0E0B093EA
:101700000701A09306013BCFEEE1F0E0E7CF27E130
:1017100030E0EBCF80E190E0CECF89E090E0CBCF1E
:10172000FC01B497EB30F10508F029CFE656F44FF1
:101730000C943310A50BAA0BAA0BAA0BAD0BB00B84
:10174000B30BB60BB90BBC0BBF0B81E090E00E9452
:101750005F0415CF82E090E0FACF85E090E0F7CF0C
:1017600086E090E0F4CF87E090E0F1CF88E090E071
:10177000EECF89E090E0EBCF8AE090E0E8CF1092E6
:101780007B011092080110927C0170E060E086E01D
:101790000E94CE0160E088E00E94510170E060E0AC
:1017A0008AE00E94CE0160E087E00E94510170E073
:1017B00060E089E00E94CE0160E084E00E94510177
:1017C000DECE80917C01882309F444C00E94DA0DAA
:1017D00025E630E040E050E00E94320E2091060104
:1017E00030910701261737072CF48091040190915E
:1017F000050110CF0E94DA0DA30192010E94320E62
:10180000DB01AA0FBB1FBA83A983FD01E75EFE4F70
:10181000108164E070E0812F0E94CE01E981FA819D
:10182000ED5EFE4FF081F98361E08F2F0E94510140
:1018300080910401909105018F569F4F0E943702BD
:1018400061E070E0812F0E94CE0160E089810E94FA
:101850005101E4CE80917B01882309F4DFCE2CE294
:1018600032E03A83298310E000E03CE4932E222406
:101870002394312C88248394A981BA819D96AD90BC
:10188000BC909E97A114B10409F03BC1909EC00189
:10189000919E900D1124FC01E45DFD4F7F01EE5BF4
:1018A000FF4F80819181892B09F02BC1FD01EF5BF6
:1018B000FF4F80818823C9F01082CD010E94A104CE
:1018C000D701D7968D919C910E942202E981FA81DD
:1018D00020813181821B930BD701DE969C938E93DE
:1018E000DD97F701FF9691838083909EC001919EC2
:1018F000900D1124FC01E45DFD4F7F0187A990AD9F
:101900000E942202A981BA812D913C91821B930BE6
:10191000F70196AF85AF85AD96ADFF9620813181F9
:10192000821B930B181619060CF06DC0D701DD96BB
:101930002D913C9180819181281B390BA981BA811D
:1019400012968D919C9182179307FCF40396909EBA
:10195000F001919EF00D1124E45DFD4F25AD36ADF3
:10196000DF01DF964D915C911197241B350B121608
:1019700013060CF04EC025AD36AD4D915C91241B85
:10198000350B41E0821793070CF440E0909EC001B4
:10199000919E900D1124FC01E45DFD4F6F0185AD1A
:1019A00096ADFF9691838083442309F4AAC0A98150
:1019B000BA819E963C922E929D97D601C6018B5B72
:1019C0009F4FDB96FC0120813181A216B30634F5CE
:1019D000F501EE0FFF1FE95BFF4F29813A81E20F0E
:1019E000F31F0190F081E02D2D913C911197EE5B5A
:1019F000FF4F208131812F5F3F4F318320833FEFA5
:101A0000A31AB30ADFCF20813181F70185AD96ADEE
:101A100093CF2D913C9145AD56ADB1CFD601D39624
:101A20001D921D921D921C92D6970E94DA0D26E0FF
:101A300030E040E050E00E94320E272F221F222784
:101A4000221FE981FA81E55BFF4F20837B01EE0CC9
:101A5000FF1CF701ED5CFE4F80819181092E000C87
:101A6000AA0BBB0BE981FA8184839583A683B78394
:101A7000F701E75DFE4F80819181092E000CAA0BD2
:101A8000BB0BE981FA8184879587A687B7872223D4
:101A900009F1D601D3961D921D921D921C92D697E4
:101AA000848ADB968D919C9161E00E945101F7013F
:101AB000E15EFE4F80819181092E000CAA0BBB0BC9
:101AC000E981FA81818F928FA38FB48F158A168A4C
:101AD000178A108E23EE35E0E981FA8130AB27A713
:101AE00012AA11AA909EF001919EF00D1124E45DBE
:101AF000FD4F81AD92AD62E070E00E94CE010E9488
:101B000065020F5F1F4F89819A81845B9F4F9A8383
:101B100089830330110509F0AFCE80CD8F929F925B
:101B2000AF92BF92CF92DF92EF92FF92CF93DF936B
:101B3000EC01688179818A819B816115710581053C
:101B4000910521F464E279ED8BE597E02DE133EF27
:101B500041E050E00E94320E49015A019B01AC0164
:101B6000A7EAB1E40E94510E6B017C01ACEEB4EF28
:101B7000A50194010E945F0EC60ED71EE81EF91E35
:101B8000F7FE06C081E0C81AD108E10880E8F80A2B
:101B9000C882D982EA82FB82C701B6019F77DF91B2
:101BA000CF91FF90EF90DF90CF90BF90AF909F903C
:101BB0008F9008958F929F92AF92BF92CF92DF92B3
:101BC000EF92FF926091090170910A0180910B01DF
:101BD00090910C01611571058105910521F464E274
:101BE00079ED8BE597E02DE133EF41E050E00E9485
:101BF000320E49015A019B01AC01A7EAB1E40E94EF
:101C0000510E6B017C01ACEEB4EFA50194010E9472
:101C10005F0EC60ED71EE81EF91EF7FE06C081E055
:101C2000C81AD108E10880E8F80AC0920901D092E8
:101C30000A01E0920B01F0920C01C701B6019F77F7
:101C4000FF90EF90DF90CF90BF90AF909F908F90DC
:101C500008956093090170930A0180930B0190939A
:101C60000C010895052E97FB1EF400940E94490E66
:101C700057FD07D00E94640E07FC03D04EF40C946D
:101C8000490E50954095309521953F4F4F4F5F4FEE
:101C9000089590958095709561957F4F8F4F9F4FD8
:101CA00008950E94860EA59F900DB49F900DA49F4D
:101CB000800D911D11240895B7FF0C94510E0E94C0
:101CC000510E821B930B0895A1E21A2EAA1BBB1B77
:101CD000FD010DC0AA1FBB1FEE1FFF1FA217B307F8
:101CE000E407F50720F0A21BB30BE40BF50B661F0E
:101CF000771F881F991F1A9469F7609570958095D2
:101D000090959B01AC01BD01CF010895A29FB00148
:101D1000B39FC001A39F700D811D1124911DB29F1F
:101D2000700D811D1124911D08955058BB27AA27BD
:101D30000E94AD0E0C948C0F0E947E0F38F00E9412
:101D4000850F20F039F49F3F19F426F40C947B0F93
:101D50000EF4E095E7FB0C94750FE92F0E949D0FA0
:101D600058F3BA17620773078407950720F079F4D0
:101D7000A6F50C94BF0F0EF4E0950B2EBA2FA02DF4
:101D80000B01B90190010C01CA01A0011124FF2728
:101D9000591B99F0593F50F4503E68F11A16F04023
:101DA000A22F232F342F4427585FF3CF4695379522
:101DB0002795A795F0405395C9F77EF41F16BA0BE7
:101DC000620B730B840BBAF09150A1F0FF0FBB1F95
:101DD000661F771F881FC2F70EC0BA0F621F731FDE
:101DE000841F48F4879577956795B795F7959E3F3B
:101DF00008F0B0CF9395880F08F09927EE0F9795CC
:101E0000879508950E94090F6894B1110C94C00F32
:101E100008950E94A50F88F09F5798F0B92F992731
:101E2000B751B0F0E1F0660F771F881F991F1AF0C5
:101E3000BA95C9F714C0B13091F00E94BF0FB1E05C
:101E400008950C94BF0F672F782F8827B85F39F05B
:101E5000B93FCCF3869577956795B395D9F73EF45E
:101E600090958095709561957F4F8F4F9F4F089506
:101E7000E89409C097FB3EF4909580957095619524
:101E80007F4F8F4F9F4F9923A9F0F92F96E9BB27DA
:101E90009395F695879577956795B795F111F8CF56
:101EA000FAF4BB0F11F460FF1BC06F5F7F4F8F4FC1
:101EB0009F4F16C0882311F096E911C0772321F0B7
:101EC0009EE8872F762F05C0662371F096E8862F4F
:101ED00070E060E02AF09A95660F771F881FDAF7A6
:101EE000880F9695879597F9089597F99F6780E8E9
:101EF00070E060E008959FEF80EC089500240A945C
:101F00001616170618060906089500240A941216D4
:101F10001306140605060895092E0394000C11F407
:101F2000882352F0BB0F40F4BF2B11F460FF04C0B4
:101F30006F5F7F4F8F4F9F4F089557FD9058440F0D
:101F4000551F59F05F3F71F04795880F97FB991F18
:101F500061F09F3F79F087950895121613061406D5
:101F6000551FF2CF4695F1DF08C016161706180662
:101F7000991FF1CF86957105610508940895E8943D
:101F8000BB2766277727CB0197F908950E94D90FC1
:101F90000C948C0F0E947E0F38F00E94850F20F069
:101FA000952311F00C94750F0C947B0F11240C9455
:101FB000C00F0E949D0F70F3959FC1F3950F50E0E5
:101FC000551F629FF001729FBB27F00DB11D639FEB
:101FD000AA27F00DB11DAA1F649F6627B00DA11D91
:101FE000661F829F2227B00DA11D621F739FB00D37
:101FF000A11D621F839FA00D611D221F749F3327A7
:10200000A00D611D231F849F600D211D822F762F3F
:102010006A2F11249F5750409AF0F1F088234AF01C
:10202000EE0FFF1FBB1F661F771F881F9150504088
:10203000A9F79E3F510580F00C94750F0C94C00FCA
:102040005F3FE4F3983ED4F3869577956795B7950F
:10205000F795E7959F5FC1F7FE2B880F911D969529
:10206000879597F90895EE0FFF1F0590F491E02DE5
:102070000994F894FFCF7D007D007D00640001018C
:102080000000000100000002000800070004000634
:10209000000A00090096009600960096009600013E
:1020A0000002000200040003000100010002000120
:1020B000000300000000003B039B02C8028803F9F4
:1020C00002D702EB024E6578742053657175656E18
:1020D00063653A00204C656E6774683A000D0A002B
:103800000C94341C0C94511C0C94511C0C94511CA1
:103810000C94511C0C94511C0C94511C0C94511C74
:103820000C94511C0C94511C0C94511C0C94511C64
:103830000C94511C0C94511C0C94511C0C94511C54
:103840000C94511C0C94511C0C94511C0C94511C44
:103850000C94511C0C94511C0C94511C0C94511C34
:103860000C94511C0C94511C11241FBECFEFD4E0BA
:10387000DEBFCDBF11E0A0E0B1E0EEEAFFE302C0A1
:1038800005900D92A230B107D9F712E0A2E0B1E0A5
:1038900001C01D92AD30B107E1F70E94331D0C94B9
:1038A000D51F0C94001C982F9595959595959595F9
:1038B000905D8F708A307CF0282F295A8091C0004B
:1038C00085FFFCCF9093C6008091C00085FFFCCFA0
:1038D0002093C6000895282F205DF0CF982F809167
:1038E000C00085FFFCCF9093C6000895EF92FF9231
:1038F0000F931F93EE24FF2487018091C00087FD62
:1039000017C00894E11CF11C011D111D81E2E8168D
:1039100081EAF80687E0080780E0180770F3E09175
:103920000401F091050109958091C00087FFE9CF5E
:103930008091C6001F910F91FF90EF9008950E9413
:10394000761C982F8091C00085FFFCCF9093C60015
:1039500091362CF490330CF09053892F089597559D
:10396000892F08951F930E949F1C182F0E949F1C4F
:103970001295107F810F1F9108951F93182F882390
:1039800021F00E94761C1150E1F71F9108951F93BA
:10399000182F0E94761C803249F0809103018F5FBE
:1039A000809303018530C1F01F9108958091C0007C
:1039B00085FFFCCF84E18093C6008091C00085FF25
:1039C000FCCF1093C6008091C00085FFFCCF80E142
:1039D0008093C6001F910895E0910401F0910501C4
:1039E00009951F9108950E94761C803241F08091C4
:1039F00003018F5F80930301853081F008958091EA
:103A0000C00085FFFCCF84E18093C6008091C00098
:103A100085FFFCCF80E18093C6000895E09104010A
:103A2000F09105010995089510920A028823D1F0BA
:103A300090E048EC50E02D9A28EE33E0FA013197FF
:103A4000F1F721503040D1F72D9828EE33E0FA01FC
:103A50003197F1F721503040D1F79F5F981758F315
:103A600080930A0208953F924F925F926F927F92E5
:103A70008F929F92AF92BF92CF92DF92EF92FF927E
:103A80000F931F93CF93DF9394B714BE8091600080
:103A90008861809360001092600091FF0CC289E100
:103AA0008093C4001092C50088E18093C10086E035
:103AB0008093C2005098589A259A81E00E94141D64
:103AC00044E1F42E3EE1E32E24E9D22E96E0C92E05
:103AD00080E1B82EAA24A39401E4902E16E5812E4D
:103AE000B2E57B2EA0E26A2EF9E45F2EE3E54E2ECE
:103AF00070E5372E0E94761C8033B9F18133C1F115
:103B0000803409F470C0813409F477C0823409F438
:103B100086C0853409F489C0803539F1823529F1B0
:103B2000813509F4AFC1853509F485C0863509F4BE
:103B30008DC0843609F435C1843709F4C1C0853796
:103B400009F490C0863709F466C0809103018F5F45
:103B500080930301853071F6E0910401F091050135
:103B600009950E94761C803349F60E94F31CC2CF4F
:103B70000E94761C803249F78091C00085FFFCCFFF
:103B8000F092C6008091C00085FFFCCF9092C600E5
:103B90008091C00085FFFCCF8092C6008091C0005C
:103BA00085FFFCCF7092C6008091C00085FFFCCFDE
:103BB0006092C6008091C00085FFFCCF5092C60085
:103BC0008091C00085FFFCCF4092C6008091C0006C
:103BD00085FFFCCF3092C6008091C00085FFFCCFEE
:103BE000B092C60087CF0E94761C863808F4BDCFFD
:103BF0000E94761C0E94F31C7DCF0E94761C8038A8
:103C000009F45AC0813809F453C0823809F440C11C
:103C1000883909F449C080E00E94C71C6BCF84E159
:103C20000E94BD1C0E94F31C65CF85E00E94BD1C54
:103C30000E94F31C5FCF0E94761C809306010E94B5
:103C4000761C809307010E94F31C54CF0E94761CBF
:103C5000803309F421C183E00E94BD1C80E00E94F2
:103C6000C71C48CF0E94761C803209F06ECF80912D
:103C7000C00085FFFCCFF092C6008091C00085FF98
:103C8000FCCFE092C6008091C00085FFFCCFD092AF
:103C9000C6008091C00085FFFCCFC092C600809115
:103CA000C00085FFFCCF9CCF83E00E94C71C22CFC1
:103CB00081E00E94C71C1ECF82E00E94C71C1ACF61
:103CC0000E94761C809309020E94761C8093080251
:103CD0008091060190910701880F991F9093070129
:103CE000809306010E94761C853409F4C5C080913A
:103CF0000C028E7F80930C020E94761C803209F0A9
:103D0000F9CE8091C00085FFFCCFF092C600609193
:103D10000802709109026115710591F140E050E0CF
:103D200080910C02A82FA170B82FB27010C0BB23D5
:103D300061F1E0910601F09107013196F0930701DE
:103D4000E09306014F5F5F4F46175707C8F4AA2359
:103D500071F3F999FECF209106013091070132BD30
:103D600021BDF89A90B58091C00085FFFCCF90935B
:103D7000C6002F5F3F4F3093070120930601E2CF2B
:103D80008091C00085FFFCCF2BCFE0910601F09120
:103D9000070194918091C00085FFFCCF9093C600ED
:103DA000CCCF0E94761C809309020E94761C8093DF
:103DB000080280910C028E7F80930C020E94761C78
:103DC000853429F480910C02816080930C028091EB
:103DD000080290910902892B89F000E010E00E940E
:103DE000761CF801E85FFE4F80830F5F1F4F8091C4
:103DF0000802909109020817190788F30E94761C9F
:103E0000803209F0A2CE80910C0280FF62C0409106
:103E1000060150910701440F551F5093070140932D
:103E20000601609108027091090261157105C9F0DF
:103E3000E8E0F1E09A01DB01AE0FBF1FF999FECF78
:103E400032BD21BD819180BDFA9AF99A2F5F3F4F13
:103E5000EA17FB0799F7460F571F50930701409346
:103E600006018091C00085FFFCCFF092C6008091D2
:103E7000C00085FFFCCFB4CE80910C02816080939E
:103E80000C023ACF0E94F31C88E080936000FFCFC1
:103E900080E10E94C71C2ECE0E94761C0E94761CD8
:103EA000182F0E94761C112381F0113051F086E00A
:103EB0000E94C71C1FCEE0910401F09105010995F5
:103EC000EECD84E90E94C71C15CE8EE10E94C71C6E
:103ED00011CE809107018823880F880B8A21809357
:103EE0000B028091060190910701880F991F909312
:103EF0000701809306018091080280FF09C080912C
:103F00000802909109020196909309028093080299
:103F1000F894F999FECF1127E0910601F09107017D
:103F2000C8E0D1E08091080290910902103091F42C
:103F30000091570001700130D9F303E0009357005E
:103F4000E8950091570001700130D9F301E1009329
:103F50005700E895099019900091570001700130C1
:103F6000D9F301E000935700E8951395103498F0C9
:103F700011270091570001700130D9F305E000933B
:103F80005700E8950091570001700130D9F301E125
:103F900000935700E8953296029709F0C7CF10308A
:103FA00011F00296E5CF11245CCFF894FFCF80008A
:00000001FF
