:020000040000FA
:100000000C945C000C9479000C9479000C947900A9
:100010000C9479000C9479000C9479000C9479007C
:100020000C9479000C9413030C9479000C947900CF
:100030000C9479000C9479000C9479000C9479005C
:100040000C94C9020C9479000C9479000C947900FA
:100050000C9479000C9479000C9479000C9479003C
:100060000C9479000C947900000000080002010053
:100070000003040700000000000000000000000072
:10008000250028002B0000000000240027002A0083
:10009000040404040404040402020202020203032E
:1000A0000303030301020408102040800102040836
:1000B000102001020408102011241FBECFEFD4E04D
:1000C000DEBFCDBF11E0A0E0B1E0EAE4FAE002C09B
:1000D00005900D92A430B107D9F721E0A4E0B1E07A
:1000E00001C01D92A431B207E1F70E946A030C948B
:1000F00023050C94000090E0FC01EC55FF4F249187
:1001000080579F4FFC018491882399F090E0880FDD
:10011000991FFC01EA57FF4FA591B491FC01E458E7
:10012000FF4F859194918FB7F894EC91E22BEC936B
:100130008FBF089590E0FC01E859FF4F2491FC0126
:10014000EC55FF4F3491FC01E057FF4FE491EE2353
:10015000C9F0222339F0233001F1A8F4213019F13C
:10016000223029F1F0E0EE0FFF1FE458FF4FA59178
:10017000B4918FB7F894EC91611126C030953E236D
:100180003C938FBF08952730A9F02830C9F0243060
:1001900049F7809180008F7D03C0809180008F7728
:1001A00080938000DFCF84B58F7784BDDBCF84B5AB
:1001B0008F7DFBCF8091B0008F778093B000D2CF3E
:1001C0008091B0008F7DF9CF3E2BDACF1F93CF9374
:1001D000DF93182FEB010E947B00209739F460E039
:1001E000812FDF91CF911F910C949A00E12FF0E0C5
:1001F000E859FF4FE491E33011F148F4E130B9F0F0
:10020000E23069F784B5806284BDC8BD14C0E730B0
:1002100001F1E83031F1E43011F780918000806223
:1002200080938000D0938B00C0938A0004C084B573
:10023000806884BDC7BDDF91CF911F9108958091E3
:100240008000806880938000D0938900C0938800EC
:10025000F2CF8091B00080688093B000C093B3006B
:10026000EACF8091B00080628093B000C093B40068
:10027000E2CF8E3008F08E508770806480937C00CF
:1002800080917A00806480937A0080917A0086FD64
:10029000FCCF809178009091790008953FB7F89451
:1002A0008091100190911101A0911201B091130160
:1002B00026B5A89B05C02F3F19F00196A11DB11DC1
:1002C0003FBFBA2FA92F982F8827BC01CD01620FFD
:1002D000711D811D911D42E0660F771F881F991FB8
:1002E0004A95D1F70895CF92DF92EF92FF920E9444
:1002F0004E016B017C010E944E016C197D098E0933
:100300009F09683E734081059105A8F3FF90EF9027
:10031000DF90CF9008950895CF93DF93EC018BADDC
:100320009CAD60E00E949A00188619861A861B868A
:1003300089AD9AAD70E060E00E94E60083E090E055
:100340009EA78DA7DE01A95BBF4F90E080E0AE01C4
:100350004B5B5F4FFA01208131818217930774F460
:10036000ED91FD912BAD3CADEE5BFF4F20813181D6
:1003700021503109318320830196ECCF8DE792E043
:1003800098AB8FA71AAA19AADF91CF910C94730189
:100390000F931F93CF93DF93FC01E55BFF4F208109
:1003A000222309F45BC0EC018BA99CA9ADA9BEA9CD
:1003B0000196A11DB11D8BAB9CABADABBEAB8C89C7
:1003C0004BA95CA96DA97EA98823C1F08C819D8170
:1003D000AE81BF8184179507A607B70750F41BAA03
:1003E0001CAA1DAA1EAA8BAD9CAD60E00E949A00BB
:1003F0001C8ADF91CF911F910F9108958C859D8567
:10040000AE85BF8584179507A607B70790F78D8936
:100410009E89AF89B88D0196A11DB11D8D8B9E8BD4
:10042000AF8BB88F498D5A8D6B8D7C8D1BAA1CAA02
:100430001DAA1EAA481759076A077B0738F4CE0180
:10044000DF91CF911F910F910C948C018BAD9CADDE
:1004500061E00E949A0081E08C8BCBCFFC0140854B
:100460005185628573854F5F5F4F6F4F7F4F408728
:1004700051876287738704811581268137814017F0
:1004800051076207730708F4B4CFDACFCF93DF9335
:10049000EC0189A19AA1ABA1BCA10196A11DB11D3E
:1004A00089A39AA3ABA3BCA34D8D5E8D6F8D78A15C
:1004B00084179507A607B707E8F019A21AA21BA28E
:1004C0001CA28BAD9CAD61E00E949A0089AD9AADF3
:1004D00064E070E00E94E60082E090E09EA78DA7B5
:1004E00088EC91E098AB8FA71AAA19AADF91CF9157
:1004F0000C947301DF91CF910895FF920F931F9396
:10050000CF93DF93EC0189A59AA5ABA5BCA5019675
:10051000A11DB11D89A79AA7ABA7BCA74DA15EA13C
:100520006FA178A584179507A607B70760F18E011C
:100530000F5B1F4FFF24F394F801F08219A61AA64F
:100540001BA61CA689AD9AAD61E070E00E94E60092
:100550001EA61DA6FE01EC5BFF4F1082F801F08283
:100560008BE891E098AB8FA71AAA19AA89AD9AAD2A
:1005700061E070E00E94E600DF91CF911F910F9142
:10058000FF900C947301DF91CF911F910F91FF9019
:1005900008951F920F920FB60F9211242F933F933D
:1005A0008F939F93AF93BF9380910C0190910D0116
:1005B000A0910E01B0910F0130910B0123E0230FA8
:1005C0002D3758F50196A11DB11D20930B01809385
:1005D0000C0190930D01A0930E01B0930F01809137
:1005E000100190911101A0911201B0911301019697
:1005F000A11DB11D8093100190931101A0931201D0
:10060000B0931301BF91AF919F918F913F912F9123
:100610000F900FBE0F901F90189526E8230F02969B
:10062000A11DB11DD2CF1F920F920FB60F921124B0
:100630002F933F934F935F936F937F938F939F93EA
:10064000AF93BF93EF93FF938091090190910A01BB
:100650008093B2008091050190910601A09107015D
:10066000B09108010196A11DB11D809305019093E1
:100670000601A0930701B0930801809105019091B4
:100680000601A0910701B091080180910401811138
:1006900010C081E0809304011092050110920601C0
:1006A0001092070110920801F0E0E0E00995109225
:1006B0000401FF91EF91BF91AF919F918F917F9135
:1006C0006F915F914F913F912F910F900FBE0F90BF
:1006D0001F901895789484B5826084BD84B581603C
:1006E00084BD85B5826085BD85B5816085BD8091FD
:1006F0006E00816080936E00109281008091810075
:10070000826080938100809181008160809381006C
:10071000809180008160809380008091B10084602E
:100720008093B1008091B00081608093B00080918F
:100730007A00846080937A0080917A00826080934E
:100740007A0080917A00816080937A0080917A00AB
:10075000806880937A001092C100C0E08C2F0E94C4
:100760007B00CF5FCD30D1F780917A008460809399
:100770007A0080917A008D7F80937A0080917A0050
:100780008E7F80937A0080E00E943901BC01990F2E
:10079000880B990B611571058105910511F00E9477
:1007A000B70486E00E947B0088E00E947B008AE01C
:1007B0000E947B0087E00E947B0089E00E947B0012
:1007C00084E00E947B0061E086E00E949A0061E084
:1007D0008AE00E949A0061E089E00E949A0061E04C
:1007E00088E00E949A0061E087E00E949A0061E040
:1007F00084E00E949A0085E08A95F1F7000060E0AD
:1008000086E00E949A0060E08AE00E949A0060E020
:1008100089E00E949A0060E088E00E949A0060E00F
:1008200087E00E949A0060E084E00E949A0085E0E0
:100830008A95F1F70000C7CF8F929F92AF92BF9237
:10084000CF92DF92EF92FF92CF93DF93EC0168811A
:1008500079818A819B81611571058105910521F45A
:1008600064E279ED8BE597E02DE133EF41E050E074
:100870000E94C00449015A019B01AC01A7EAB1E4FE
:100880000E94DF046B017C01ACEEB4EFA501940182
:100890000E94ED04C60ED71EE81EF91EF7FE06C024
:1008A00081E0C81AD108E10880E8F80AC882D98234
:1008B000EA82FB82C701B6019F77DF91CF91FF905B
:1008C000EF90DF90CF90BF90AF909F908F90089562
:1008D0008F929F92AF92BF92CF92DF92EF92FF9250
:1008E00060910001709101018091020190910301DA
:1008F000611571058105910521F464E279ED8BE5BF
:1009000097E02DE133EF41E050E00E94C00449013F
:100910005A019B01AC01A7EAB1E40E94DF046B011C
:100920007C01ACEEB4EFA50194010E94ED04C60E6B
:10093000D71EE81EF91EF7FE06C081E0C81AD108CE
:10094000E10880E8F80AC0920001D0920101E0922B
:100950000201F0920301C701B6019F77FF90EF906B
:10096000DF90CF90BF90AF909F908F90089560934D
:100970000001709301018093020190930301089597
:10098000052E97FB1EF400940E94D70457FD07D054
:100990000E94F20407FC03D04EF40C94D704509547
:1009A0004095309521953F4F4F4F5F4F089590955B
:1009B0008095709561957F4F8F4F9F4F08950E944E
:1009C0001405A59F900DB49F900DA49F800D911DBF
:1009D00011240895B7FF0C94DF040E94DF04821BEA
:1009E000930B0895A1E21A2EAA1BBB1BFD010DC09B
:1009F000AA1FBB1FEE1FFF1FA217B307E407F507CF
:100A000020F0A21BB30BE40BF50B661F771F881FAA
:100A1000991F1A9469F760957095809590959B0140
:100A2000AC01BD01CF010895A29FB001B39FC001E9
:100A3000A39F700D811D1124911DB29F700D811D0A
:0E0A40001124911D0895F894FFCF01000000CD
:103800000C94341C0C94511C0C94511C0C94511CA1
:103810000C94511C0C94511C0C94511C0C94511C74
:103820000C94511C0C94511C0C94511C0C94511C64
:103830000C94511C0C94511C0C94511C0C94511C54
:103840000C94511C0C94511C0C94511C0C94511C44
:103850000C94511C0C94511C0C94511C0C94511C34
:103860000C94511C0C94511C11241FBECFEFD4E0BA
:10387000DEBFCDBF11E0A0E0B1E0E4EAFFE302C0AB
:1038800005900D92A230B107D9F712E0A2E0B1E0A5
:1038900001C01D92AD30B107E1F70E94361D0C94B6
:1038A000D01F0C94001C982F9595959595959595FE
:1038B000905D8F708A307CF0282F295A8091C0004B
:1038C00085FFFCCF9093C6008091C00085FFFCCFA0
:1038D0002093C6000895282F205DF0CF982F809167
:1038E000C00085FFFCCF9093C6000895EF92FF9231
:1038F0000F931F93EE24FF2487018091C00087FD62
:1039000017C00894E11CF11C011D111D81E4E8168B
:1039100082E4F8068FE0080780E0180770F3E09172
:103920000401F091050109958091C00087FFE9CF5E
:103930008091C6001F910F91FF90EF9008950E9413
:10394000761C982F8091C00085FFFCCF9093C60015
:1039500091362CF490330CF09053892F089597559D
:10396000892F08951F930E949F1C182F0E949F1C4F
:103970001295107F810F1F910895882351F0982F81
:1039800091508091C00087FFFCCF8091C6009923A1
:10399000B9F708951F93182F0E94761C803249F0C2
:1039A000809103018F5F809303018530C1F01F91E7
:1039B00008958091C00085FFFCCF84E18093C6000C
:1039C0008091C00085FFFCCF1093C6008091C0009D
:1039D00085FFFCCF80E18093C6001F910895E091A0
:1039E0000401F091050109951F9108950E94761C2C
:1039F000803241F0809103018F5F80930301853015
:103A000081F008958091C00085FFFCCF84E1809310
:103A1000C6008091C00085FFFCCF80E18093C60086
:103A20000895E0910401F09105010995089510921F
:103A30000A028823D1F090E040E951E02D9A28EE67
:103A400033E0FA013197F1F721503040D1F72D984A
:103A500028EE33E0FA013197F1F721503040D1F7E9
:103A60009F5F981758F380930A0208953F924F92F0
:103A70005F926F927F928F929F92AF92BF92CF92FE
:103A8000DF92EF92FF920F931F93CF93DF9300008B
:103A900083E38093C4001092C50088E18093C10045
:103AA00086E08093C2005098589A259A81E00E943F
:103AB000171D44E1F42E3EE1E32E24E9D22E96E0D8
:103AC000C92E80E1B82EAA24A39401E4902E16E515
:103AD000812EB2E57B2EA0E26A2EF9E45F2EE3E5AB
:103AE0004E2E70E5372E0E94761C8033B1F1813363
:103AF00009F441C0803409F479C0813409F48CC0E0
:103B0000823471F1853409F47BC0803531F182351E
:103B100021F1813511F1853509F48DC0863509F41F
:103B20009DC0843609F4AEC0843709F41BC18537C3
:103B300009F485C1863709F47AC0809103018F5F4B
:103B400080930301853079F6E0910401F09105013D
:103B500009950E94761C803351F60E94F61CC3CF53
:103B600093E18091C00087FFFCCF8091C60099232C
:103B7000A1F39150F6CF0E94761C8032F1F680912D
:103B8000C00085FFFCCFF092C6008091C00085FF89
:103B9000FCCF9092C6008091C00085FFFCCF809240
:103BA000C6008091C00085FFFCCF7092C600809156
:103BB000C00085FFFCCF6092C6008091C00085FFE9
:103BC000FCCF5092C6008091C00085FFFCCF409290
:103BD000C6008091C00085FFFCCF3092C600809166
:103BE000C00085FFFCCFB092C6007DCF0E94761C3E
:103BF000863808F4B2CF0E94761C0E94F61C73CF60
:103C000094E08091C00087FFFCCF8091C60099238B
:103C100009F4A3CF9150F5CF0E94761C8038D1F0E3
:103C2000813861F1823809F499C0883979F080E0EF
:103C30000E94CA1C58CF0E94761C809306010E94E5
:103C4000761C809307010E94F61C4DCF83E00E94F2
:103C5000CA1C49CF82E00E94CA1C45CF0E94761C34
:103C6000803309F486C192E08091C00087FFFCCFC9
:103C70008091C6009923D9F29150F6CF81E00E943D
:103C8000CA1C31CF0E94761C809309020E94761CC8
:103C90008093080280910C028E7F80930C020E9418
:103CA000761C853429F480910C02816080930C028B
:103CB0008091080290910902892B89F000E010E0C0
:103CC0000E94761CF801E85FFE4F80830F5F1F4F54
:103CD00080910802909109020817190788F30E9441
:103CE000761C803209F029CF80910C0280FFD1C070
:103CF0004091060150910701440F551F5093070151
:103D000040930601A0910802B09109021097C9F0F2
:103D1000E8E0F1E09A01BD016E0F7F1FF999FECF37
:103D200032BD21BD819180BDFA9AF99A2F5F3F4F34
:103D3000E617F70799F74A0F5B1F50930701409367
:103D400006018091C00085FFFCCFF092C6008091F3
:103D5000C00085FFFCCFB092C600C5CE80E10E94B6
:103D6000CA1CC1CE0E94761C809309020E94761C58
:103D7000809308028091060190910701880F991F96
:103D800090930701809306010E94761C853409F404
:103D90007AC080910C028E7F80930C020E94761C68
:103DA000803209F0A0CE8091C00085FFFCCFF09258
:103DB000C600A0910802B09109021097B9F1809154
:103DC0000C02182F1170082F0270E0910601F0917B
:103DD00007019F012F5F3F4FB90140E050E01123E1
:103DE000B1F4002339F494918091C00085FFFCCF99
:103DF0009093C6004F5F5F4FCB010196F9014A17C0
:103E00005B0780F4BC012F5F3F4F112351F3F999F9
:103E1000FECFF2BDE1BDF89A90B58091C00085FF5C
:103E2000FCCFE6CF70930701609306018091C0003C
:103E300085FDD9CE8091C00085FFF8CFD4CE0E94F9
:103E4000761C803209F079CE8091C00085FFFCCFCE
:103E5000F092C6008091C00085FFFCCFE092C600C2
:103E60008091C00085FFFCCFD092C6008091C00039
:103E700085FFFCCFC092C6008091C00085FFFCCFBB
:103E8000B092C60030CE80910C02816080930C020B
:103E900085CF809107018823880F880B8A21809322
:103EA0000B028091060190910701880F991F909352
:103EB0000701809306018091080280FF09C080916C
:103EC00008029091090201969093090280930802DA
:103ED000F894F999FECF1127E0910601F0910701BE
:103EE000C8E0D1E08091080290910902103091F46D
:103EF0000091570001700130D9F303E0009357009F
:103F0000E8950091570001700130D9F301E1009369
:103F10005700E89509901990009157000170013001
:103F2000D9F301E000935700E8951395103498F009
:103F300011270091570001700130D9F305E000937B
:103F40005700E8950091570001700130D9F301E165
:103F500000935700E8953296029709F0C7CF1030CA
:103F600011F00296E5CF11248091C00085FFE9CEC3
:103F7000ECCE0E94761C0E94761C182F0E94761CA4
:103F8000112351F0113021F086E00E94CA1CABCD04
:103F900084E90E94CA1CA7CD8EE10E94CA1CA3CD51
:063FA000F894FFCF800041
:00000001FF
