:020000040000FA
:100000000C945D000C9485000C9485000C94850084
:100010000C9485000C9485000C9485000C9485004C
:100020000C9485000C94CF050C9485000C948500ED
:100030000C9485000C9485000C9485000C9485002C
:100040000C9485050C9485000C9485000C94850017
:100050000C9485000C9485000C9485000C9485000C
:100060000C9485000C9485000000000024002700FB
:100070002A0000000000250028002B0004040404CE
:100080000404040402020202020203030303030342
:10009000010204081020408001020408102001021F
:1000A00004081020000000080002010000030407FB
:1000B0000000000000000000D90911241FBECFEF8E
:1000C000D4E0DEBFCDBF12E0A0E0B1E0E6E2F9E1AE
:1000D00002C005900D92A036B107D9F723E0A0E643
:1000E000B2E001C01D92AA36B207E1F710E0CDE5FB
:1000F000D0E004C02197FE010E948B0CCC35D107C3
:10010000C9F70E9435060C94910C0C940000CF9313
:10011000DF93AB01BC01A0E7B0E08C918E7F8C93A4
:10012000E0EBF0E080818C7F8083E1EBF0E0808188
:10013000877F8083C6EBD0E088818F7D88838C9118
:100140008D7F8C9380818460808380818C7F80838D
:1001500081EF90E090936903809368034093640378
:1001600050936503609366037093670380E395E0A3
:100170009093630380936203DF91CF91089590E0A1
:10018000FC01EC55FF4F2491FC01E057FF4F3491E7
:10019000FC01E458FF4FE491EE23C9F0222339F02B
:1001A000233001F1A8F4213019F1223029F1F0E0D7
:1001B000EE0FFF1FEE58FF4FA591B4918FB7F89443
:1001C000EC91611126C030953E233C938FBF08957A
:1001D0002730A9F02830C9F0243049F780918000F9
:1001E0008F7D03C0809180008F7780938000DFCF68
:1001F00084B58F7784BDDBCF84B58F7DFBCF8091B5
:10020000B0008F778093B000D2CF8091B0008F7D07
:10021000F9CF3E2BDACFCF93DF9390E0FC01E0578C
:10022000FF4F249184589F4FFC0184918823D1F083
:1002300090E0880F991FFC01E859FF4FA591B491F8
:10024000FC01EE58FF4FC591D49161110EC09FB7CC
:10025000F8948C91E22FE0958E238C932881E223F1
:10026000E8839FBFDF91CF9108958FB7F894EC9109
:10027000E22BEC938FBFF6CF1F93CF93DF93182F12
:10028000EB0161E00E940B01209739F460E0812FBF
:10029000DF91CF911F910C94BF00CF3FD10511F496
:1002A00061E0F5CFE12FF0E0EC55FF4FE491E33052
:1002B00031F140F4E130B1F0E230E1F0C038D10585
:1002C0007CF7E4CFE73029F1E83059F1E430B1F7B9
:1002D00080918000806280938000D0938B00C093D7
:1002E0008A0004C084B5806884BDC7BDDF91CF910A
:1002F0001F91089584B5806284BDC8BDF7CF8091F9
:100300008000806880938000D0938900C09388002B
:10031000EDCF8091B00080688093B000C093B300AF
:10032000E5CF8091B00080628093B000C093B400AC
:10033000DDCF8E3008F08E508770806480937C0013
:1003400080917A00806480937A0080917A0086FDA3
:10035000FCCF80917800909179000895CF92DF9240
:10036000EF92FF920F931F93CF93DF938C01C4E61C
:10037000D0E0C12CD12C7601F80183AD94AD0E9460
:100380009901BC01990F880B990B0E94920B2AE0EE
:1003900037ED43E25CE30E941E0C9B01AC01C701F8
:1003A000B6010E94EE0A6B017C01219729F70E9499
:1003B0005A0BF80171836083DF91CF911F910F91E8
:1003C000FF90EF90DF90CF9008958330910528F053
:1003D000880F991F04970197F1F708953FB7F89494
:1003E00080915E0390915F03A0916003B0916103DF
:1003F00026B5A89B05C02F3F19F00196A11DB11D80
:100400003FBFBA2FA92F982F8827BC01CD01620FBB
:10041000711D811D911D43E0660F771F881F991F75
:100420004A95D1F70895CF92DF92EF92FF920E9402
:10043000EE016B017C010E94EE016C197D098E09B1
:100440009F09683E734081059105A8F3FF90EF90E6
:10045000DF90CF900895089521E0209358031092E3
:100460003402E0913002F09131029183808308954B
:100470001092610210926202109263021092640262
:100480001092600280916803909169038093B2009A
:10049000E0E7F0E080818160808308950F931F93EF
:1004A000CF93DF938C0181E0809357031092340245
:1004B00010925803F894809170008E7F80937000A2
:1004C000CDE6D2E08091020190910301092E000C4B
:1004D000AA0BBB0B8D8F9E8FAF8FB8A31B830A8394
:1004E0000E94EE016FAB78AF89AF9AAFC25BDF4F6E
:1004F00083E0C735D80731F761E070E080E090E035
:100500000E9487000E9438027894DF91CF911F915A
:100510000F9108950E94BF0088E191E00197F1F7E3
:1005200008950F931F93CF93DF93EC0188859985EE
:10053000AA85BB850196A11DB11D88879987AA87C9
:10054000BB874C815D816E817F8184179507A607EB
:10055000B70708F444C08E01015C1F4FF801808189
:10056000918170E060E00E948A02188619861A86DE
:100570001B868DAD9EAD70E060E00E943C01F8945A
:1005800083E090E09EA78DA7DE01A65BBF4F90E0C1
:1005900080E0AE01485B5F4FFA0120813181821714
:1005A000930784F46D917D91F80120813181FB01E5
:1005B000EA5BFF4F20813181215031093183208353
:1005C0000196EACF80E393E098AB8FA71AAA19AA05
:1005D0007894DF91CF911F910F910C941302DF91CA
:1005E000CF911F910F910895CF93DF93EC0189A1D3
:1005F0009AA1ABA1BCA10196A11DB11D89A39AA38B
:10060000ABA3BCA34D8D5E8D6F8D78A1841795072C
:10061000A607B70710F119A21AA21BA21CA2FE017D
:10062000FF968081918161E070E00E948A028DAD29
:100630009EAD64E070E00E943C01F89482E090E09E
:100640009EA78DA781E992E098AB8FA71AAA19AA55
:100650007894DF91CF910C941302DF91CF9108959C
:10066000FF920F931F93CF93DF93EC0189A59AA577
:10067000ABA5BCA50196A11DB11D89A79AA7ABA7E3
:10068000BCA74DA15EA16FA178A584179507A60709
:10069000B70750F18E010B5B1F4FFF24F394F80155
:1006A000F08219A61AA61BA61CA68DAD9EAD61E010
:1006B00070E00E943C01F8941EA61DA6F801F0828D
:1006C0008BE292E098AB8FA71AAA19AA8DAD9EADC6
:1006D00061E070E00E943C017894DF91CF911F911E
:1006E0000F91FF900C941302DF91CF911F910F9106
:1006F000FF900895CF93DF93EC010E94320A25E624
:1007000030E040E050E00E948A0AC617D70774F034
:1007100081E0809358031092340284E091E090933A
:10072000310280933002DF91CF91089510925803E7
:1007300081E0809334028AE691E090932F028093C7
:100740002E0286E091E090932D0280932C02EBCF55
:100750000F931F93CF93DF938C01EB0181E0809384
:1007600034020E94320A25E630E040E050E00E9468
:100770008A0A061717078CF08AE691E090932F02F9
:1007800080932E0286E091E090932D0280932C02BC
:10079000DF91CF911F910F9108950E94320A9E011F
:1007A0002F5F3F4F032E000C440B550B0E948A0A0B
:1007B000660F771FCB0186599E4F90932F0280932F
:1007C0002E026A5F7E4F70932D0260932C02E0CF61
:1007D000E0916902F0916A0280916B0290916C0243
:1007E0003E2F2F2F41915191BC016F5F7F4F452BC1
:1007F00009F43DC03093690220936A0290936C0221
:1008000080936B028230910509F449C008F031C031
:10081000009709F438C0019709F43CC080916B023D
:1008200090916C028630910509F451C00CF041C0E2
:10083000059709F447C080916B0290916C02FC010E
:100840003997EE30F10508F073C0E75DFB4F0C946B
:100850008B0C6D047104740477047A047D048004A5
:100860008304860489048C048F0492049504CB01CC
:10087000B7CF83309105C1F0049781F670E060E056
:1008800084E690E004C065E070E090E080E00E94C3
:10089000A803C4CF65E070E081E290E0F8CF65E0A6
:1008A00070E082E490E0F3CF65E070E080E590E0F6
:1008B000EECF8730910571F0089709F0BCCF84E640
:1008C00090E002C084E190E00E947A03B4CF81E21C
:1008D00090E0FACF82E490E0F7CF8AEF90E00C94BA
:1008E0002C0287E791E0FBCF84EF91E0F8CF81E71E
:1008F00092E0F5CF8EEE92E0F2CF8BE693E0EFCF71
:1009000088EE93E0ECCF85E694E0E9CF82EE94E0C8
:10091000E6CF84EC99E0E3CF88E893E1E0CF80E193
:1009200097E2DDCF88E99AE3DACF88EA91E6D7CF7C
:10093000FC017797ED30F10508F03CC0EE55FB4F18
:100940000C948B0CAF04B604B904BC04BF04C204FD
:10095000C504C804CB04CE04D104D404D7048DE567
:1009600090E09093330280933202089586E590E000
:10097000F8CF8FE490E0F5CF88E490E0F2CF81E407
:1009800090E0EFCF8AE390E0ECCF83E390E0E9CF13
:100990008CE290E0E6CF85E290E0E3CF8EE190E05C
:1009A000E0CF87E190E0DDCF80E190E0DACF89E031
:1009B00090E0D7CFFC01B497EB30F10508F04FC0C1
:1009C000EC51FB4F0C948B0CEF04F304F304F30491
:1009D000F604F904FC04FF0402050505080581E09E
:1009E00090E00C944E0282E090E0FBCF85E090E036
:1009F000F8CF86E090E0F5CF87E090E0F2CF88E096
:100A000090E0EFCF89E090E0ECCF8AE090E0E9CF92
:100A10001092570310923402109258036FEF70E057
:100A200086E00E943C0170E060E088E090E00E9477
:100A30008A026FEF70E08AE00E943C0170E060E0A3
:100A400087E090E00E948A026FEF70E089E00E94E8
:100A50003C0170E060E084E090E00C948A0208952C
:100A6000809167029091680201969093680280934A
:100A7000670220915703222389F180349F4168F057
:100A8000809165029091660210926802109267024E
:100A900001969093660280936502E0916902F0915D
:100AA0006A022081318180916502909166028217ED
:100AB000930750F110926602109265023296F093FD
:100AC0006A02E093690280916B0290916C02019638
:100AD00090936C0280936B020C94E8032091340293
:100AE000211104C020915803222371F0E091690282
:100AF000F0916A02208131818217930728F01092C9
:100B0000680210926702DACF08951F920F920FB613
:100B10000F9211242F933F938F939F93AF93BF9383
:100B200080915A0390915B03A0915C03B0915D03A7
:100B30003091590326E0230F2D3758F50296A11D59
:100B4000B11D2093590380935A0390935B03A093A4
:100B50005C03B0935D0380915E0390915F03A0916D
:100B60006003B09161030196A11DB11D80935E03E6
:100B700090935F03A0936003B0936103BF91AF9123
:100B80009F918F913F912F910F900FBE0F901F90CB
:100B9000189529E8230F0396A11DB11DD2CF1F92EE
:100BA0000F920FB60F9211242F933F934F935F93A1
:100BB0006F937F938F939F93AF93BF93EF93FF9325
:100BC00080916803909169038093B20080916102E3
:100BD00090916202A0916302B09164020196A11DFE
:100BE000B11D8093610290936202A0936302B0935F
:100BF00064024091610250916202609163027091BF
:100C000064028091640390916503A0916603B091A2
:100C10006703481759076A077B07B0F080916002A5
:100C2000811112C081E080936002109261021092E3
:100C300062021092630210926402E0916203F091EA
:100C40006303099510926002FF91EF91BF91AF91FC
:100C50009F918F917F916F915F914F913F912F91D4
:100C60000F900FBE0F901F901895CF93DF9300D079
:100C700000D0CDB7DEB7789484B5826084BD84B5EA
:100C8000816084BD85B5826085BD85B5816085BD87
:100C900080916E00816080936E001092810080913F
:100CA00081008260809381008091810081608093C7
:100CB0008100809180008160809380008091B100EC
:100CC00084608093B1008091B00081608093B00017
:100CD00080917A00846080937A0080917A008260AB
:100CE00080937A0080917A008E7F80937A00809141
:100CF0007A00806880937A001092C100198261E0C6
:100D000089810E940B0129812F5F29832D30B9F73A
:100D100080917A00846080937A0080917A008D7F40
:100D200080937A0080917A008E7F80937A0080E0B1
:100D30000E949901BC01990F880B990B61157105EF
:100D40008105910511F00E94810A61E086E00E9410
:100D50000B0161E088E00E940B0161E08AE00E94E3
:100D60000B0161E087E00E940B0161E089E00E94D5
:100D70000B0161E084E00E940B0149E352E05A83D9
:100D80004983E5E42E2EE2E03E2EFFE38F2EF2E0D3
:100D90009F2EA2EBEA2EA2E0FA2E8DE692E09C8333
:100DA0008B83D12CC12CB4EF4B2E55245394612C42
:100DB000712CA981BA818D919D91BA83A983BEE4DA
:100DC000BC9D8001BD9D100D112403591D4FF801DC
:100DD00094AF83AF60E00E940B01D1018D919D9192
:100DE0001D01F80196AF85AF61E00E940B01D401AF
:100DF0008D919D914D01F801FF969183808361E073
:100E00000E940B01F801EA5BFF4F1182108258012A
:100E1000B8E4AB0EB11CF50111821082D7011C920F
:100E2000EB81FC811086118612861386DF0111A2E8
:100E300012A213A214A2F80113AA14AA15AA16AAA0
:100E400011961C921E9295964D925D926D927C9297
:100E50009897FD0111A612A613A614A61C961D9222
:100E60001D921D921C921F97108A118A128A138A52
:100E700059961D921D921D921C925C9754961C923D
:100E80005497F7011682158210861782CD010E94B1
:100E9000AE01F894AB81BC819E961C921E929D97E8
:100EA00081E0F70180832BE232E0D0963C932E93D1
:100EB0009F97D2961C921E92D197D801DD968D9164
:100EC0009C9161E070E00E943C0178940E941302C2
:100ED000EB81FC81ED56F240D9F0D501ED91FC910A
:100EE000B7E2BC9DC001BD9D900D1124E80FF91F14
:100EF000EE0FFF1FE954FD4F2DE632E031832083D2
:100F0000D5018D919C911197019611969C938E938A
:100F1000BFEFCB1ADB0AEB81FC81E25BFF4FFC8366
:100F2000EB83FEE4EF0EF11C23E0C216D10409F0BE
:100F300040CFF89460E47FE180E090E00E94870079
:100F40000E943802789480913402882309F45AC0B0
:100F500061E070E088E090E00E948A0264E070E066
:100F600086E00E943C0161E070E087E090E00E9432
:100F70008A0264E070E08AE00E943C0161E070E077
:100F800084E090E00E948A0264E070E089E00E94C0
:100F90003C01E0912E02F0912F02808191810E940C
:100FA000E50170E060E088E090E00E948A0261E084
:100FB00070E086E00E943C0170E060E087E090E035
:100FC0000E948A0261E070E08AE00E943C0170E0C9
:100FD00060E084E090E00E948A0261E070E089E0D5
:100FE0000E943C01E0912C02F0912D0280819181C0
:100FF0000E94E50180E090E0892B09F4A4CF0E94D3
:101000000000A1CF80915803882309F44DC00E94AD
:10101000320A25E630E040E050E00E948A0A209142
:10102000320230913302261737072CF4E091300258
:10103000F0913102DBCF0E94320A23E030E040E041
:1010400050E00E948A0AAB01440F551F5A8349831E
:10105000FA01EB5BFD4F108164E070E0812F0E948C
:101060003C0189819A81815C9D4FDC010D90BC918E
:10107000A02DBA83A98361E070E0CD010E948A02AD
:10108000E0913002F0913102808191810E94E5016E
:1010900061E070E0812F0E943C0170E060E0898196
:1010A0009A810E948A02A6CF80915703882309F46F
:1010B000A1CFEDE6F2E0FA83E983312C212CA9815E
:1010C000BA819D96ED90FC90E114F10409F002C103
:1010D000BEE4B29DF001B39DF00D1124ED54FD4F1F
:1010E00080819181892B09F0F5C0E981FA81EB5B60
:1010F000FF4F8081882329F0108289819A810E9484
:10110000AE01EEE4E29D8001E39D100D1124035930
:101110001D4FD801DB968D919C910E949901E98128
:10112000FA8120813181821B930B6801F1E4CF0E9B
:10113000D11CD60111969C938E9386EF90E0019777
:10114000F1F7F80183AD94AD0E949901A981BA81AC
:101150002D913C91821B930BF801ED5BFF4F918326
:101160008083D6018D919C91119720813181821BC2
:10117000930B181619060CF066C02D913C918081D6
:101180009181281B390BA981BA8112968D919C916E
:10119000821793070CF09EC00396BEE4B29DF00147
:1011A000B39DF00D1124E359FD4FDF01AF5BBF4F3D
:1011B0002D913C911197ED5BFF4F40815181241B94
:1011C000350B121613060CF042C02D913C91408154
:1011D0005181241B350B821793070CF47BC0F894C4
:1011E00021E030E0E981FA8136A725A73EE4329D6F
:1011F0008001339D100D112403591D4F9801285B68
:101200003F4FD801DF96F90180819181E816F906F8
:101210001CF5F701EE0FFF1FE65BFF4F49815A8176
:10122000E40FF51F0190F081E02D8D919C911197B5
:10123000EA5BFF4F808191810196918380835FEF0C
:10124000E51AF50AE0CF20813181F60198CF20819F
:1012500031814D915C91BDCFD801D3961D921D92E5
:101260001D921C92D6970E94320A25E030E040E0A1
:1012700050E00E948A0A660F771FFB01EB5AFD4F70
:1012800080819181092E000CAA0BBB0BE981FA81A8
:1012900084839583A683B783655B7D4FDB018D9146
:1012A0009C91092E000CAA0BBB0B84879587A687FF
:1012B000B78724EF32E030AB27A712AA11AAD801D2
:1012C000DD968D919C9162E070E00E943C017894E3
:1012D0000E9413020E94EE014B015C01E981FA8138
:1012E00087A990ADA1ADB2ADA5019401281B390B22
:1012F0004A0B5B0BCA01B9012DE730E040E050E03A
:101300000E94BC0A29013A0141145104610471048C
:1013100009F440C0C12CD12C76013EE4329D8001FD
:10132000339D100D112400561D4FF80180819181CD
:10133000A281B3810196A11DB11D80839183A283F7
:10134000B383A981BA81D1962D913C91D297C901DD
:10135000959587958A0F9B1F9F96ED91FC9120FF95
:1013600008C0DC012D913C91E20FF31F0190F08148
:10137000E02D0995BFEFCB1ADB0AEB0AFB0A4C14F0
:101380005D046E047F0489F6E981FA8187AA90AE34
:10139000A1AEB2AEFFEF2F1A3F0A29813A81225B3C
:1013A0003F4F3A83298333E02316310409F087CE77
:1013B00021CE80916B0290916C02880F991F82530D
:1013C0009E4F90936A028093690208958F929F9234
:1013D000AF92BF92CF92DF92EF92FF92CF93DF93C3
:1013E000EC01688179818A819B8161157105810594
:1013F000910521F464E279ED8BE597E02DE133EF7F
:1014000041E050E00E948A0A49015A019B01AC0167
:10141000A7EAB1E40E94A90A6B017C01ACEEB4EF2B
:10142000A50194010E94B70AC60ED71EE81EF91E38
:10143000F7FE06C081E0C81AD108E10880E8F80A82
:10144000C882D982EA82FB82C701B6019F77DF9109
:10145000CF91FF90EF90DF90CF90BF90AF909F9093
:101460008F9008958F929F92AF92BF92CF92DF920A
:10147000EF92FF92609135027091360280913702AF
:1014800090913802611571058105910521F464E29E
:1014900079ED8BE597E02DE133EF41E050E00E94DC
:1014A0008A0A49015A019B01AC01A7EAB1E40E94F2
:1014B000A90A6B017C01ACEEB4EFA50194010E9476
:1014C000B70AC60ED71EE81EF91EF7FE06C081E059
:1014D000C81AD108E10880E8F80AC0923502D09213
:1014E0003602E0923702F0923802C701B6019F77C8
:1014F000FF90EF90DF90CF90BF90AF909F908F9034
:10150000089560933502709336028093370290936A
:1015100038020895052E97FB1EF400940E94A10A3C
:1015200057FD07D00E94BC0A07FC03D04EF40C9470
:10153000A10A50954095309521953F4F4F4F5F4FF1
:10154000089590958095709561957F4F8F4F9F4F2F
:1015500008950E94DE0AA59F900DB49F900DA49F50
:10156000800D911D11240895B7FF0C94A90A0E94C3
:10157000A90A821B930B0895A1E21A2EAA1BBB1B7A
:10158000FD010DC0AA1FBB1FEE1FFF1FA217B3074F
:10159000E407F50720F0A21BB30BE40BF50B661F65
:1015A000771F881F991F1A9469F760957095809529
:1015B00090959B01AC01BD01CF010895A29FB001A0
:1015C000B39FC001A39F700D811D1124911DB29F77
:1015D000700D811D1124911D08955058BB27AA2715
:1015E0000E94050B0C94E40B0E94D60B38F00E946D
:1015F000DD0B20F039F49F3F19F426F40C94D30B43
:101600000EF4E095E7FB0C94CD0BE92F0E94F50B4F
:1016100058F3BA17620773078407950720F079F427
:10162000A6F50C94170C0EF4E0950B2EBA2FA02DF6
:101630000B01B90190010C01CA01A0011124FF277F
:10164000591B99F0593F50F4503E68F11A16F0407A
:10165000A22F232F342F4427585FF3CF4695379579
:101660002795A795F0405395C9F77EF41F16BA0B3E
:10167000620B730B840BBAF09150A1F0FF0FBB1FEC
:10168000661F771F881FC2F70EC0BA0F621F731F35
:10169000841F48F4879577956795B795F7959E3F92
:1016A00008F0B0CF9395880F08F09927EE0F979523
:1016B000879508950E94610B6894B1110C94180CE1
:1016C00008950E94FD0B88F09F5798F0B92F992735
:1016D000B751B0F0E1F0660F771F881F991F1AF01D
:1016E000BA95C9F714C0B13091F00E94170CB1E05F
:1016F00008950C94170C672F782F8827B85F39F05E
:10170000B93FCCF3869577956795B395D9F73EF4B5
:1017100090958095709561957F4F8F4F9F4F08955D
:10172000E89409C097FB3EF490958095709561957B
:101730007F4F8F4F9F4F9923A9F0F92F96E9BB2731
:101740009395F695879577956795B795F111F8CFAD
:10175000FAF4BB0F11F460FF1BC06F5F7F4F8F4F18
:101760009F4F16C0882311F096E911C0772321F00E
:101770009EE8872F762F05C0662371F096E8862FA6
:1017800070E060E02AF09A95660F771F881FDAF7FD
:10179000880F9695879597F9089597F99F6780E840
:1017A00070E060E008959FEF80EC089500240A94B3
:1017B0001616170618060906089500240A9412162C
:1017C0001306140605060895092E0394000C11F45F
:1017D000882352F0BB0F40F4BF2B11F460FF04C00C
:1017E0006F5F7F4F8F4F9F4F089557FD9058440F65
:1017F000551F59F05F3F71F04795880F97FB991F70
:1018000061F09F3F79F0879508951216130614062C
:10181000551FF2CF4695F1DF08C0161617061806B9
:10182000991FF1CF86957105610508940895E89494
:10183000BB2766277727CB0197F908950E94310CC3
:101840000C94E40B0E94D60B38F00E94DD0B20F0C4
:10185000952311F00C94CD0B0C94D30B11240C9404
:10186000180C0E94F50B70F3959FC1F3950F50E093
:10187000551F629FF001729FBB27F00DB11D639F42
:10188000AA27F00DB11DAA1F649F6627B00DA11DE8
:10189000661F829F2227B00DA11D621F739FB00D8E
:1018A000A11D621F839FA00D611D221F749F3327FE
:1018B000A00D611D231F849F600D211D822F762F97
:1018C0006A2F11249F5750409AF0F1F088234AF074
:1018D000EE0FFF1FBB1F661F771F881F91505040E0
:1018E000A9F79E3F510580F00C94CD0B0C94180C79
:1018F0005F3FE4F3983ED4F3869577956795B79567
:10190000F795E7959F5FC1F7FE2B880F911D969580
:10191000879597F90895EE0FFF1F0590F491E02D3C
:101920000994F894FFCF500077017D007D00FA0004
:10193000FA0077017701F4016B036504E204E20425
:101940005F05F40171027102EE02EE02EE026B031A
:101950006B036B036B036B03E803E803E803E80323
:10196000650465046504E204E2042D052D052D05DA
:10197000AA052D052D05E204E204E2042D05AA05C1
:10198000AA050000000000000000000000000000A8
:101990007D007D00FA007D00FA007D00FA00FA006B
:1019A0007701F4017102F401FA007701FA0077017E
:1019B000F401FA007701F4017102EE02F401710200
:1019C000EE026B03F4016B03E803F4017102710290
:1019D0006B03E8036B03E803E2046B03E8036504AD
:1019E000E2042D05AA050000000000000000000030
:1019F0000000000000000000000000001E000500C4
:101A000005000A00140002000200020002000200A9
:101A100002000200020002000200020002000200B6
:101A200002000100010001000100010000000100AE
:101A3000000001000000010000000100030003009D
:101A40000300010005000400030002000100010082
:101A5000580206016A01040164000101000000014E
:101A6000000000020008000700040006000A000948
:101A70000001000200020004000300010001000256
:061A80000001000300005C
:103800000C94341C0C94511C0C94511C0C94511CA1
:103810000C94511C0C94511C0C94511C0C94511C74
:103820000C94511C0C94511C0C94511C0C94511C64
:103830000C94511C0C94511C0C94511C0C94511C54
:103840000C94511C0C94511C0C94511C0C94511C44
:103850000C94511C0C94511C0C94511C0C94511C34
:103860000C94511C0C94511C11241FBECFEFD4E0BA
:10387000DEBFCDBF11E0A0E0B1E0EEEAFFE302C0A1
:1038800005900D92A230B107D9F712E0A2E0B1E0A5
:1038900001C01D92AD30B107E1F70E94331D0C94B9
:1038A000D51F0C94001C982F9595959595959595F9
:1038B000905D8F708A307CF0282F295A8091C0004B
:1038C00085FFFCCF9093C6008091C00085FFFCCFA0
:1038D0002093C6000895282F205DF0CF982F809167
:1038E000C00085FFFCCF9093C6000895EF92FF9231
:1038F0000F931F93EE24FF2487018091C00087FD62
:1039000017C00894E11CF11C011D111D81E2E8168D
:1039100081EAF80687E0080780E0180770F3E09175
:103920000401F091050109958091C00087FFE9CF5E
:103930008091C6001F910F91FF90EF9008950E9413
:10394000761C982F8091C00085FFFCCF9093C60015
:1039500091362CF490330CF09053892F089597559D
:10396000892F08951F930E949F1C182F0E949F1C4F
:103970001295107F810F1F9108951F93182F882390
:1039800021F00E94761C1150E1F71F9108951F93BA
:10399000182F0E94761C803249F0809103018F5FBE
:1039A000809303018530C1F01F9108958091C0007C
:1039B00085FFFCCF84E18093C6008091C00085FF25
:1039C000FCCF1093C6008091C00085FFFCCF80E142
:1039D0008093C6001F910895E0910401F0910501C4
:1039E00009951F9108950E94761C803241F08091C4
:1039F00003018F5F80930301853081F008958091EA
:103A0000C00085FFFCCF84E18093C6008091C00098
:103A100085FFFCCF80E18093C6000895E09104010A
:103A2000F09105010995089510920A028823D1F0BA
:103A300090E048EC50E02D9A28EE33E0FA013197FF
:103A4000F1F721503040D1F72D9828EE33E0FA01FC
:103A50003197F1F721503040D1F79F5F981758F315
:103A600080930A0208953F924F925F926F927F92E5
:103A70008F929F92AF92BF92CF92DF92EF92FF927E
:103A80000F931F93CF93DF9394B714BE8091600080
:103A90008861809360001092600091FF0CC289E100
:103AA0008093C4001092C50088E18093C10086E035
:103AB0008093C2005098589A259A81E00E94141D64
:103AC00044E1F42E3EE1E32E24E9D22E96E0C92E05
:103AD00080E1B82EAA24A39401E4902E16E5812E4D
:103AE000B2E57B2EA0E26A2EF9E45F2EE3E54E2ECE
:103AF00070E5372E0E94761C8033B9F18133C1F115
:103B0000803409F470C0813409F477C0823409F438
:103B100086C0853409F489C0803539F1823529F1B0
:103B2000813509F4AFC1853509F485C0863509F4BE
:103B30008DC0843609F435C1843709F4C1C0853796
:103B400009F490C0863709F466C0809103018F5F45
:103B500080930301853071F6E0910401F091050135
:103B600009950E94761C803349F60E94F31CC2CF4F
:103B70000E94761C803249F78091C00085FFFCCFFF
:103B8000F092C6008091C00085FFFCCF9092C600E5
:103B90008091C00085FFFCCF8092C6008091C0005C
:103BA00085FFFCCF7092C6008091C00085FFFCCFDE
:103BB0006092C6008091C00085FFFCCF5092C60085
:103BC0008091C00085FFFCCF4092C6008091C0006C
:103BD00085FFFCCF3092C6008091C00085FFFCCFEE
:103BE000B092C60087CF0E94761C863808F4BDCFFD
:103BF0000E94761C0E94F31C7DCF0E94761C8038A8
:103C000009F45AC0813809F453C0823809F440C11C
:103C1000883909F449C080E00E94C71C6BCF84E159
:103C20000E94BD1C0E94F31C65CF85E00E94BD1C54
:103C30000E94F31C5FCF0E94761C809306010E94B5
:103C4000761C809307010E94F31C54CF0E94761CBF
:103C5000803309F421C183E00E94BD1C80E00E94F2
:103C6000C71C48CF0E94761C803209F06ECF80912D
:103C7000C00085FFFCCFF092C6008091C00085FF98
:103C8000FCCFE092C6008091C00085FFFCCFD092AF
:103C9000C6008091C00085FFFCCFC092C600809115
:103CA000C00085FFFCCF9CCF83E00E94C71C22CFC1
:103CB00081E00E94C71C1ECF82E00E94C71C1ACF61
:103CC0000E94761C809309020E94761C8093080251
:103CD0008091060190910701880F991F9093070129
:103CE000809306010E94761C853409F4C5C080913A
:103CF0000C028E7F80930C020E94761C803209F0A9
:103D0000F9CE8091C00085FFFCCFF092C600609193
:103D10000802709109026115710591F140E050E0CF
:103D200080910C02A82FA170B82FB27010C0BB23D5
:103D300061F1E0910601F09107013196F0930701DE
:103D4000E09306014F5F5F4F46175707C8F4AA2359
:103D500071F3F999FECF209106013091070132BD30
:103D600021BDF89A90B58091C00085FFFCCF90935B
:103D7000C6002F5F3F4F3093070120930601E2CF2B
:103D80008091C00085FFFCCF2BCFE0910601F09120
:103D9000070194918091C00085FFFCCF9093C600ED
:103DA000CCCF0E94761C809309020E94761C8093DF
:103DB000080280910C028E7F80930C020E94761C78
:103DC000853429F480910C02816080930C028091EB
:103DD000080290910902892B89F000E010E00E940E
:103DE000761CF801E85FFE4F80830F5F1F4F8091C4
:103DF0000802909109020817190788F30E94761C9F
:103E0000803209F0A2CE80910C0280FF62C0409106
:103E1000060150910701440F551F5093070140932D
:103E20000601609108027091090261157105C9F0DF
:103E3000E8E0F1E09A01DB01AE0FBF1FF999FECF78
:103E400032BD21BD819180BDFA9AF99A2F5F3F4F13
:103E5000EA17FB0799F7460F571F50930701409346
:103E600006018091C00085FFFCCFF092C6008091D2
:103E7000C00085FFFCCFB4CE80910C02816080939E
:103E80000C023ACF0E94F31C88E080936000FFCFC1
:103E900080E10E94C71C2ECE0E94761C0E94761CD8
:103EA000182F0E94761C112381F0113051F086E00A
:103EB0000E94C71C1FCEE0910401F09105010995F5
:103EC000EECD84E90E94C71C15CE8EE10E94C71C6E
:103ED00011CE809107018823880F880B8A21809357
:103EE0000B028091060190910701880F991F909312
:103EF0000701809306018091080280FF09C080912C
:103F00000802909109020196909309028093080299
:103F1000F894F999FECF1127E0910601F09107017D
:103F2000C8E0D1E08091080290910902103091F42C
:103F30000091570001700130D9F303E0009357005E
:103F4000E8950091570001700130D9F301E1009329
:103F50005700E895099019900091570001700130C1
:103F6000D9F301E000935700E8951395103498F0C9
:103F700011270091570001700130D9F305E000933B
:103F80005700E8950091570001700130D9F301E125
:103F900000935700E8953296029709F0C7CF10308A
:103FA00011F00296E5CF11245CCFF894FFCF80008A
:00000001FF
