:100000000C945C000C9479000C9479000C947900A9
:100010000C9479000C9479000C9479000C9479007C
:100020000C9479000C9413030C9479000C947900CF
:100030000C9479000C9479000C9479000C9479005C
:100040000C94C9020C9479000C9479000C947900FA
:100050000C9479000C9479000C9479000C9479003C
:100060000C9479000C947900000000080002010053
:100070000003040700000000000000000000000072
:10008000250028002B0000000000240027002A0083
:10009000040404040404040402020202020203032E
:1000A0000303030301020408102040800102040836
:1000B000102001020408102011241FBECFEFD4E04D
:1000C000DEBFCDBF11E0A0E0B1E0EAE4FAE002C09B
:1000D00005900D92A430B107D9F721E0A4E0B1E07A
:1000E00001C01D92A431B207E1F70E946A030C948B
:1000F00023050C94000090E0FC01EC55FF4F249187
:1001000080579F4FFC018491882399F090E0880FDD
:10011000991FFC01EA57FF4FA591B491FC01E458E7
:10012000FF4F859194918FB7F894EC91E22BEC936B
:100130008FBF089590E0FC01E859FF4F2491FC0126
:10014000EC55FF4F3491FC01E057FF4FE491EE2353
:10015000C9F0222339F0233001F1A8F4213019F13C
:10016000223029F1F0E0EE0FFF1FE458FF4FA59178
:10017000B4918FB7F894EC91611126C030953E236D
:100180003C938FBF08952730A9F02830C9F0243060
:1001900049F7809180008F7D03C0809180008F7728
:1001A00080938000DFCF84B58F7784BDDBCF84B5AB
:1001B0008F7DFBCF8091B0008F778093B000D2CF3E
:1001C0008091B0008F7DF9CF3E2BDACF1F93CF9374
:1001D000DF93182FEB010E947B00209739F460E039
:1001E000812FDF91CF911F910C949A00E12FF0E0C5
:1001F000E859FF4FE491E33011F148F4E130B9F0F0
:10020000E23069F784B5806284BDC8BD14C0E730B0
:1002100001F1E83031F1E43011F780918000806223
:1002200080938000D0938B00C0938A0004C084B573
:10023000806884BDC7BDDF91CF911F9108958091E3
:100240008000806880938000D0938900C0938800EC
:10025000F2CF8091B00080688093B000C093B3006B
:10026000EACF8091B00080628093B000C093B40068
:10027000E2CF8E3008F08E508770806480937C00CF
:1002800080917A00806480937A0080917A0086FD64
:10029000FCCF809178009091790008953FB7F89451
:1002A0008091100190911101A0911201B091130160
:1002B00026B5A89B05C02F3F19F00196A11DB11DC1
:1002C0003FBFBA2FA92F982F8827BC01CD01620FFD
:1002D000711D811D911D42E0660F771F881F991FB8
:1002E0004A95D1F70895CF92DF92EF92FF920E9444
:1002F0004E016B017C010E944E016C197D098E0933
:100300009F09683E734081059105A8F3FF90EF9027
:10031000DF90CF9008950895CF93DF93EC018BADDC
:100320009CAD60E00E949A00188619861A861B868A
:1003300089AD9AAD70E060E00E94E60083E090E055
:100340009EA78DA7DE01A95BBF4F90E080E0AE01C4
:100350004B5B5F4FFA01208131818217930774F460
:10036000ED91FD912BAD3CADEE5BFF4F20813181D6
:1003700021503109318320830196ECCF8DE792E043
:1003800098AB8FA71AAA19AADF91CF910C94730189
:100390000F931F93CF93DF93FC01E55BFF4F208109
:1003A000222309F45BC0EC018BA99CA9ADA9BEA9CD
:1003B0000196A11DB11D8BAB9CABADABBEAB8C89C7
:1003C0004BA95CA96DA97EA98823C1F08C819D8170
:1003D000AE81BF8184179507A607B70750F41BAA03
:1003E0001CAA1DAA1EAA8BAD9CAD60E00E949A00BB
:1003F0001C8ADF91CF911F910F9108958C859D8567
:10040000AE85BF8584179507A607B70790F78D8936
:100410009E89AF89B88D0196A11DB11D8D8B9E8BD4
:10042000AF8BB88F498D5A8D6B8D7C8D1BAA1CAA02
:100430001DAA1EAA481759076A077B0738F4CE0180
:10044000DF91CF911F910F910C948C018BAD9CADDE
:1004500061E00E949A0081E08C8BCBCFFC0140854B
:100460005185628573854F5F5F4F6F4F7F4F408728
:1004700051876287738704811581268137814017F0
:1004800051076207730708F4B4CFDACFCF93DF9335
:10049000EC0189A19AA1ABA1BCA10196A11DB11D3E
:1004A00089A39AA3ABA3BCA34D8D5E8D6F8D78A15C
:1004B00084179507A607B707E8F019A21AA21BA28E
:1004C0001CA28BAD9CAD61E00E949A0089AD9AADF3
:1004D00064E070E00E94E60082E090E09EA78DA7B5
:1004E00088EC91E098AB8FA71AAA19AADF91CF9157
:1004F0000C947301DF91CF910895FF920F931F9396
:10050000CF93DF93EC0189A59AA5ABA5BCA5019675
:10051000A11DB11D89A79AA7ABA7BCA74DA15EA13C
:100520006FA178A584179507A607B70760F18E011C
:100530000F5B1F4FFF24F394F801F08219A61AA64F
:100540001BA61CA689AD9AAD61E070E00E94E60092
:100550001EA61DA6FE01EC5BFF4F1082F801F08283
:100560008BE891E098AB8FA71AAA19AA89AD9AAD2A
:1005700061E070E00E94E600DF91CF911F910F9142
:10058000FF900C947301DF91CF911F910F91FF9019
:1005900008951F920F920FB60F9211242F933F933D
:1005A0008F939F93AF93BF9380910C0190910D0116
:1005B000A0910E01B0910F0130910B0123E0230FA8
:1005C0002D3758F50196A11DB11D20930B01809385
:1005D0000C0190930D01A0930E01B0930F01809137
:1005E000100190911101A0911201B0911301019697
:1005F000A11DB11D8093100190931101A0931201D0
:10060000B0931301BF91AF919F918F913F912F9123
:100610000F900FBE0F901F90189526E8230F02969B
:10062000A11DB11DD2CF1F920F920FB60F921124B0
:100630002F933F934F935F936F937F938F939F93EA
:10064000AF93BF93EF93FF938091090190910A01BB
:100650008093B2008091050190910601A09107015D
:10066000B09108010196A11DB11D809305019093E1
:100670000601A0930701B0930801809105019091B4
:100680000601A0910701B091080180910401811138
:1006900010C081E0809304011092050110920601C0
:1006A0001092070110920801F0E0E0E00995109225
:1006B0000401FF91EF91BF91AF919F918F917F9135
:1006C0006F915F914F913F912F910F900FBE0F90BF
:1006D0001F901895789484B5826084BD84B581603C
:1006E00084BD85B5826085BD85B5816085BD8091FD
:1006F0006E00816080936E00109281008091810075
:10070000826080938100809181008160809381006C
:10071000809180008160809380008091B10084602E
:100720008093B1008091B00081608093B00080918F
:100730007A00846080937A0080917A00826080934E
:100740007A0080917A00816080937A0080917A00AB
:10075000806880937A001092C100C0E08C2F0E94C4
:100760007B00CF5FCD30D1F780917A008460809399
:100770007A0080917A008D7F80937A0080917A0050
:100780008E7F80937A0080E00E943901BC01990F2E
:10079000880B990B611571058105910511F00E9477
:1007A000B70486E00E947B0088E00E947B008AE01C
:1007B0000E947B0087E00E947B0089E00E947B0012
:1007C00084E00E947B0061E086E00E949A0061E084
:1007D0008AE00E949A0061E089E00E949A0061E04C
:1007E00088E00E949A0061E087E00E949A0061E040
:1007F00084E00E949A0085E08A95F1F7000060E0AD
:1008000086E00E949A0060E08AE00E949A0060E020
:1008100089E00E949A0060E088E00E949A0060E00F
:1008200087E00E949A0060E084E00E949A0085E0E0
:100830008A95F1F70000C7CF8F929F92AF92BF9237
:10084000CF92DF92EF92FF92CF93DF93EC0168811A
:1008500079818A819B81611571058105910521F45A
:1008600064E279ED8BE597E02DE133EF41E050E074
:100870000E94C00449015A019B01AC01A7EAB1E4FE
:100880000E94DF046B017C01ACEEB4EFA501940182
:100890000E94ED04C60ED71EE81EF91EF7FE06C024
:1008A00081E0C81AD108E10880E8F80AC882D98234
:1008B000EA82FB82C701B6019F77DF91CF91FF905B
:1008C000EF90DF90CF90BF90AF909F908F90089562
:1008D0008F929F92AF92BF92CF92DF92EF92FF9250
:1008E00060910001709101018091020190910301DA
:1008F000611571058105910521F464E279ED8BE5BF
:1009000097E02DE133EF41E050E00E94C00449013F
:100910005A019B01AC01A7EAB1E40E94DF046B011C
:100920007C01ACEEB4EFA50194010E94ED04C60E6B
:10093000D71EE81EF91EF7FE06C081E0C81AD108CE
:10094000E10880E8F80AC0920001D0920101E0922B
:100950000201F0920301C701B6019F77FF90EF906B
:10096000DF90CF90BF90AF909F908F90089560934D
:100970000001709301018093020190930301089597
:10098000052E97FB1EF400940E94D70457FD07D054
:100990000E94F20407FC03D04EF40C94D704509547
:1009A0004095309521953F4F4F4F5F4F089590955B
:1009B0008095709561957F4F8F4F9F4F08950E944E
:1009C0001405A59F900DB49F900DA49F800D911DBF
:1009D00011240895B7FF0C94DF040E94DF04821BEA
:1009E000930B0895A1E21A2EAA1BBB1BFD010DC09B
:1009F000AA1FBB1FEE1FFF1FA217B307E407F507CF
:100A000020F0A21BB30BE40BF50B661F771F881FAA
:100A1000991F1A9469F760957095809590959B0140
:100A2000AC01BD01CF010895A29FB001B39FC001E9
:100A3000A39F700D811D1124911DB29F700D811D0A
:0A0A40001124911D0895F894FFCFD2
:040A4A0001000000A7
:00000001FF
