:100000000C945C000C9479000C9479000C947900A9
:100010000C9479000C9479000C9479000C9479007C
:100020000C9479000C944F050C9479000C94790091
:100030000C9479000C9479000C9479000C9479005C
:100040000C9405050C9479000C9479000C947900BB
:100050000C9479000C9479000C9479000C9479003C
:100060000C9479000C947900000000002400270013
:100070002A0000000000250028002B0004040404CE
:100080000404040402020202020203030303030342
:10009000010204081020408001020408102001021F
:1000A00004081020000000080002010000030407FB
:1000B000000000000000000011241FBECFEFD4E0BC
:1000C000DEBFCDBF12E0A0E0B1E0E8EAF6E102C099
:1000D00005900D92A035B107D9F723E0A0E5B2E075
:1000E00001C01D92AD34B207E1F70E94B5050C9432
:1000F000520B0C940000CF93DF93AB01BC01A0E73F
:10010000B0E08C918E7F8C93E0EBF0E080818C7F6F
:100110008083E1EBF0E08081877F8083C6EBD0E0D5
:1001200088818F7D88838C918D7F8C938081846082
:10013000808380818C7F808381EF90E090934C035B
:1001400080934B03409347035093480360934903C4
:1001500070934A0387E294E09093460380934503AB
:10016000DF91CF91089590E0FC01EC55FF4F249171
:10017000FC01E057FF4F3491FC01E458FF4FE4913C
:10018000EE23C9F0222339F0233001F1A8F4213005
:1001900019F1223029F1F0E0EE0FFF1FEE58FF4F6A
:1001A000A591B4918FB7F894EC91611126C0309568
:1001B0003E233C938FBF08952730A9F02830C9F023
:1001C000243049F7809180008F7D03C080918000AA
:1001D0008F7780938000DFCF84B58F7784BDDBCFAE
:1001E00084B58F7DFBCF8091B0008F778093B00076
:1001F000D2CF8091B0008F7DF9CF3E2BDACFCF9355
:10020000DF9390E0FC01E057FF4F249184589F4F0B
:10021000FC0184918823D1F090E0880F991FFC01A4
:10022000E859FF4FA591B491FC01EE58FF4FC591DD
:10023000D49161110EC09FB7F8948C91E22FE09594
:100240008E238C932881E223E8839FBFDF91CF9197
:1002500008958FB7F894EC91E22BEC938FBFF6CF13
:100260001F93CF93DF93182FEB0161E00E94FF00F3
:10027000209739F460E0812FDF91CF911F910C948A
:10028000B300CF3FD10511F461E0F5CFE12FF0E0ED
:10029000EC55FF4FE491E33031F140F4E130B1F03F
:1002A000E230E1F0C038D1057CF7E4CFE73029F146
:1002B000E83059F1E430B1F780918000806280939A
:1002C0008000D0938B00C0938A0004C084B58068FE
:1002D00084BDC7BDDF91CF911F91089584B5806221
:1002E00084BDC8BDF7CF8091800080688093800076
:1002F000D0938900C0938800EDCF8091B0008068D2
:100300008093B000C093B300E5CF8091B0008062CD
:100310008093B000C093B400DDCF8E3008F08E50D3
:100320008770806480937C0080917A0080648093E1
:100330007A0080917A0086FDFCCF809178009091C0
:1003400079000895089521E020933B03109238022C
:10035000E0913402F09135029183808308951092E8
:1003600051021092520210925302109254021092B3
:10037000500280914B0390914C038093B200E0E7D0
:10038000F0E08081816080830895CF93DF93EC015A
:1003900081E080933A031092380210923B03F89464
:1003A000E0E7F0E080818E7F808368EE73E080E09C
:1003B00090E00E947B000E94AF017894E0E6F1E0BB
:1003C00080819181A9E5B2E05D961D921D921D92FA
:1003D0001C9290971396DC93CE9312978081918113
:1003E0001092C1021092C2021092C3021092C40273
:1003F000D093A702C093A6028081918110920C0332
:1004000010920D0310920E0310920F03D093F2027C
:10041000C093F102DF91CF910895CF93DF93EC0168
:1004200088859985AA85BB850196A11DB11D888700
:100430009987AA87BB874C815D816E817F818417F4
:100440009507A607B707C8F08BAD9CAD60E00E948A
:10045000B300188619861A861B8689AD9AAD70E09E
:1004600060E00E94300183E090E09EA78DA78FEBB3
:1004700094E098AB8FA71AAA19AADF91CF9108959B
:10048000CF92DF92EF92FF920F931F93CF93DF9360
:100490008C01C4E6D0E0C12CD12C7601F80187A9EB
:1004A00090AD0E948D01BC01990F880B990B0E94A1
:1004B000530A2AE037ED43E25CE30E94DF0A9B0126
:1004C000AC01C701B6010E94AF096B017C01219705
:1004D00029F70E941B0AF80171836083DF91CF9195
:1004E0001F910F91FF90EF90DF90CF900895CF93E1
:1004F000DF93EC010E94F30825E630E040E050E095
:100500000E944B09C617D70774F081E080933B0324
:100510001092380286E691E090933502809334027F
:10052000DF91CF91089510923B0381E080933802D0
:100530008CEC91E0909333028093320288E691E054
:100540009093310280933002EBCF0F931F93CF93A0
:10055000DF938C01EB0181E0809338020E94F30865
:1005600025E630E040E050E00E944B0906171707EF
:100570008CF08CEC91E0909333028093320288E609
:1005800091E09093310280933002DF91CF911F91DF
:100590000F9108950E94F3089E012F5F3F4F032E95
:1005A000000C440B550B0E944B09660F771FCB01C3
:1005B00084539E4F909333028093320268597E4F4A
:1005C0007093310260933002E0CFE0916401F091CA
:1005D000650180916201909163013E2F2F2F41911F
:1005E0005191BC016F5F7F4F452B09F43DC03093A3
:1005F00064012093650190936301809362018230CE
:10060000910509F449C008F031C0009709F438C0D9
:10061000019709F43CC0809162019091630186309A
:10062000910509F451C00CF041C0059709F447C089
:100630008091620190916301FC013997EE30F105E0
:1006400008F073C0EA5DFC4F0C944C0B6A036E0318
:100650007103740377037A037D03800383038603A6
:1006600089038C038F039203CB01B7CF83309105AD
:10067000C1F0049781F670E060E084E690E004C089
:1006800065E070E090E080E00E94A502C4CF65E0E4
:1006900070E081E290E0F8CF65E070E082E490E005
:1006A000F3CF65E070E080E590E0EECF8730910514
:1006B00071F0089709F0BCCF84E690E002C084E1B5
:1006C00090E00E947702B4CF81E290E0FACF82E41A
:1006D00090E0F7CF8AEF90E00C94A30187E791E0D8
:1006E000FBCF84EF91E0F8CF81E792E0F5CF8EEE7B
:1006F00092E0F2CF8BE693E0EFCF88EE93E0ECCF81
:1007000085E694E0E9CF82EE94E0E6CF84EC99E0D0
:10071000E3CF88E893E1E0CF80E197E2DDCF88E99D
:100720009AE3DACF88EA91E6D7CFFC017797ED30EC
:10073000F10508F03CC0E156FC4F0C944C0BAC03A7
:10074000B303B603B903BC03BF03C203C503C803A5
:10075000CB03CE03D103D4038DE590E09093370211
:1007600080933602089586E590E0F8CF8FE490E01C
:10077000F5CF88E490E0F2CF81E490E0EFCF8AE318
:1007800090E0ECCF83E390E0E9CF8CE290E0E6CF1D
:1007900085E290E0E3CF8EE190E0E0CF87E190E06A
:1007A000DDCF80E190E0DACF89E090E0D7CFFC01A7
:1007B000B497EB30F10508F049C0EF51FC4F0C94B1
:1007C0004C0BEC03F003F003F003F303F603F9031F
:1007D000FC03FF030204050481E090E00C94C501D2
:1007E00082E090E0FBCF85E090E0F8CF86E090E0FB
:1007F000F5CF87E090E0F2CF88E090E0EFCF89E09E
:1008000090E0ECCF8AE090E0E9CF10923A031092AA
:10081000380210923B0370E060E086E00E943001F5
:1008200060E088E00E94B30070E060E08AE00E942F
:10083000300160E087E00E94B30070E060E089E092
:100840000E94300160E084E00C94B3000895FF92B0
:100850000F931F93CF93DF9380915702909158028B
:100860000196909358028093570220913A032223D5
:1008700009F46FC080349F4168F0809155029091D7
:100880005602109258021092570201969093560207
:1008900080935502E0916401F091650120813181DE
:1008A000809155029091560282179307C8F01092DA
:1008B0005602109255023296F0936501E09364015E
:1008C00080916201909163010196909363018093FE
:1008D0006201DF91CF911F910F91FF900C94E5027F
:1008E000C9E5D2E010E000E04BE4F42EF09EF00108
:1008F000F19EF00D1124E75AFD4F83A994A9A5A9F3
:10090000B6A90196A11DB11D83AB94ABA5ABB6AB47
:1009100029A93AA9C901959587958C0F9D1FEFA527
:10092000F8A920FF08C0DC012D913C91E20FF31FD4
:100930000190F081E02D09950F5F1F4FC55BDF4FE0
:100940000330110599F6DF91CF911F910F91FF9020
:10095000089520913802211104C020913B032223E5
:1009600091F3E0916401F09165012081318182175A
:10097000930748F310925802109257029CCFFF92AF
:100980000F931F93CF93DF93EC0189A59AA5ABA595
:10099000BCA50196A11DB11D89A79AA7ABA7BCA7AD
:1009A0004DA15EA16FA178A584179507A607B7078B
:1009B00030F18E010F5B1F4FFF24F394F801F0829A
:1009C00019A61AA61BA61CA689AD9AAD61E070E017
:1009D0000E9430011EA61DA6F801F08282EA91E075
:1009E00098AB8FA71AAA19AA89AD9AAD61E070E0F9
:1009F000DF91CF911F910F91FF900C943001DF9107
:100A0000CF911F910F91FF9008951F920F920FB6F3
:100A10000F9211242F933F938F939F93AF93BF9384
:100A20008091410390914203A0914303B09144030C
:100A30003091400326E0230F2D3758F50296A11D73
:100A4000B11D209340038093410390934203A093F0
:100A50004303B093440380913C0390913D03A091E4
:100A60003E03B0913F030196A11DB11D80933C034D
:100A700090933D03A0933E03B0933F03BF91AF918A
:100A80009F918F913F912F910F900FBE0F901F90CC
:100A9000189529E8230F0396A11DB11DD2CF1F92EF
:100AA0000F920FB60F9211242F933F934F935F93A2
:100AB0006F937F938F939F93AF93BF93EF93FF9326
:100AC00080914B0390914C038093B200809151022E
:100AD00090915202A0915302B09154020196A11D2F
:100AE000B11D8093510290935202A0935302B09390
:100AF0005402409151025091520260915302709100
:100B000054028091470390914803A0914903B0910A
:100B10004A03481759076A077B07B0F080915002D3
:100B2000811112C081E08093500210925102109204
:100B300052021092530210925402E0914503F09138
:100B40004603099510925002FF91EF91BF91AF912A
:100B50009F918F917F916F915F914F913F912F91D5
:100B60000F900FBE0F901F901895CF93DF9300D07A
:100B700000D000D0CDB7DEB7789484B5826084BD54
:100B800084B5816084BD85B5826085BD85B5816091
:100B900085BD80916E00816080936E00109281000F
:100BA00080918100826080938100809181008160CA
:100BB000809381008091800081608093800080918B
:100BC000B10084608093B1008091B0008160809317
:100BD000B00080917A00846080937A0080917A00DE
:100BE000826080937A0080917A008E7F80937A0071
:100BF00080917A00806880937A001092C1001982F7
:100C000061E089810E94FF0029812F5F29832D30B7
:100C1000B9F780917A00846080937A0080917A009D
:100C20008D7F80937A0080917A008E7F80937A0006
:100C300080E00E948D01BC01990F880B990B611512
:100C400071058105910511F00E94420961E086E07D
:100C50000E94FF0061E088E00E94FF0061E08AE0FE
:100C60000E94FF0061E087E00E94FF0061E089E0F0
:100C70000E94FF0061E084E00E94FF008DE392E0AB
:100C80009A838983E9E4CE2EE2E0DE2EA3E4B2E08B
:100C9000BC83AB830AE912E0E9E5F2E0FE83ED8371
:100CA000B12CA12CF4EF4F2E55245394612C712CB0
:100CB000A981BA818D919D91BA83A983BBE4BA9D24
:100CC0001001BB9D300C1124F101E75AFD4F7F014B
:100CD00090AF87AB60E00E94FF00D6018D919D919F
:100CE0006D01F70192AF81AF61E00E94FF00AB811F
:100CF000BC818D919D91BC83AB83F70194AF83AF91
:100D000061E00E94FF00F701EE5BFF4F118210824D
:100D10004701F4E48F0E911CD40111961C921E928F
:100D2000F8011082AD81BE8118961D921D921D9210
:100D30001C921B97FD0111A212A213A214A2D701AB
:100D4000D3961D921D921D921C92D69711821082ED
:100D500045A256A267A270A6DF0111A612A613A68D
:100D600014A6F80111861C961D921D921D921C92CC
:100D70001F97FD01108A118A128A138A59961D92B3
:100D80001D921D921C925C9754961C925497F801E8
:100D90001682158210861782CD010E944002AD8115
:100DA000BE819E961C921E929D9781E0F8018083E1
:100DB00022EA31E0D0963C932E939F97D2961C92D4
:100DC0001E92D197D701D9968D919C9161E070E0E8
:100DD0000E943001E9E5F2E02D813E81E217F30740
:100DE000B9F0D4018D919C9111978396880F991F2A
:100DF000820D931DFC01E75AFD4F29E532E0318356
:100E000020838D919C911197019611969C938E93BE
:100E10003FEFA31AB30A8D819E81855B9F4F9E830E
:100E20008D83055B1F4F93E0A916B10409F040CFF5
:100E3000F89460E47FE180E090E00E947B000E94F3
:100E4000AF0178940E94E5023BE4D32E45E6442EA0
:100E5000512C612C712C53E0852E912CA12CB12C9E
:100E600060E0262E60E0362E80913802882309F457
:100E70006BC061E088E00E94B30068EC70E086E03F
:100E80000E94300161E087E00E94B30068EC70E0EE
:100E90008AE00E94300161E084E00E94B30068ECC7
:100EA00070E089E00E943001E0913202F09133025B
:100EB00040815181052E000C660B770B80E090E09D
:100EC000DC0184179507A607B707B0F160E088E05A
:100ED0000E94B30061E070E086E00E94300160E0B3
:100EE00087E00E94B30061E070E08AE00E94300178
:100EF00060E084E00E94B30061E070E089E00E945D
:100F00003001E0913002F091310240815181052E93
:100F1000000C660B770B80E090E0DC0184179507EE
:100F2000A607B70708F07EC0F2E0FA95F1F700C017
:100F30000196A11DB11DF2CFE2E0EA95F1F700C0E4
:100F40000196A11DB11DBDCF80913B03882309F4FB
:100F500070C00E94F308A30192010E944B092091E6
:100F600036023091370226173707DCF4E09134025D
:100F7000F091350240815181052E000C660B770BF4
:100F800080E090E0DC0184179507A607B70708F01A
:100F900049C022E02A95F1F700C00196A11DB11DBC
:100FA000F2CF0E94F308A50194010E944B09DB01D6
:100FB000AA0FBB1FBA83A983FD01E75BFD4F108118
:100FC00068EC70E0812F0E943001E981FA81ED5BCD
:100FD000FD4FF081F98361E08F2F0E94B300E09113
:100FE0003402F091350240815181052E000C660BD0
:100FF000770B80E090E0DC0184179507A607B70720
:1010000040F422E02A95F1F700C00196A11DB11D20
:10101000F3CF61E070E0812F0E94300160E08981B0
:101020000E94B3002114310409F41ECF0E94000075
:101030001BCF80913A038823A9F309E512E0F12C34
:10104000E12CD8019D968D919C91892B09F06DC062
:10105000DE9CF001DF9CF00D1124E75AFD4FFA836E
:10106000E983EE5BFF4F80819181F801EF5BFF4FD9
:1010700080818823D1F01082C8010E944002A9819A
:10108000BA81D7968D919C910E948D01F8012081A3
:101090003181821B930BA981BA81DE969C938E933A
:1010A000DD97DF9611969C938E93DE9CF001DF9C7A
:1010B000F00D1124E75AFD4FFA83E98387A990AD1B
:1010C0000E948D01D8012D913C91821B930BE981E7
:1010D000FA8196AF85AF85AD96ADFF9620813181BF
:1010E000821B930B181619065CF5A981BA81DD964F
:1010F0008D919C9180819181DE9CF001DF9CF00DAF
:101100001124E75AFD4F85AD96ADDF01DF961196AC
:101110009C938E9365AD76AD81AD92AD93E0759560
:1011200067959A95E1F70E943001FFEFEF1AFF0AE9
:10113000055B1F4F23E0E216F10409F082CF72CF66
:1011400080819181E981FA8185AD96ADD5CF8F926D
:101150009F92AF92BF92CF92DF92EF92FF92CF9386
:10116000DF93EC01688179818A819B81611571052A
:101170008105910521F464E279ED8BE597E02DE19D
:1011800033EF41E050E00E944B0949015A019B01B5
:10119000AC01A7EAB1E40E946A096B017C01ACEEE4
:1011A000B4EFA50194010E947809C60ED71EE81E6F
:1011B000F91EF7FE06C081E0C81AD108E10880E8F0
:1011C000F80AC882D982EA82FB82C701B6019F77FA
:1011D000DF91CF91FF90EF90DF90CF90BF90AF90D5
:1011E0009F908F9008958F929F92AF92BF92CF92CF
:1011F000DF92EF92FF926091390270913A028091F2
:101200003B0290913C02611571058105910521F425
:1012100064E279ED8BE597E02DE133EF41E050E0BA
:101220000E944B0949015A019B01AC01A7EAB1E4B4
:101230000E946A096B017C01ACEEB4EFA501940138
:101240000E947809C60ED71EE81EF91EF7FE06C0DA
:1012500081E0C81AD108E10880E8F80AC092390292
:10126000D0923A02E0923B02F0923C02C701B601F2
:101270009F77FF90EF90DF90CF90BF90AF909F90BF
:101280008F9008956093390270933A0280933B02E5
:1012900090933C020895052E97FB1EF400940E9443
:1012A000620957FD07D00E947D0907FC03D04EF468
:1012B0000C94620950954095309521953F4F4F4FC2
:1012C0005F4F089590958095709561957F4F8F4FF2
:1012D0009F4F08950E949F09A59F900DB49F900D68
:1012E000A49F800D911D11240895B7FF0C946A09E5
:1012F0000E946A09821B930B0895A1E21A2EAA1B71
:10130000BB1BFD010DC0AA1FBB1FEE1FFF1FA217B5
:10131000B307E407F50720F0A21BB30BE40BF50BB2
:10132000661F771F881F991F1A9469F7609570953B
:10133000809590959B01AC01BD01CF010895A29FBE
:10134000B001B39FC001A39F700D811D1124911D99
:10135000B29F700D811D1124911D08955058BB2717
:10136000AA270E94C6090C94A50A0E94970A38F081
:101370000E949E0A20F039F49F3F19F426F40C9441
:10138000940A0EF4E095E7FB0C948E0AE92F0E9474
:10139000B60A58F3BA17620773078407950720F057
:1013A00079F4A6F50C94D80A0EF4E0950B2EBA2F1A
:1013B000A02D0B01B90190010C01CA01A00111245B
:1013C000FF27591B99F0593F50F4503E68F11A1607
:1013D000F040A22F232F342F4427585FF3CF469598
:1013E00037952795A795F0405395C9F77EF41F16BA
:1013F000BA0B620B730B840BBAF09150A1F0FF0F84
:10140000BB1F661F771F881FC2F70EC0BA0F621F6F
:10141000731F841F48F4879577956795B795F7955F
:101420009E3F08F0B0CF9395880F08F09927EE0FF4
:101430009795879508950E94220A6894B1110C949B
:10144000D90A08950E94BE0A88F09F5798F0B92FD4
:101450009927B751B0F0E1F0660F771F881F991FE9
:101460001AF0BA95C9F714C0B13091F00E94D80AA9
:10147000B1E008950C94D80A672F782F8827B85FB9
:1014800039F0B93FCCF3869577956795B395D9F741
:101490003EF490958095709561957F4F8F4F9F4F4B
:1014A0000895E89409C097FB3EF490958095709557
:1014B00061957F4F8F4F9F4F9923A9F0F92F96E9A0
:1014C000BB279395F695879577956795B795F11115
:1014D000F8CFFAF4BB0F11F460FF1BC06F5F7F4FB2
:1014E0008F4F9F4F16C0882311F096E911C07723C4
:1014F00021F09EE8872F762F05C0662371F096E8CD
:10150000862F70E060E02AF09A95660F771F881F9B
:10151000DAF7880F9695879597F9089597F99F6759
:1015200080E870E060E008959FEF80EC089500246B
:101530000A941616170618060906089500240A9438
:1015400012161306140605060895092E0394000CBE
:1015500011F4882352F0BB0F40F4BF2B11F460FF4D
:1015600004C06F5F7F4F8F4F9F4F089557FD905876
:10157000440F551F59F05F3F71F04795880F97FB57
:10158000991F61F09F3F79F0879508951216130611
:101590001406551FF2CF4695F1DF08C01616170640
:1015A0001806991FF1CF8695710561050894089575
:1015B000E894BB2766277727CB0197F908950E9407
:1015C000F20A0C94A50A0E94970A38F00E949E0A1B
:1015D00020F0952311F00C948E0A0C94940A112497
:1015E0000C94D90A0E94B60A70F3959FC1F3950F27
:1015F00050E0551F629FF001729FBB27F00DB11D97
:10160000639FAA27F00DB11DAA1F649F6627B00D26
:10161000A11D661F829F2227B00DA11D621F739F0F
:10162000B00DA11D621F839FA00D611D221F749F1D
:101630003327A00D611D231F849F600D211D822F64
:10164000762F6A2F11249F5750409AF0F1F088238B
:101650004AF0EE0FFF1FBB1F661F771F881F9150B8
:101660005040A9F79E3F510580F00C948E0A0C94CF
:10167000D90A5F3FE4F3983ED4F386957795679552
:10168000B795F795E7959F5FC1F7FE2B880F911DE2
:101690009695879597F90895EE0FFF1F0590F491A1
:0816A000E02D0994F894FFCF3E
:1016A800500000000000000000001E0005000500BA
:1016B8000A001400020002000200020002000200F8
:1016C8000200020002000200020002000200020002
:1016D80001000100010001000100000001000000FC
:1016E80001000000010000000100030003000300E6
:1016F800480305000400030002000100010058022D
:10170800770123004A017D007D00FA00FA00770185
:101718007701F4016B036504E204E2045F05F40158
:1017280071027102EE02EE02EE026B036B036B03B1
:101738006B036B03E803E803E803E8036504650447
:101748006504E204E2042D052D052D05AA052D05E5
:101758002D05E204E204E2042D05AA05AA0500000D
:101768000000000000000000000000007D007D0077
:10177800FA007D00FA007D00FA00FA007701F40112
:101788007102F401FA007701FA007701F401FA0016
:101798007701F4017102EE02F4017102EE026B03AB
:1017A800F4016B03E803F401710271026B03E803AF
:1017B8006B03E803E2046B03E8036504E2042D0508
:1017C800AA05000000000000000000000000000062
:1017D8006801CC01660164000101000000010000FD
:1017E80000020008000700040006000A00090000C3
:00000001FF
