:100000000C945D000C9485000C9485000C94850084
:100010000C9485000C9485000C9485000C9485004C
:100020000C9485000C94E9020C9485000C948500D6
:100030000C9485000C9485000C9485000C9485002C
:100040000C9447020C9485000C94B7020C94910216
:100050000C9485000C9485000C9485000C9485000C
:100060000C9485000C9485000000000024002700FB
:100070002A0000000000250028002B0004040404CE
:100080000404040402020202020203030303030342
:10009000010204081020408001020408102001021F
:1000A00004081020000000080002010000030407FB
:1000B0000000000000000000400311241FBECFEF2D
:1000C000D4E0DEBFCDBF11E0A0E0B1E0E8E0F8E0B1
:1000D00002C005900D92A231B107D9F721E0A2E14B
:1000E000B1E001C01D92AF3BB207E1F710E0CDE5F2
:1000F000D0E004C02197FE010E94FC03CC35D1075B
:10010000C9F70E946D030C9402040C94000090E067
:10011000FC01E057FF4F249184589F4FFC018491CC
:10012000882399F090E0880F991FFC01E859FF4F50
:10013000A591B491FC01EE58FF4F859194918FB732
:10014000F894EC91E22BEC938FBF0895AF92BF929D
:10015000CF92DF92EF92FF920F931F93CF93DF9393
:100160006C017B018B01040F151FEB015E01AE18C2
:10017000BF08C017D10759F06991D601ED91FC91E4
:100180000190F081E02DC6010995892B79F7C50111
:10019000DF91CF911F910F91FF90EF90DF90CF9063
:1001A000BF90AF900895FC01538D448D252F30E012
:1001B000842F90E0821B930B541710F0CF96089574
:1001C00001970895FC01918D828D981761F0A28DA1
:1001D000AE0FBF2FB11D5D968C91928D9F5F9F7367
:1001E000928F90E008958FEF9FEF0895FC01918D1D
:1001F000828D981731F0828DE80FF11D858D90E08A
:1002000008958FEF9FEF0895FC01918D228D892F26
:1002100090E0805C9F4F821B91098F73992708950E
:10022000FC01A48DA80FB92FB11DA35ABF4F2C916B
:10023000848D90E001968F739927848FA689B78962
:100240002C93A089B1898C91837080648C93938D59
:10025000848D981306C00288F389E02D80818F7DFC
:1002600080830895EF92FF920F931F93CF93DF93B4
:10027000EC0181E0888F9B8D8C8D98131AC0E889E2
:10028000F989808185FF15C09FB7F894EE89FF89B1
:100290006083E889F98980818370806480839FBF4F
:1002A00081E090E0DF91CF911F910F91FF90EF904F
:1002B0000895F62E0B8D10E00F5F1F4F0F7311275F
:1002C000E02E8C8D8E110CC00FB607FCFACFE8899A
:1002D000F989808185FFF5CFCE010E941001F1CF11
:1002E000EB8DEC0FFD2FF11DE35AFF4FF0829FB70E
:1002F000F8940B8FEA89FB8980818062CFCFCF93FE
:10030000DF93EC01888D8823B9F0AA89BB89E8893D
:10031000F9898C9185FD03C0808186FD0DC00FB6E3
:1003200007FCF7CF8C9185FFF2CF808185FFEDCF61
:10033000CE010E941001E9CFDF91CF91089582E2B2
:1003400091E00E94040121E0892B09F420E0822F32
:10035000089580E090E0892B29F00E949F0181118F
:100360000C940000089590E0FC01EC55FF4F24919F
:10037000233009F44CC068F5213009F43CC0223028
:1003800009F43FC02491FC01E057FF4F3491FC0178
:10039000E458FF4FE491EE23D9F0222359F02330A3
:1003A00009F45EC008F051C0213009F45FC022306A
:1003B00009F460C0F0E0EE0FFF1FEE58FF4FA5916B
:1003C000B4918FB7F894EC9130953E233C938FBF56
:1003D0000895273041F1283079F1243099F6809141
:1003E00080008062809380008FE790E090938B0084
:1003F00080938A00089584B5806884BD8FE787BDA7
:10040000089584B5806284BD8FE788BD089580918A
:1004100080008068809380008FE790E0909389004F
:100420008093880008958091B00080688093B00028
:100430008FE78093B30008958091B000806280932D
:10044000B0008FE78093B40008952730B1F02830D2
:10045000D1F0243009F0AECF809180008F7D03C0B1
:10046000809180008F7780938000A4CF84B58F77B0
:1004700084BDA0CF84B58F7DFBCF8091B0008F77F6
:100480008093B00097CF8091B0008F7DF9CF1F92FD
:100490000F920FB60F9211242F933F938F939F9338
:1004A000AF93BF9380911E0190911F01A0912001F5
:1004B000B091210130911D0126E0230F2D3758F511
:1004C0000296A11DB11D20931D0180931E019093E2
:1004D0001F01A0932001B0932101809119019091F7
:1004E0001A01A0911B01B0911C010196A11DB11D23
:1004F0008093190190931A01A0931B01B0931C01E2
:10050000BF91AF919F918F913F912F910F900FBE0F
:100510000F901F90189529E8230F0396A11DB11D78
:10052000D2CF1F920F920FB60F9211242F933F93A9
:100530004F935F936F937F938F939F93AF93BF93EB
:10054000EF93FF9382E291E00E941001FF91EF91FF
:10055000BF91AF919F918F917F916F915F914F91DB
:100560003F912F910F900FBE0F901F9018951F92E3
:100570000F920FB60F9211242F938F939F93EF93A7
:10058000FF93E0913201F09133018081E0913801D5
:10059000F091390182FD1BC0908180913B018F5FFA
:1005A0008F7320913C01821741F0E0913B01F0E014
:1005B000EE5DFE4F958F80933B01FF91EF919F91F0
:1005C0008F912F910F900FBE0F901F9018958081E3
:1005D000F4CF1F920F920FB60F9211242F933F93D7
:1005E0004F935F936F937F938F939F93AF93BF933B
:1005F000EF93FF9380911701909118018093B200BF
:100600008091130190911401A0911501B0911601F0
:100610000196A11DB11D8093130190931401A09325
:100620001501B09316018091130190911401A091CE
:100630001501B091160180911201811110C081E065
:10064000809312011092130110921401109215015F
:1006500010921601F0E0E0E0099510921201FF916E
:10066000EF91BF91AF919F918F917F916F915F912A
:100670004F913F912F910F900FBE0F901F901895A3
:10068000E2E2F1E01382128288EE93E0A0E0B0E0B3
:1006900084839583A683B78384E091E091838083EC
:1006A00085EC90E09587848784EC90E09787868737
:1006B00080EC90E0918B808B81EC90E0938B828B2F
:1006C00082EC90E0958B848B86EC90E0978B868B08
:1006D000118E128E138E148E0895789484B58260D4
:1006E00084BD84B5816084BD85B5826085BD85B5D6
:1006F000816085BD80916E00816080936E00109254
:1007000081008091810082608093810080918100CE
:10071000816080938100809180008160809380005F
:100720008091B10084608093B1008091B0008160BD
:100730008093B00080917A00846080937A008091E9
:100740007A00826080937A0080917A008E7F809315
:100750007A0080917A00806880937A001092C100BC
:1007600080918100887F81608093810085B5887F3A
:10077000826085BD86E00E94870089E00E94870034
:100780008AE00E94870086E00E94870086E00E943F
:10079000B30189E00E94870089E00E94B3018AE0EA
:1007A0000E9487008AE00E94B301C0E0D0E05E981A
:1007B00029982A9890E080E022E02A95F1F700C07D
:1007C0000196843F21E09207B9F75E9A299A2A9A06
:1007D00090E080E022E02A95F1F700C00196843F86
:1007E00021E09207B9F7209711F30E949F01882317
:1007F000F1F20E940000DBCFEE0FFF1F0590F49195
:08080000E02D0994F894FFCFEC
:10080800000000003201A600D3007F010401E200CD
:02081800F600E8
:00000001FF
