:100000000C94FC000C9424010C9424010C94240105
:100010000C9424010C9424010C9424010C942401CC
:100020000C9424010C94BE060C9424010C9424011D
:100030000C9424010C9424010C9424010C942401AC
:100040000C941C060C9424010C948C060C946606EB
:100050000C9424010C9424010C9424010C9424018C
:100060000C9424010C9424017D007D00FA00FA0018
:1000700077017701F4016B036504E204E2045F0594
:10008000F40171027102EE02EE02EE026B036B03E9
:100090006B036B036B03E803E803E803E803650401
:1000A00065046504E204E2042D052D052D05AA056D
:1000B0002D052D05E204E204E2042D05AA05AA059A
:1000C00000000000000000000000000000007D00B3
:1000D0007D00FA007D00FA007D00FA00FA00770149
:1000E000F4017102F401FA007701FA007701F401DA
:1000F000FA007701F4017102EE02F4017102EE02DE
:100100006B03F4016B03E803F401710271026B03EA
:10011000E8036B03E803E2046B03E8036504E2040D
:100120002D05AA05000000000000000000000000EE
:100130000000770100000000000000001E00050024
:1001400005000A0014000200020002000200020082
:10015000020002000200020002000200020002008F
:100160000200010001000100010001000000010087
:100170000000010000000100000001000300030076
:1001800003000A000900080007000600050000003F
:100190000000000000004803050004000300020006
:1001A00001000100580200000000240027002A007E
:1001B00000000000250028002B00040404040404AF
:1001C0000404020202020202030303030303010206
:1001D00004081020408001020408102001020408D5
:1001E00010200000000800020100000304070000C6
:1001F000000000000000240711241FBECFEFD4E050
:10020000DEBFCDBF11E0A0E0B1E0ECECFEE102C04A
:1002100005900D92A035B107D9F723E0A0E5B1E034
:1002200001C01D92A130B207E1F710E0CCEFD0E0A1
:1002300004C02197FE010E945E0FCB3FD107C9F792
:100240000E9471070C94640F0C940000CF93DF930D
:10025000AB01BC01A0E7B0E08C918E7F8C93E0EB0A
:10026000F0E080818C7F8083E1EBF0E08081877F0C
:100270008083C6EBD0E088818F7D88838C918D7FD1
:100280008C9380818460808380818C7F808381EFE8
:1002900090E0909374018093730140936F015093A9
:1002A0007001609371017093720185E693E0909301
:1002B0006E0180936D01DF91CF91089590E0FC0174
:1002C000EE51FE4F2491FC01E253FE4F3491FC01AC
:1002D000E654FE4FE491EE23C9F0222339F0233097
:1002E00001F1A8F4213019F1223029F1F0E0EE0FEC
:1002F000FF1FE055FE4FA591B4918FB7F894EC9194
:10030000611126C030953E233C938FBF089527305E
:10031000A9F02830C9F0243049F7809180008F7D02
:1003200003C0809180008F7780938000DFCF84B5F9
:100330008F7784BDDBCF84B58F7DFBCF8091B000FC
:100340008F778093B000D2CF8091B0008F7DF9CFAE
:100350003E2BDACFCF93DF9390E0FC01E253FE4FC8
:10036000249186549E4FFC0184918823D1F090E023
:10037000880F991FFC01EA55FE4FA591B491FC012D
:10038000E055FE4FC591D49161110EC09FB7F8940E
:100390008C91E22FE0958E238C932881E223E883D1
:1003A0009FBFDF91CF9108958FB7F894EC91E22B26
:1003B000EC938FBFF6CF1F93CF93DF93182FEB01F2
:1003C00061E00E94AA01209739F460E0812FDF915B
:1003D000CF911F910C945E01E12FF0E0EE51FE4FA2
:1003E000E491E33011F148F4E130B9F0E23069F71B
:1003F00084B5806284BDC8BD14C0E73001F1E83027
:1004000031F1E43011F780918000806280938000A8
:10041000D0938B00C0938A0004C084B5806884BDEB
:10042000C7BDDF91CF911F910895809180008068B2
:1004300080938000D0938900C0938800F2CF809190
:10044000B00080688093B000C093B300EACF809181
:10045000B00080628093B000C093B400E2CF8E30D1
:1004600008F08E508770806480937C0080917A00C1
:10047000806480937A0080917A0086FDFCCF809121
:1004800078009091790008958330910528F0880FC5
:10049000991F04970197F1F708950895AF92BF92BD
:1004A000CF92DF92EF92FF920F931F93CF93DF9340
:1004B0006C017B018B01040F151FEB015E01AE186F
:1004C000BF08C017D10759F06991D601ED91FC9191
:1004D0000190F081E02DC6010995892B79F7C501BE
:1004E000DF91CF911F910F91FF90EF90DF90CF9010
:1004F000BF90AF900895FC01538D448D252F30E0BF
:10050000842F90E0821B930B541710F0CF96089520
:1005100001970895FC01918D828D981761F0A28D4D
:10052000AE0FBF2FB11D5D968C91928D9F5F9F7313
:10053000928F90E008958FEF9FEF0895FC01918DC9
:10054000828D981731F0828DE80FF11D858D90E036
:1005500008958FEF9FEF0895FC01918D228D892FD3
:1005600090E0805C9F4F821B91098F7399270895BB
:1005700085E791E00E94AC0221E0892B09F420E09C
:10058000822F089580E090E0892B29F00E94B80224
:1005900081110C9400000895FC01A48DA80FB92FBF
:1005A000B11DA35ABF4F2C91848D90E001968F739B
:1005B0009927848FA689B7892C93A089B1898C91BA
:1005C000837080648C93938D848D981306C0028809
:1005D000F389E02D80818F7D80830895EF92FF92D3
:1005E0000F931F93CF93DF93EC0181E0888F9B8D56
:1005F0008C8D98131AC0E889F989808185FF15C010
:100600009FB7F894EE89FF896083E889F989808132
:100610008370806480839FBF81E090E0DF91CF9101
:100620001F910F91FF90EF900895F62E0B8D10E023
:100630000F5F1F4F0F731127E02E8C8D8E110CC092
:100640000FB607FCFACFE889F989808185FFF5CFDD
:10065000CE010E94CC02F1CFEB8DEC0FFD2FF11DEE
:10066000E35AFF4FF0829FB7F8940B8FEA89FB891A
:1006700080818062CFCFCF93DF93EC01888D882378
:10068000B9F0AA89BB89E889F9898C9185FD03C0F5
:10069000808186FD0DC00FB607FCF7CF8C9185FFDA
:1006A000F2CF808185FFEDCFCE010E94CC02E9CF51
:1006B000DF91CF91089521E020936201109208010B
:1006C00090930501809304010895809157019091C2
:1006D0005801019690935801809357012091610130
:1006E000222309F452C080349F4168F08091550163
:1006F00090915601109258011092570101969093D3
:1007000056018093550180915F0190916001209185
:1007100055013091560128173907B0F01092560153
:100720001092550101969093600180935F01809132
:100730005B0190915C01019690935C0180935B0159
:1007400081E0809363010895A2E6B2E090E080E04A
:100750003FE421E0389FF001399FF00D1124EC5E59
:10076000FD4F43A954A965A976A94F5F5F4F6F4F0D
:100770007F4F43AB54AB65AB76AB2C930196A15B3B
:10078000BF4F8330910531F7089520910801211161
:1007900004C0209162012223B1F220915F013091C7
:1007A00060018217930778F2109258011092570156
:1007B0002F5F3F4F3093600120935F01B8CF1092BD
:1007C0005101109252011092530110925401109253
:1007D000500180917301909174018093B200E0E721
:1007E000F0E08081816080830895CF93DF93EC01F6
:1007F00081E0809361011092080110926201E0E7AC
:10080000F0E080818E7F808361E070E080E090E0A6
:100810000E9426010E94DF038091590190915A01A4
:10082000092E000CAA0BBB0BE4E1F2E0858F968F3A
:10083000A78FB0A3D383C283809380029093810259
:10084000A0938202B0938302D0936602C0936502A4
:100850008093CF029093D002A093D102B093D202A2
:10086000D093B502C093B402DF91CF910895CF9297
:10087000DF92EF92FF920F931F93CF93DF938C0140
:10088000C4E6D0E0C12CD12C7601F80187A990AD47
:100890000E942F02BC01990F880B990B0E94650ED4
:1008A0002AE037ED43E25CE30E94F10E9B01AC01CC
:1008B000C701B6010E94C10D6B017C01219729F788
:1008C0000E942D0EF80171836083DF91CF911F91FB
:1008D0000F91FF90EF90DF90CF900895CF93DF932B
:1008E000EC018BAD9CAD60E00E945E01188619861C
:1008F0001A861B8689AD9AAD70E060E00E94DB012C
:10090000F89483E090E09EA78DA7DE01A95BBF4F1E
:1009100090E080E0AE014B5B5F4FFA0120813181B6
:100920008217930774F4ED91FD912BAD3CADEE5B16
:10093000FF4F20813181215031093183208301967D
:10094000ECCF8EE595E098AB8FA71AAA19AA7894F8
:10095000DF91CF9108950F931F93CF93DF93FC0105
:10096000E55BFF4F2081222309F45BC0EC018BA9DA
:100970009CA9ADA9BEA90196A11DB11D8BAB9CABD5
:10098000ADABBEAB8C894BA95CA96DA97EA98823B0
:10099000C1F08C819D81AE81BF8184179507A60728
:1009A000B70750F41BAA1CAA1DAA1EAA8BAD9CADAA
:1009B00060E00E945E011C8ADF91CF911F910F9130
:1009C00008958C859D85AE85BF8584179507A607FC
:1009D000B70790F78D899E89AF89B88D0196A11DC3
:1009E000B11D8D8B9E8BAF8BB88F498D5A8D6B8DC2
:1009F0007C8D1BAA1CAA1DAA1EAA481759076A07A4
:100A00007B0738F4CE01DF91CF911F910F910C94A9
:100A10006E048BAD9CAD61E00E945E0181E08C8B29
:100A2000CBCFFC0140855185628573854F5F5F4F59
:100A30006F4F7F4F4087518762877387048115818D
:100A400026813781401751076207730708F4B4CF36
:100A5000DACFCF93DF93EC0189A19AA1ABA1BCA11E
:100A60000196A11DB11D89A39AA3ABA3BCA34D8D73
:100A70005E8D6F8D78A184179507A607B707D8F00C
:100A800019A21AA21BA21CA28BAD9CAD61E00E9410
:100A90005E0189AD9AAD64E070E00E94DB01F894DC
:100AA00082E090E09EA78DA78BEA94E098AB8FA799
:100AB0001AAA19AA7894DF91CF910895FF920F9303
:100AC0001F93CF93DF93EC0189A59AA5ABA5BCA595
:100AD0000196A11DB11D89A79AA7ABA7BCA74DA1DF
:100AE0005EA16FA178A584179507A607B70738F10F
:100AF0008E010F5B1F4FFF24F394F801F08219A6BB
:100B00001AA61BA61CA689AD9AAD61E070E00E94F2
:100B1000DB01F8941EA61DA6FE01EC5BFF4F1082C0
:100B2000F801F0828DE492E098AB8FA71AAA19AA77
:100B300089AD9AAD61E070E00E94DB017894DF91AD
:100B4000CF911F910F91FF900895CF93DF93EC0108
:100B50000E94050D25E630E040E050E00E945D0D6A
:100B6000C617D70784F081E08093620110920801D4
:100B7000E8E6F0E08591949190930501809304015B
:100B8000DF91CF9108951092620181E08093080176
:100B9000EEECF0E085919491909303018093020133
:100BA000EAE6F0E085919491909301018093000131
:100BB000E7CF0F931F93CF93DF938C01EB0181E07D
:100BC000809308010E94050D25E630E040E050E0EA
:100BD0000E945D0D06171707ACF0EEECF0E0859172
:100BE00094919093030180930201EAE6F0E08591ED
:100BF00094919093010180930001DF91CF911F9117
:100C00000F9108950E94050D9E012F5F3F4F032E07
:100C1000000C440B550B0E945D0D660F771FFB0106
:100C2000E253FF4F859194919093030180930201C9
:100C300066597F4FFB01DBCF1F920F920FB60F92C9
:100C400011242F933F938F939F93AF93BF938091E2
:100C5000690190916A01A0916B01B0916C01309192
:100C6000680126E0230F2D3758F50296A11DB11D0E
:100C7000209368018093690190936A01A0936B01AE
:100C8000B0936C018091640190916501A09166011F
:100C9000B09167010196A11DB11D809364019093ED
:100CA0006501A0936601B0936701BF91AF919F91D9
:100CB0008F913F912F910F900FBE0F901F9018951D
:100CC00029E8230F0396A11DB11DD2CF1F920F92C9
:100CD0000FB60F9211242F933F934F935F936F930F
:100CE0007F938F939F93AF93BF93EF93FF9385E78A
:100CF00091E00E94CC02FF91EF91BF91AF919F9143
:100D00008F917F916F915F914F913F912F910F90B4
:100D10000FBE0F901F9018951F920F920FB60F9253
:100D200011242F938F939F93EF93FF93E09185016D
:100D3000F09186018081E0918B01F0918C0182FD20
:100D40001BC0908180918E018F5F8F7320918F01E6
:100D5000821741F0E0918E01F0E0EB58FE4F958F45
:100D600080938E01FF91EF919F918F912F910F9022
:100D70000FBE0F901F9018958081F4CF1F920F9295
:100D80000FB60F9211242F933F934F935F936F935E
:100D90007F938F939F93AF93BF93EF93FF93809134
:100DA0007301909174018093B200809151019091F0
:100DB0005201A0915301B09154010196A11DB11DA2
:100DC0008093510190935201A0935301B093540129
:100DD0004091510150915201609153017091540121
:100DE00080916F0190917001A0917101B091720199
:100DF000481759076A077B07B0F0809150018111AD
:100E000012C081E080935001109251011092520162
:100E10001092530110925401E0916D01F0916E0116
:100E2000099510925001FF91EF91BF91AF919F9161
:100E30008F917F916F915F914F913F912F910F9083
:100E40000FBE0F901F901895E5E7F1E01382128214
:100E500088EE93E0A0E0B0E084839583A683B78317
:100E600081E491E09183808385EC90E0958784878D
:100E700084EC90E09787868780EC90E0918B808B64
:100E800081EC90E0938B828B82EC90E0958B848B4D
:100E900086EC90E0978B868B118E128E138E148EBB
:100EA000109262028091120290911302909361025B
:100EB000809360021092B1029C012F5F3F4F3093EC
:100EC000B0022093AF02109200032F5F3F4F309388
:100ED000FF022093FE020396909313028093120266
:100EE0000895CF93DF93CDB7DEB728970FB6F89468
:100EF000DEBF0FBECDBF789484B5826084BD84B55B
:100F0000816084BD85B5826085BD85B5816085BD04
:100F100080916E00816080936E00109281008091BC
:100F20008100826080938100809181008160809344
:100F30008100809180008160809380008091B10069
:100F400084608093B1008091B00081608093B00094
:100F500080917A00846080937A0080917A00826028
:100F600080937A0080917A008E7F80937A008091BE
:100F70007A00806880937A001092C100E2E3F1E089
:100F80008591949190935A0180935901198261E05F
:100F900089810E94AA0129812F5F29832D30B9F709
:100FA00080917A00846080937A0080917A008D7FAE
:100FB00080937A0080917A008E7F80937A0080E01F
:100FC0000E942F02BC01990F880B990B61157105C6
:100FD0008105910511F00E94540D61E086E00E94A8
:100FE000AA0161E088E00E94AA0161E08AE00E9413
:100FF000AA0161E087E00E94AA0161E089E00E9405
:10100000AA0161E084E00E94AA014DE051E05C8306
:101010004B8389E191E09A83898333E1232E31E088
:10102000332E45E5E42E42E0F42EA4E1B2E0B88789
:10103000AF83B12CA12C54EF452E55245394612C31
:10104000712CEF81F885E451F240FE83ED83AB8192
:10105000BC818D919D91BC83AB83BFE4BA9D40015F
:10106000BB9D900C112484010C5E1D4FF80190AFC4
:1010700087AB60E00E94AA01A981BA818D919D9100
:10108000BA83A983F80192AF81AF61E00E94AA01FF
:10109000D1018D919D911D01F80194AF83AF61E065
:1010A0000E94AA01F801EE5BFF4F118210826801D5
:1010B000F5E4CF0ED11CD60111961C921E92F701B9
:1010C0001082AF81B88518961D921D921D921C92B8
:1010D0001B97FD0111A212A213A214A2D801D3964C
:1010E0001D921D921D921C92D6971182108245A2CC
:1010F00056A267A270A6DF0111A612A613A614A617
:10110000F70112861C961D921D921D921C921F972C
:10111000FD01108A118A128A138A59961D921D9216
:101120001D921C925C9754961C925497F70117825B
:10113000168211861086CD010E943704F894AF8183
:10114000B8859E961C921E929D97F801EC5BFF4F0E
:10115000108281E0F70180832DE432E0D0963C9349
:101160002E939F97D2961C921E92D197D801D99612
:101170008D919C9161E070E00E94DB01789490E099
:1011800080E0D601ED81FE818E179F07B1F0ED91D1
:10119000FC911197EE0FFF1FE80DF91DE55AFD4F69
:1011A0009C012C5E3D4F318320832D913C91119702
:1011B0002F5F3F4F11963C932E93815B9F4F8D3E47
:1011C000910501F7FFEFAF1ABF0A2F813885215B28
:1011D0003F4F38872F833FE4E30EF11C43E0A41612
:1011E000B10409F02ECFF89480918100887F81604E
:1011F0008093810085B5887F826085BD80916E0077
:101200008E7F80936E0060E47FE180E090E00E943A
:1012100026010E94DF03789481E08093630103E05C
:10122000402E512C612C712C1AE3212E312C8091EF
:101230006301882309F4A2C01092630160915F01E9
:101240007091600140915B0150915C0120915D01C2
:1012500030915E01421B530BCA01820F931FF22F84
:10126000E32F2F5F3F4F672B51F4FA01E20FF31F7B
:10127000EE0FFF1FEC5CFE4F65917491EDCFF09384
:101280005D01E0935E0190935C0180935B01FC0142
:10129000EE0FFF1FEC5CFE4F2591349130936001FF
:1012A00020935F018230910509F446C078F50097DC
:1012B00009F436C0019709F43AC080915B0190911E
:1012C0005C018630910509F44FC00CF03FC00597D2
:1012D00009F445C080915B0190915C01FC01399754
:1012E000EE30F10508F0CDC0E858F64F0C945E0FD3
:1012F000BA091A0A1D0A200A230A260A290A2C0AF0
:101300002F0A320A350A380A3B0A3E0A8330910511
:10131000C1F0049791F670E060E084E690E004C0CC
:1013200065E070E090E080E00E94D905C6CF65E0FE
:1013300070E081E290E0F8CF65E070E082E490E058
:10134000F3CF65E070E080E590E0EECF8730910567
:1013500071F0089709F0BECF84E690E002C084E106
:1013600090E00E94A505B6CF81E290E0FACF82E43A
:1013700090E0F7CF8AEF90E00E945B0385E791E071
:101380000E943B0380910801882309F44EC161E06B
:1013900088E00E945E0164E070E086E00E94DB016C
:1013A00061E087E00E945E0164E070E08AE00E94F4
:1013B000DB0161E084E00E945E0164E070E089E0AE
:1013C0000E94DB0180910201909103018F569F4F93
:1013D0000E94440260E088E00E945E0161E070E0EB
:1013E00086E00E94DB0160E087E00E945E0161E030
:1013F00070E08AE00E94DB0160E084E00E945E0110
:1014000061E070E089E00E94DB0180910001909131
:1014100001018F569F4F0E94440280E090E0892B8B
:1014200009F405CF0E94B802882309F4FDCE0E947A
:101430000000FACE87E791E09FCF84EF91E09CCF48
:1014400081E792E099CF8EEE92E096CF8BE693E023
:1014500093CF88EE93E090CF85E694E08DCF82EE37
:1014600094E08ACF84EC99E087CF88E893E184CF39
:1014700080E197E281CF88E99AE37ECF88EA91E61E
:101480007BCFFC017797ED30F10508F04EC0E55BAE
:10149000F54F0C945E0F580A5F0A620A650A680AE3
:1014A0006B0A700A730A7A0A810A880A8F0A920AFA
:1014B0008DE590E090930701809306015FCF86E56C
:1014C00090E0F8CF8FE490E0F5CF88E490E0F2CFA1
:1014D00081E490E0EFCF30920701209206014ECFD9
:1014E00083E390E0E7CFACE2B0E0B0930701A093D4
:1014F000060144CFE5E2F0E0F0930701E093060136
:101500003DCF2EE130E0309307012093060136CF26
:1015100047E150E050930701409306012FCF80E14F
:1015200090E0C8CF89E090E0C5CFFC01BE97EB30DA
:10153000F10508F04BC0E156F54F0C945E0FAA0A76
:10154000AF0AAF0AAF0AB20AB50AB80ABB0ABE0AA6
:10155000C10AC40A85E090E00E94F5030FCF84E140
:1015600090E0FACF82E390E0F7CF8CE390E0F4CF05
:1015700086E490E0F1CF80E590E0EECF8AE590E060
:10158000EBCF84E690E0E8CF109261011092080161
:101590001092620170E060E086E00E94DB0160E092
:1015A00088E00E945E0170E060E08AE00E94DB015A
:1015B00060E087E00E945E0170E060E089E00E94E8
:1015C000DB0160E084E00E945E01D8CEFC01B497AC
:1015D000EA30F10508F0D2CEE051F54F0C945E0FE1
:1015E000FA0AFD0A000B030B060BAA0A090B0C0BE7
:1015F0000F0B120B90E080E0AFCF81E090E0ACCF1A
:1016000082E090E0A9CF83E090E0A6CF84E090E074
:10161000A3CF86E090E0A0CF87E090E09DCF88E068
:1016200090E09ACF89E090E097CF80916201882383
:1016300009F444C00E94050D25E630E040E050E08A
:101640000E945D0D20910601309107012617370792
:101650002CF48091040190910501DBCE0E94050DD0
:10166000A30192010E945D0DDB01AA0FBB1FBA838B
:10167000A983FD01E75EFE4F108164E070E0812FD9
:101680000E94DB01E981FA81ED5EFE4FF081F98372
:1016900061E08F2F0E945E0180910401909105010D
:1016A0008F569F4F0E94440261E070E0812F0E949C
:1016B000DB0160E089810E945E01AFCE8091610113
:1016C000882309F4AACE24E132E03A832983D12C7D
:1016D000C12C6FE4B62E88248394912CAA24A39461
:1016E000A981BA819D96ED90FC909E97E114F1043A
:1016F00009F011C1BC9C8001BD9C100D11240C5E31
:101700001D4FF801EE5BFF4F80819181892B09F01D
:1017100002C1FD01EF5BFF4F80818823A9F0108299
:10172000CD010E943704F80187A990AD0E942F02D5
:10173000A981BA812D913C91821B930BF80196AF40
:1017400085AFFF9691838083BC9C8001BD9C100D6A
:1017500011240C5E1D4FD801D7968D919C910E944B
:101760002F02E981FA8120813181821B930BD801FC
:10177000DE969C938E93DD97D7968D919C910E94D7
:101780002F02E981FA8120813181821B930BF801BC
:10179000FF9691838083D801DD968D919C91DE9791
:1017A00020813181821B930B181619060CF043C05F
:1017B000DD968D919C9120813181821B930BA981B3
:1017C000BA8112962D913C911397281739070CF086
:1017D000A2C0F8949E969C928E929D97BC9C80018C
:1017E000BD9C100D11240C5E1D4FC8018B5B9F4FDB
:1017F000D801DB96FC0120813181E216F3060CF55D
:10180000F701EE0FFF1FE95BFF4F29813A81E20FDD
:10181000F31F0190F081E02D2D913C911197EE5B2B
:10182000FF4F208131812F5F3F4F318320833FEF76
:10183000E31AF30ADFCF80819181F80125AD36AD3F
:10184000BCCFD801D3961D921D921D921C92D697A3
:101850000E94050D26E030E040E050E00E945D0D62
:101860007B01EE0CFF1CF701ED5CFE4F8081918146
:10187000092E000CAA0BBB0BE981FA8184839583A6
:10188000A683B783F701E75DFE4F80819181092E22
:10189000000CAA0BBB0BE981FA8184879587A68788
:1018A000B787E55BFF4FA082D801D3961D921D92AA
:1018B0001D921C92D697E981FA81A48ADB968D91BC
:1018C0009C9161E00E945E01F701E15EFE4F808124
:1018D0009181092E000CAA0BBB0BE981FA81818F43
:1018E000928FA38FB48FDF01158A168A178A108E04
:1018F000E9E2F5E0D096FC93EE939F97D2961C9286
:101900001E92D197D801D9968D919C9162E070E09A
:101910000E94DB017894E981FA81E25BFF4F8081CC
:101920008823C1F01082E981FA8121A932A9C90175
:10193000959587958E0F9F1F07A4F0A9E02D20FF96
:1019400008C0DC012D913C91E20FF31F0190F08162
:10195000E02D0995BFEFCB1ADB0AE981FA81E15B43
:10196000FF4FFA83E983F3E0CF16D10409F0B8CE34
:1019700054CD8F929F92AF92BF92CF92DF92EF920F
:10198000FF92CF93DF93EC01688179818A819B81FB
:10199000611571058105910521F464E279ED8BE50E
:1019A00097E02DE133EF41E050E00E945D0D4901E9
:1019B0005A019B01AC01A7EAB1E40E947C0D6B01C6
:1019C0007C01ACEEB4EFA50194010E948A0DC60E15
:1019D000D71EE81EF91EF7FE06C081E0C81AD1081E
:1019E000E10880E8F80AC882D982EA82FB82C7014E
:1019F000B6019F77DF91CF91FF90EF90DF90CF906E
:101A0000BF90AF909F908F9008958F929F92AF92CA
:101A1000BF92CF92DF92EF92FF9260910901709195
:101A20000A0180910B0190910C01611571058105EE
:101A3000910521F464E279ED8BE597E02DE133EF38
:101A400041E050E00E945D0D49015A019B01AC014B
:101A5000A7EAB1E40E947C0D6B017C01ACEEB4EF0F
:101A6000A50194010E948A0DC60ED71EE81EF91E1C
:101A7000F7FE06C081E0C81AD108E10880E8F80A3C
:101A8000C0920901D0920A01E0920B01F0920C0180
:101A9000C701B6019F77FF90EF90DF90CF90BF9086
:101AA000AF909F908F9008956093090170930A0101
:101AB00080930B0190930C010895052E97FB1EF463
:101AC00000940E94740D57FD07D00E948F0D07FCF3
:101AD00003D04EF40C94740D50954095309521959B
:101AE0003F4F4F4F5F4F089590958095709561954A
:101AF0007F4F8F4F9F4F08950E94B10DA59F900D6E
:101B0000B49F900DA49F800D911D11240895B7FFDF
:101B10000C947C0D0E947C0D821B930B0895A1E216
:101B20001A2EAA1BBB1BFD010DC0AA1FBB1FEE1F57
:101B3000FF1FA217B307E407F50720F0A21BB30BA2
:101B4000E40BF50B661F771F881F991F1A9469F71E
:101B500060957095809590959B01AC01BD01CF017A
:101B60000895A29FB001B39FC001A39F700D811D76
:101B70001124911DB29F700D811D1124911D089596
:101B80005058BB27AA270E94D80D0C94B70E0E946C
:101B9000A90E38F00E94B00E20F039F49F3F19F4DE
:101BA00026F40C94A60E0EF4E095E7FB0C94A00E20
:101BB000E92F0E94C80E58F3BA176207730784070B
:101BC000950720F079F4A6F50C94EA0E0EF4E09552
:101BD0000B2EBA2FA02D0B01B90190010C01CA01E7
:101BE000A0011124FF27591B99F0593F50F4503E92
:101BF00068F11A16F040A22F232F342F4427585F84
:101C0000F3CF469537952795A795F0405395C9F79B
:101C10007EF41F16BA0B620B730B840BBAF0915053
:101C2000A1F0FF0FBB1F661F771F881FC2F70EC0F2
:101C3000BA0F621F731F841F48F4879577956795C5
:101C4000B795F7959E3F08F0B0CF9395880F08F0B1
:101C50009927EE0F9795879508950E94340E689402
:101C6000B1110C94EB0E08950E94D00E88F09F578E
:101C700098F0B92F9927B751B0F0E1F0660F771FB0
:101C8000881F991F1AF0BA95C9F714C0B13091F0A6
:101C90000E94EA0EB1E008950C94EA0E672F782FA7
:101CA0008827B85F39F0B93FCCF38695779567956B
:101CB000B395D9F73EF490958095709561957F4FD7
:101CC0008F4F9F4F0895E89409C097FB3EF490957D
:101CD0008095709561957F4F8F4F9F4F9923A9F005
:101CE000F92F96E9BB279395F69587957795679594
:101CF000B795F111F8CFFAF4BB0F11F460FF1BC0D8
:101D00006F5F7F4F8F4F9F4F16C0882311F096E96A
:101D100011C0772321F09EE8872F762F05C0662318
:101D200071F096E8862F70E060E02AF09A95660FD1
:101D3000771F881FDAF7880F9695879597F908958A
:101D400097F99F6780E870E060E008959FEF80EC6E
:101D5000089500240A941616170618060906089511
:101D600000240A9412161306140605060895092E77
:101D70000394000C11F4882352F0BB0F40F4BF2BE6
:101D800011F460FF04C06F5F7F4F8F4F9F4F089526
:101D900057FD9058440F551F59F05F3F71F047951C
:101DA000880F97FB991F61F09F3F79F08795089501
:101DB000121613061406551FF2CF4695F1DF08C020
:101DC000161617061806991FF1CF8695710561053D
:101DD00008940895E894BB2766277727CB0197F9E5
:101DE00008950E94040F0C94B70E0E94A90E38F0BB
:101DF0000E94B00E20F0952311F00C94A00E0C94CC
:101E0000A60E11240C94EB0E0E94C80E70F3959F41
:101E1000C1F3950F50E0551F629FF001729FBB27E1
:101E2000F00DB11D639FAA27F00DB11DAA1F649F7D
:101E30006627B00DA11D661F829F2227B00DA11D30
:101E4000621F739FB00DA11D621F839FA00D611DB6
:101E5000221F749F3327A00D611D231F849F600DD7
:101E6000211D822F762F6A2F11249F5750409AF000
:101E7000F1F088234AF0EE0FFF1FBB1F661F771F8C
:101E8000881F91505040A9F79E3F510580F00C9457
:101E9000A00E0C94EB0E5F3FE4F3983ED4F38695CE
:101EA00077956795B795F795E7959F5FC1F7FE2BF7
:101EB000880F911D9695879597F90895EE0FFF1F4E
:0C1EC0000590F491E02D0994F894FFCFF8
:101ECC007D007D007D006400010100000001000028
:101EDC0000020008000700040006000A0009009632
:101EEC000096009600960096000100020002000485
:101EFC0000030001000100020001000300000000CB
:101F0C0000EE024E027B023B03AC028A029E0200F0
:00000001FF
