:100000000C9462000C948A000C948A000C948A0070
:100010000C948A000C948A000C948A000C948A0038
:100020000C948A000C948B0B0C948A000C948A001C
:100030000C948A000C948A000C948A000C948A0018
:100040000C94B50B0C948A000C948A000C948A00D2
:100050000C948A000C948A000C948A000C948A00F8
:100060000C948A000C948A000000000024002700F1
:100070002A0000000000250028002B0000000000DE
:1000800023002600290004040404040404040202DA
:100090000202020203030303030301020408102007
:1000A0004080010204081020010204081020000012
:1000B0000007000201000003040600000000000029
:1000C0000000730411241FBECFEFD4E0DEBFCDBF0C
:1000D00012E0A0E0B1E0E2E4F1E202C005900D928E
:1000E000AC36B107D9F713E0ACE6B2E001C01D921F
:1000F000AE36B107E1F710E0C4ECD0E004C02297BF
:10010000FE010E946410C23CD107C9F70E94B20DE3
:100110000C949F100C940000A0E0B0E0E2E9F0E045
:100120000C947010EC01A880B980CA80DB80A11407
:10013000B104C104D10441F484E2A82E89EDB82EA3
:100140008BE5C82E87E0D82EC601B5012DE133EF2F
:1001500041E050E00E94251027EA31E440E050E001
:100160000E9406107B018C01C601B5012DE133EF21
:1001700041E050E00E942510CA01B9012CEE34EF95
:100180004FEF5FEF0E9406106E0D7F1D801F911FC5
:1001900097FF04C061507040804090486883798325
:1001A0008A839B839B01AC015F77B901CA01CDB7FC
:1001B000DEB7EAE00C948C100E948C00089580E079
:1001C00091E00E948C0008956093000170930101FA
:1001D000809302019093030108950895FC017383B5
:1001E000628308959B01442737FD4095542FFC01FD
:1001F000258F368F478F50A30895FC0185AD96ADAE
:10020000DF01DF962D913C911197821B930B1816FD
:1002100019062CF445AD56AD8D919C9104C04D91BD
:100220005C9185AD96AD481B590B62817381641753
:10023000750714F080E0089585AD96ADDF01DF9677
:100240002D913C911197821B930B181619062CF4D3
:1002500045AD56AD8D919C9104C04D915C9185AD9D
:1002600096AD481B590B80E06D5F7F4F6417750793
:100270000CF081E00895CF93DF93EC018BA99CA94A
:10028000ADA9BEA90196A11DB11D8BAB9CABADABB9
:10029000BEAB89A99AA92FA538A980FF0EC0FC0181
:1002A000F595E795EC0FFD1F0190F081E02DE20F31
:1002B000F31F0190F081E02D01C0F901959587951C
:1002C0008C0F9D1F0995DF91CF9108950895FC0132
:1002D000DC01AB5BBF4F8D919C911197880F991FEB
:1002E000E80FF91FE95BFF4F718360838D919C914B
:1002F0001197019611969C938E9308950F931F93D7
:10030000CF93DF93EC011BAA1CAA1DAA1EAA66E0CC
:1003100070E080E090E00E94C10DFB01DE01A55B72
:10032000BF4F1C9277FF02C081E08C938F01000FBA
:10033000111FF801E45CFD4F80819181AA2797FD90
:10034000A095BA2F8C839D83AE83BF83F801EA5BAF
:10035000FD4F80819181AA2797FDA095BA2F8C87A8
:100360009D87AE87BF87C55BDF4F8881CB54D04068
:100370008823E1F01BAA1CAA1DAA1EAA81E08C8B6F
:100380008BAD9CAD61E00E945E0D005B1D4FF801DE
:1003900080819181AA2797FDA095BA2F898F9A8F86
:1003A000AB8FBC8F1D8A1E8A1F8A188EDF91CF915A
:1003B0001F910F910895FC01CB0174AF63AF61E011
:1003C0000E941F0D0895FC01CB0172AF61AF61E087
:1003D0000E941F0D0895FC01CB0170AF67AB60E078
:1003E0000E941F0D0895CF93DF93EC017EA76DA7A8
:1003F00061307105B9F0623071051CF4672BD9F0DA
:100400006EC06230710509F44CC06330710509F0AB
:1004100066C0DC01A95BBF4F20E030E0AC014B5B64
:100420005F4F51C0DC01A95BBF4F20E030E0AC0161
:100430004B5B5F4F20C0CC5BDF4F1882239781E07E
:100440008883C154D0401AAA19AA86E691E098ABD5
:100450008FA789AD9AAD61E070E020C0ED91FD916C
:100460008BAD9CADEE5BFF4F8081918101969183B6
:1004700080832F5F3F4FFA018081918128173907D0
:100480006CF3CE010E947E011AAA19AA89E193E0B9
:1004900098AB8FA789AD9AAD62E070E00E94BF0C67
:1004A0001EC01AAA19AA85EF92E017C0ED91FD911E
:1004B0008BAD9CADEE5BFF4F808191810197918365
:1004C00080832F5F3F4FFA01808191812817390780
:1004D0006CF31AAA19AA87E493E098AB8FA761E09E
:1004E00070E080E090E00E94090CDF91CF910895C8
:1004F0000F931F938C01FC0183AD94AD60E00E94CB
:100500005E0DF801108611861286138681AD92ADBC
:1005100060E070E00E94BF0CC80163E070E00E94E0
:10052000F3011F910F910895CF93DF93EC018BA9F5
:100530009CA9ADA9BEA90196A11DB11D8BAB9CAB19
:10054000ADABBEAB8C898823C9F02BA93CA94DA9C2
:100550005EA98C819D81AE81BF8182179307A4071C
:10056000B50708F03FC01BAA1CAA1DAA1EAA8BAD86
:100570009CAD60E00E945E0D1C8A34C02BA93CA992
:100580004DA95EA98C859D85AE85BF858217930791
:10059000A407B50738F58D899E89AF89B88D019676
:1005A000A11DB11D8D8B9E8BAF8BB88F298D3A8D80
:1005B0004B8D5C8D281739074A075B0740F41BAA4F
:1005C0001CAA1DAA1EAACE010E9478020BC01BAA5B
:1005D0001CAA1DAA1EAA8BAD9CAD61E00E945E0DF7
:1005E00081E08C8BDF91CF910895FC01E55BFF4F9B
:1005F0008081EB54F040882321F0CF010E949402C7
:10060000089580859185A285B3850196A11DB11DB0
:1006100080879187A287B38724813581468157815E
:1006200082179307A407B50718F0CF010E9478023C
:100630000895CF93DF93EC0189A19AA1ABA1BCA14E
:100640000196A11DB11D89A39AA3ABA3BCA32D8DB7
:100650003E8D4F8D58A182179307A407B507A0F0D0
:1006600019A21AA21BA21CA28BAD9CAD61E00E9434
:100670005E0D89AD9AAD64E070E00E94BF0CCE01C2
:1006800062E070E00E94F301DF91CF910895CF9373
:10069000DF93EC0189A59AA5ABA5BCA50196A11D88
:1006A000B11D89A79AA7ABA7BCA72DA13EA14FA1B9
:1006B00058A582179307A407B507A8F0CF5BDF4FB3
:1006C00081E08883C154D04019A61AA61BA61CA697
:1006D00089AD9AAD61E070E00E94BF0CCE0160E090
:1006E00070E00E94F301DF91CF910895CF92DF92E5
:1006F000EF92FF920F931F93CF93DF936C010F2E16
:10070000F0E0EF2EF0E0FF2EF0E00F2FF0E01F2FD3
:10071000F02DC0E0D0E0F60187A990AD0E949D0CBD
:10072000AA2797FDA095BA2FBC01CD010E94EF0E1C
:100730002AE037ED43E25CE30E94A30F9B01AC018A
:10074000C801B7010E94EC0D7B018C012196C436D3
:10075000D10509F70E94BC0EF60171836083DF9119
:10076000CF911F910F91FF90EF90DF90CF90089560
:100770000F931F938C010E5B1F4FF80111821082A3
:100780000D5F1F4FF8011182108204501040F801D4
:10079000108201541040F8011086118612861386CB
:1007A00011A212A213A214A213AA14AA15AA16AA7D
:1007B0001182108284EF91E0A0E0B0E085A396A3BF
:1007C000A7A3B0A711A612A613A614A6055B1F4FD8
:1007D000F80110820B541040F80114861586168615
:1007E0001786108A118A128A138A118E128E138E1E
:1007F000148E148A095B1F4FF801119211928F0118
:100800001182108209541040C8010E947603C80169
:1008100060E070E00E94F3011F910F9108950F9323
:100820001F93CF93DF93EC01CE5BDF4F88819981DB
:10083000C254D040892B09F048C0FE01EF5BFF4F46
:100840008081882391F01082CE010E9476038FA9C7
:1008500098AD0E949D0C28813981821B930B9EAF1D
:100860008DAFEF9699838883EF978FA998AD0E94FB
:100870009D0C28813981821B930B9EAF8DAFCE01D9
:100880000E94FD002DAD3EAD8E01015C1F4FF801B1
:10089000318320838823C9F08FA998AD0E949D0CD5
:1008A00028813981821B930B9EAF8DAFCE010E94B0
:1008B000FD002DAD3EADF80131832083882329F062
:1008C000CE0161E070E00E94F301DF91CF911F91B2
:1008D0000F910895FC0185A596A5892B19F4CF01E8
:1008E0000E940F0408958CE692E00E94ED0088EBD0
:1008F00092E00E94ED0084E093E00E94ED000895F4
:10090000CF93DF93C0E0D0E0FE01E65AFD4F808137
:1009100060E00E945E0DFE01E05AFD4F808161E0C3
:1009200070E00E94BF0C2296C630D10569F7DF91B6
:10093000CF910895CF93DF93C0E0D0E0FE01E65A57
:10094000FD4F808161E00E945E0DFE01E05AFD4F87
:10095000808164E070E00E94BF0C2296C630D10511
:1009600069F7DF91CF910895AF92BF92CF92DF9256
:10097000EF92FF920F931F930E949A04E0916801F7
:10098000F091690160817181882777FD8095982FAA
:100990000E94EF0E5B016C012BEA3AEA4AE250E456
:1009A0000E94A30F7B018C0120E030E040E85FE370
:1009B0000E94500E882314F461E054C0C801B701AE
:1009C00020E030E04FE753E40E949F0F18160CF030
:1009D00045C0C601B50120E030E04AE754E40E947A
:1009E000540E5B016C0120E030E04AEF54E40E94B9
:1009F000A30F7B018C0120E030E040E85FE30E9420
:100A0000500E88231CF461E070E024C0C801B701D7
:100A100020E03FEF4FE757E40E949F0F1816B4F411
:100A2000C601B50120E030E040E251E40E94A30F8E
:100A30000E94C10E88EC90E005C0FC013197F1F7EF
:100A40006150704061157105C1F70EC0C801B70152
:100A50000E94C10ECB010197F1F706C0C801B70192
:100A60000E94C10E6A95F1F70E948004E091CE01C8
:100A7000F091CF0160817181882777FD8095982F53
:100A80000E94EF0E5B016C012BEA3AEA4AE250E465
:100A90000E94A30F7B018C0120E030E040E85FE37F
:100AA0000E94500E882314F461E054C0C801B701BD
:100AB00020E030E04FE753E40E949F0F18160CF03F
:100AC00045C0C601B50120E030E04AE754E40E9489
:100AD000540E5B016C0120E030E04AEF54E40E94C8
:100AE000A30F7B018C0120E030E040E85FE30E942F
:100AF000500E88231CF461E070E024C0C801B701E7
:100B000020E03FEF4FE757E40E949F0F1816B4F420
:100B1000C601B50120E030E040E251E40E94A30F9D
:100B20000E94C10E88EC90E005C0FC013197F1F7FE
:100B30006150704061157105C1F70EC0C801B70161
:100B40000E94C10ECB010197F1F706C0C801B701A1
:100B50000E94C10E6A95F1F71F910F91FF90EF90DF
:100B6000DF90CF90BF90AF900895CF93DF93109216
:100B700051031092380210925003C0E0D0E0FE0101
:100B8000E05AFD4F808160E070E00E94BF0CFE01E2
:100B9000E65AFD4F808160E00E945E0D2296C630CD
:100BA000D10569F7DF91CF9108958F929F92AF920F
:100BB000BF92CF92DF92EF92FF920F931F9365E661
:100BC00070E080E090E00E94C10D209139023091E8
:100BD0003A02261737070CF077C0E091D201F09166
:100BE000D30160817181882777FD8095982F0E94BD
:100BF000EF0E5B016C012BEA3AEA4AE250E40E94F4
:100C0000A30F7B018C0120E030E040E85FE30E940D
:100C1000500E882314F461E054C0C801B70120E0ED
:100C200030E04FE753E40E949F0F18160CF045C0C8
:100C3000C601B50120E030E04AE754E40E94540EBA
:100C40005B016C0120E030E04AEF54E40E94A30F06
:100C50007B018C0120E030E040E85FE30E94500E11
:100C600088231CF461E070E024C0C801B70120E0D3
:100C70003FEF4FE757E40E949F0F1816B4F4C601E8
:100C8000B50120E030E040E251E40E94A30F0E9451
:100C9000C10E88EC90E005C0FC013197F1F761507E
:100CA000704061157105C1F7ABC0C801B7010E9462
:100CB000C10ECB010197F1F7A3C0C801B7010E9493
:100CC000C10E6A95F1F79CC063E070E080E090E0AF
:100CD0000E94C10D7B018C01EE0CFF1CF701E05A54
:100CE000FD4F8080882D64E070E00E94BF0C8AE593
:100CF00092E0E80EF91EF7019080892D61E00E94D4
:100D00005E0DE091D201F091D3016081718188275D
:100D100077FD8095982F0E94EF0E5B016C012BEA06
:100D20003AEA4AE250E40E94A30F7B018C0120E0E2
:100D300030E040E85FE30E94500E882314F461E045
:100D400054C0C801B70120E030E04FE753E40E94EF
:100D50009F0F18160CF045C0C601B50120E030E029
:100D60004AE754E40E94540E5B016C0120E030E03D
:100D70004AEF54E40E94A30F7B018C0120E030E095
:100D800040E85FE30E94500E88231CF461E070E0AD
:100D900024C0C801B70120E03FEF4FE757E40E94AD
:100DA0009F0F1816B4F4C601B50120E030E040E210
:100DB00051E40E94A30F0E94C10E88EC90E005C090
:100DC000FC013197F1F76150704061157105C1F771
:100DD0000EC0C801B7010E94C10ECB010197F1F707
:100DE00006C0C801B7010E94C10E6A95F1F7882DAF
:100DF00061E070E00E94BF0C892D60E00E945E0DF2
:100E00001F910F91FF90EF90DF90CF90BF90AF9028
:100E10009F908F9008950F931F938C0165E670E06B
:100E200080E090E00E94C10D0617170764F081E092
:100E3000809350031092380280ED91E09093D3019B
:100E40008093D20111C01092500381E08093380248
:100E500084E091E090936901809368018AE691E0D3
:100E60009093CF018093CE011F910F9108950F931E
:100E70001F93CF93DF938C01EB0181E080933802C5
:100E800065E670E080E090E00E94C10D061717074C
:100E90006CF084E091E090936901809368018AE6A8
:100EA00091E09093CF018093CE0117C02196BE01AF
:100EB000882777FD8095982F0E94C10D660F771FB8
:100EC0009B012C5F3E4F3093690120936801665966
:100ED0007E4F7093CF016093CE01DF91CF911F9130
:100EE0000F91089580913802882319F00E94B4046C
:100EF000089580915003882319F00E94D505089524
:100F000080915103882361F08CE692E00E946A048C
:100F100088EB92E00E946A0484E093E00E946A04F5
:100F20000895CF92DF92EF92FF920F931F93CF938A
:100F3000DF937C0181E0809351031092380210927C
:100F400050030E94460B61E070E080E090E04EE6C6
:100F50005AE00E94E20A0E94300BC0E0D0E02CE48C
:100F6000C22ED12CCC9D8001CD9D100DDC9D100D8D
:100F7000112404591D4FE091D601F091D7016081F1
:100F80007181C8010E94F200C801B7010E94EE0001
:100F90002196C330D10531F7DF91CF911F910F9189
:100FA000FF90EF90DF90CF900895E0913602F0919E
:100FB000370206C02F5F3F4F3093530320935203F5
:100FC000AF01819191912091520330915303892B6C
:100FD00089F3409336025093370222303105B9F03D
:100FE000233031053CF42115310559F0213031050C
:100FF000E1F40AC02330310569F024303105A9F449
:101000000EC080E090E008C081E290E005C082E47C
:1010100090E002C080E590E065E070E004C084E606
:1010200090E060E070E00E94370780915203909159
:1010300053038630910579F0873091051CF40597AC
:10104000A1F406C08730910549F0089771F409C0F2
:1010500084E190E008C081E290E005C082E490E085
:1010600002C084E690E00E940B07809152039091A9
:1010700053038F30910509F47CC080319105D4F47D
:101080008B30910509F44DC08C3091053CF48930CA
:10109000910579F10A9709F0C5C037C08D309105E7
:1010A00009F453C0E091D201F091D3010E970CF0F6
:1010B00058C043C08331910509F483C08431910540
:1010C00064F48131910509F468C0E091D201F09196
:1010D000D30142970CF06DC058C08531910509F4D9
:1010E00088C0853191050CF478C0469709F09AC004
:1010F0008CC081E08093500310923802E091D201BD
:10110000F091D3018AEF90E08BC081E0809350038F
:1011100010923802E091D201F091D30187E791E07B
:101120007FC081E08093500310923802E091D20199
:10113000F091D30184EF91E073C081E0809350037C
:101140001092380281E792E06BC081E080935003F7
:1011500010923802E091D201F091D3018EEE92E02C
:101160005FC081E080935003109238028BE693E0D9
:1011700057C081E08093500310923802E091D20171
:10118000F091D30188EE93E04BC081E0809350034F
:101190001092380285E694E043C081E080935003CA
:1011A00010923802E091D201F091D30182EE94E0E6
:1011B00037C081E0809350031092380284EC99E0AC
:1011C0002FC081E08093500310923802E091D20149
:1011D000F091D30188E893E123C081E0809350032C
:1011E00010923802E091D201F091D30180E197E2B0
:1011F00017C081E08093500310923802E091D20131
:10120000F091D30188E99AE30BC081E08093500309
:1012100010923802E091D201F091D30188EA91E670
:101220009183808380915203909153038D31910576
:1012300009F440C08E319105A4F48931910571F112
:101240008A31910544F48731910511F18831910576
:1012500009F049C020C08B31910531F14C973CF524
:1012600020C08032910579F1813291053CF48E31B4
:10127000910519F18F319105B1F522C082329105A6
:1012800041F18232910514F18332910561F524C058
:101290008DE590E023C086E590E020C08FE490E0EB
:1012A0001DC088E490E01AC081E490E017C08AE392
:1012B00090E014C083E390E011C08CE290E00EC097
:1012C00085E290E00BC08EE190E008C087E190E0FD
:1012D00005C080E190E002C089E090E090933A027E
:1012E0008093390208958932910581F18A329105FE
:1012F00094F48632910521F18732910534F48432D9
:101300009105D9F08597A9F51BC087329105C1F0E9
:10131000889779F518C08C32910509F18D329105C5
:1013200034F48A329105A9F08B9719F515C08D32E6
:101330009105C1F08E97E9F41AC081E090E014C0E5
:1013400082E090E011C085E090E00EC086E090E081
:101350000BC087E090E008C088E090E005C089E01D
:1013600090E002C08AE090E00E94910708950E94F8
:10137000B50508956F927F928F929F92AF92BF9220
:10138000CF92DF92EF92FF920F931F93CF93DF9351
:1013900010E0812F61E00E941F0D1F5F1D30C9F713
:1013A00080917A00846080937A0080917A008D7FAA
:1013B00080937A0080917A008E7F80937A0080E01B
:1013C0000E949D0C0E94E30DC0E0D0E0FE01E05AB7
:1013D000FD4F808161E00E941F0DFE01E65AFD4F26
:1013E000808161E00E941F0D2296C630D10571F701
:1013F000AA24BB24CC24DD24882499243CE4632E35
:10140000712CA69CE001A79CD00DB69CD00D112498
:10141000C459DD4FF601EA59FD4F60817181CE015B
:101420000E94EB01F601E05AFD4F60817181CE010F
:101430000E94E301F601E65AFD4F60817181CE0101
:101440000E94DB01CE010E94B80300E010E0EE2410
:10145000FF24E814F90461F0069DB001079D700DAA
:10146000169D700D112464597D4FCE010E946701B5
:101470000F5F1F4F8CE490E0E80EF91E033011055A
:1014800041F70894A11CB11C82E090E0C80ED91E5F
:101490008CE490E0880E991E93E0A916B10409F03F
:1014A000B0CFF8946EE870E280E090E04EE65AE04B
:1014B0000E94E20A0E94300B78940E94D507DF91C7
:1014C000CF911F910F91FF90EF90DF90CF90BF9041
:1014D000AF909F908F907F906F90089520915603CA
:1014E000309157032F5F3F4F30935703209356039C
:1014F00080915103882309F43FC02E58304268F090
:101500001092570310925603809154039091550303
:1015100001969093550380935403E0913602F09125
:1015200037022081318180915403909155038217B5
:101530009307A8F010925503109254033296F0933B
:101540003702E09336028091520390915303019643
:1015500090935303809352030E94D50708958CE61D
:1015600092E00E943B0188EB92E00E943B0184E004
:1015700093E00E943B01089580913802882321F472
:10158000809150038823E9F0E0913602F091370210
:101590008081918128173907A0F01092570310928B
:1015A00056033296F0933702E0933602809152034D
:1015B00090915303019690935303809352030E949A
:1015C000D50708950F931F938B019C0180917000A4
:1015D0008E7F809370008091B0008C7F8093B000EC
:1015E0008091B100877F8093B1008091B6008F7D9C
:1015F0008093B600809170008D7F80937000809101
:10160000B10084608093B1008091B1008C7F8093A1
:10161000B10081EF90E09093640380936303011520
:1016200011052105310569F481E090E0A0E0B0E00A
:101630008093580390935903A0935A03B0935B038C
:1016400008C0009358031093590320935A03309312
:101650005B0350935D0340935C031F910F910895CA
:1016600010925E0310925F03109260031092610368
:101670001092620380916303909164038093B2009F
:10168000E0E7F0E08081816080830895E0E7F0E0AA
:1016900080818E7F8083089580915E0390915F03A7
:1016A000A0916003B09161030196A11DB11D8093CB
:1016B0005E0390935F03A0936003B0936103209156
:1016C0005E0330915F03409160035091610380910C
:1016D000580390915903A0915A03B0915B032817C6
:1016E00039074A075B07B0F080916203882391F4C1
:1016F00081E08093620310925E0310925F03109268
:10170000600310926103E0915C03F0915D03099521
:101710001092620308951F920F920FB60F92112438
:101720002F933F934F935F936F937F938F939F93E9
:10173000AF93BF93EF93FF93809163039091640302
:101740008093B2000E944C0BFF91EF91BF91AF913B
:101750009F918F917F916F915F914F913F912F91C9
:101760000F900FBE0F901F9018951F920F920FB6FB
:101770000F9211242F933F934F935F936F937F9317
:101780008F939F93AF93BF932091690330916A0326
:1017900040916B0350916C0370916D03DA01C901A4
:1017A0000296A11DB11D672F6A5F6D3730F06D572E
:1017B000DA01C9010396A11DB11D60936D038093E9
:1017C000690390936A03A0936B03B0936C038091B9
:1017D000650390916603A0916703B0916803019639
:1017E000A11DB11D8093650390936603A0936703C9
:1017F000B0936803BF91AF919F918F917F916F914B
:101800005F914F913F912F910F900FBE0F901F90BE
:1018100018959B01AC017FB7F89480916503909176
:101820006603A0916703B091680366B5A89B05C0E5
:101830006F3F19F00196A11DB11D7FBFBA2FA92FCF
:10184000982F8827860F911DA11DB11D63E0880F79
:10185000991FAA1FBB1F6A95D1F7BC012DC0FFB706
:10186000F8948091650390916603A0916703B0910D
:101870006803E6B5A89B05C0EF3F19F00196A11DCE
:10188000B11DFFBFBA2FA92F982F88278E0F911D4A
:10189000A11DB11DE3E0880F991FAA1FBB1FEA9588
:1018A000D1F7861B970B885E9340C8F221503040D9
:1018B0004040504068517C4F21153105410551058C
:1018C00071F60895789484B5826084BD84B5816092
:1018D00084BD85B5826085BD85B5816085BDEEE638
:1018E000F0E0808181608083E1E8F0E01082808117
:1018F00082608083808181608083E0E8F0E0808185
:1019000081608083E1EBF0E0808184608083E0EBA4
:10191000F0E0808181608083EAE7F0E0808184608C
:1019200080838081826080838081816080838081E8
:10193000806880831092C1000895982F8E3008F03F
:101940009E50977080913B028295880F880F807C13
:10195000892B80937C0080917A00806480937A0048
:1019600080917A0086FDFCCF20917800409179002B
:10197000942F80E030E0282B392BC90108951F9364
:10198000CF93DF93182FEB0161E00E941F0D20978A
:1019900009F44AC0CF3FD10509F449C0E12FF0E076
:1019A000E255FF4F84918330C1F0843028F48130B8
:1019B00051F08230B1F50CC0863019F1873049F111
:1019C000843079F514C084B5806884BDC7BD33C048
:1019D00084B5806284BDC8BD2EC0809180008068BF
:1019E00080938000D0938900C093880024C08091A8
:1019F0008000806280938000D0938B00C0938A0027
:101A00001AC08091B00080688093B000C093B3008A
:101A100012C08091B00080628093B000C093B40087
:101A20000AC0C038D1051CF4812F60E002C0812FAC
:101A300061E00E945E0DDF91CF911F910895CF93D9
:101A4000DF93482F50E0CA0186569F4FFC01349126
:101A50004A575F4FFA018491882369F190E0880F1B
:101A6000991FFC01E859FF4FA591B491FC01EE5874
:101A7000FF4FC591D491662351F42FB7F8948C9100
:101A8000932F909589238C93888189230BC0623092
:101A900061F42FB7F8948C91932F909589238C93B0
:101AA0008881832B88832FBF06C09FB7F8948C91C1
:101AB000832B8C939FBFDF91CF910895482F50E0E7
:101AC000CA0182559F4FFC012491CA0186569F4F3F
:101AD000FC0194914A575F4FFA013491332309F482
:101AE00040C0222351F1233071F0243028F42130FA
:101AF000A1F0223011F514C02630B1F02730C1F02A
:101B00002430D9F404C0809180008F7703C0809185
:101B100080008F7D8093800010C084B58F7702C0D5
:101B200084B58F7D84BD09C08091B0008F7703C0DC
:101B30008091B0008F7D8093B000E32FF0E0EE0F36
:101B4000FF1FEE58FF4FA591B4912FB7F89466236D
:101B500021F48C919095892302C08C91892B8C93D0
:101B60002FBF0895CF93DF930E94620C0E94BA09A1
:101B7000C0E0D0E00E9472072097E1F30E940000CD
:101B8000F9CFEF92FF920F931F937B018C016115A8
:101B900071058105910529F420E030E040E050E036
:101BA0000BC00E94DF00A80197010E942510AC0124
:101BB000CB01DA019C01AD01B901CA011F910F915E
:101BC000FF90EF900895009729F0BC0180E090E02D
:101BD0000E94E40008955058BB27AA270ED075C173
:101BE00066D130F06BD120F031F49F3F11F41EF438
:101BF0005BC10EF4E095E7FB51C1E92F77D180F38B
:101C0000BA17620773078407950718F071F49EF5F9
:101C10008FC10EF4E0950B2EBA2FA02D0B01B90148
:101C200090010C01CA01A0011124FF27591B99F052
:101C3000593F50F4503E68F11A16F040A22F232F5E
:101C4000342F4427585FF3CF469537952795A795AE
:101C5000F0405395C9F77EF41F16BA0B620B730B55
:101C6000840BBAF09150A1F0FF0FBB1F661F771FC6
:101C7000881FC2F70EC0BA0F621F731F841F48F47B
:101C8000879577956795B795F7959E3F08F0B3CF01
:101C90009395880F08F09927EE0F979587950895EB
:101CA000D9D008F481E008950CD00FC107D140F0DD
:101CB000FED030F021F45F3F19F0F0C0511139C16E
:101CC000F3C014D198F39923C9F35523B1F3951BAD
:101CD000550BBB27AA2762177307840738F09F5F4D
:101CE0005F4F220F331F441FAA1FA9F333D00E2EBC
:101CF0003AF0E0E830D091505040E695001CCAF729
:101D000029D0FE2F27D0660F771F881FBB1F2617ED
:101D100037074807AB07B0E809F0BB0B802DBF01C0
:101D2000FF2793585F4F2AF09E3F510568F0B6C0D9
:101D300000C15F3FECF3983EDCF38695779567959D
:101D4000B795F7959F5FC9F7880F911D9695879571
:101D500097F90895E1E0660F771F881FBB1F621790
:101D600073078407BA0720F0621B730B840BBA0B4E
:101D7000EE1F88F7E095089504D06894B111D9C09A
:101D80000895BCD088F09F5790F0B92F9927B7518C
:101D9000A0F0D1F0660F771F881F991F1AF0BA952F
:101DA000C9F712C0B13081F0C3D0B1E00895C0C00E
:101DB000672F782F8827B85F39F0B93FCCF3869525
:101DC00077956795B395D9F73EF490958095709582
:101DD00061957F4F8F4F9F4F0895E89409C097FBFF
:101DE0003EF490958095709561957F4F8F4F9F4FF2
:101DF0009923A9F0F92F96E9BB279395F695879536
:101E000077956795B795F111F8CFFAF4BB0F11F4F8
:101E100060FF1BC06F5F7F4F8F4F9F4F16C088239F
:101E200011F096E911C0772321F09EE8872F762FD5
:101E300005C0662371F096E8862F70E060E02AF016
:101E40009A95660F771F881FDAF7880F9695879502
:101E500097F90895990F0008550FAA0BE0E8FEEFD7
:101E600016161706E807F907C0F012161306E4075E
:101E7000F50798F0621B730B840B950B39F40A2657
:101E800061F0232B242B252B21F408950A2609F435
:101E9000A140A6958FEF811D811D089597F99F6739
:101EA00080E870E060E008959FEF80EC08950024E2
:101EB0000A941616170618060906089500240A94AF
:101EC00012161306140605060895092E0394000C35
:101ED00011F4882352F0BB0F40F4BF2B11F460FFC4
:101EE00004C06F5F7F4F8F4F9F4F089557FD9058ED
:101EF000440F551F59F05F3F71F04795880F97FBCE
:101F0000991F61F09F3F79F0879508951216130687
:101F10001406551FF2CF4695F1DF08C016161706B6
:101F20001806991FF1CF86957105610508940895EB
:101F3000E894BB2766277727CB0197F908958ADFB6
:101F400008F48FEF08950BD0C0CFB1DF28F0B6DFD3
:101F500018F0952309F0A2CFA7CF1124EACFC6DF4E
:101F6000A0F3959FD1F3950F50E0551F629FF001AC
:101F7000729FBB27F00DB11D639FAA27F00DB11D05
:101F8000AA1F649F6627B00DA11D661F829F22278E
:101F9000B00DA11D621F739FB00DA11D621F839F15
:101FA000A00D611D221F749F3327A00D611D231FEB
:101FB000849F600D211D822F762F6A2F11249F5739
:101FC00050408AF0E1F088234AF0EE0FFF1FBB1F5C
:101FD000661F771F881F91505040A9F79E3F5105FB
:101FE00070F05CCFA6CF5F3FECF3983EDCF38695B4
:101FF00077956795B795F795E7959F5FC1F7FE2BA6
:10200000880F911D9695879597F90895629FD00145
:10201000739FF001829FE00DF11D649FE00DF11DA3
:10202000929FF00D839FF00D749FF00D659FF00D52
:102030009927729FB00DE11DF91F639FB00DE11D3F
:10204000F91FBD01CF011124089597FB092E052624
:102050000ED057FD04D014D00AD0001C38F450958F
:102060004095309521953F4F4F4F5F4F0895F6F7BC
:1020700090958095709561957F4F8F4F9F4F0895F4
:10208000A1E21A2EAA1BBB1BFD010DC0AA1FBB1F7C
:10209000EE1FFF1FA217B307E407F50720F0A21BEE
:1020A000B30BE40BF50B661F771F881F991F1A945B
:1020B00069F760957095809590959B01AC01BD0185
:1020C000CF010895EE0FFF1F0590F491E02D0994C4
:1020D0002F923F924F925F926F927F928F929F9238
:1020E000AF92BF92CF92DF92EF92FF920F931F9326
:1020F000CF93DF93CDB7DEB7CA1BDB0B0FB6F894D7
:10210000DEBF0FBECDBF09942A88398848885F8416
:102110006E847D848C849B84AA84B984C884DF8087
:10212000EE80FD800C811B81AA81B981CE0FD11D6B
:102130000FB6F894DEBF0FBECDBFED010895F89441
:02214000FFCFCF
:10214200010000007D007D00FA007D00FA007D00A4
:10215200FA00FA007701F4017102F401FA00770142
:10216200FA007701F401FA007701F4017102EE023C
:10217200F4017102EE026B03F4016B03E803F40154
:10218200710271026B03E8036B03E803E2046B0361
:10219200E8036504E2042D05AA0500000000000022
:1021A200000000000000000004017D00FA00FA00B7
:1021B20077017701F4016B036504E204E2045F0531
:1021C200F40171027102EE02EE02EE026B036B0386
:1021D2006B036B036B03E803E803E803E80365049E
:1021E20065046504E204E2042D052D052D05AA050A
:1021F2002D052D05E204E204E2042D05AA05AA0537
:1022020000000000000000000000000000006A0161
:102212007D00D0017701D401000000000000000021
:102222001E00050005000A00140002000200020060
:10223200020002000200020002000200020002008C
:102242000200020002000100010001000100010081
:102252000000010000000100000001000000010078
:10226200030003000300480305000400030002000A
:10227200010001005802D8010164000101000100BF
:10228200020001000300010002000200040003003A
:10229200960096009600960096000800070004003B
:0C22A20006000A00090001000000020014
:00000001FF
